{"contracts/utils/mock/SuicidalMock.sol":{"SuicidalMock":{"abi":[{"inputs":[{"internalType":"address payable","name":"_target","type":"address"}],"stateMutability":"nonpayable","type":"constructor"},{"inputs":[],"name":"die","outputs":[],"stateMutability":"payable","type":"function"},{"inputs":[],"name":"target","outputs":[{"internalType":"address payable","name":"","type":"address"}],"stateMutability":"view","type":"function"},{"stateMutability":"payable","type":"receive"}],"evm":{"bytecode":{"linkReferences":{},"object":"608060405234801561001057600080fd5b506040516101213803806101218339818101604052602081101561003357600080fd5b5051600080546001600160a01b039092166001600160a01b031990921691909117905560bd806100646000396000f3fe60806040526004361060295760003560e01c806335f46994146034578063d4b8399214603c57602f565b36602f57005b600080fd5b603a606a565b005b348015604757600080fd5b50604e6078565b604080516001600160a01b039092168252519081900360200190f35b6000546001600160a01b0316ff5b6000546001600160a01b03168156fea26469706673582212200f689896ba14b01ea7b7615454fc52ecb0f2348f6d5ea7b99d7daec8f46647ba64736f6c63430007060033","opcodes":"PUSH1 0x80 PUSH1 0x40 MSTORE CALLVALUE DUP1 ISZERO PUSH2 0x10 JUMPI PUSH1 0x0 DUP1 REVERT JUMPDEST POP PUSH1 0x40 MLOAD PUSH2 0x121 CODESIZE SUB DUP1 PUSH2 0x121 DUP4 CODECOPY DUP2 DUP2 ADD PUSH1 0x40 MSTORE PUSH1 0x20 DUP2 LT ISZERO PUSH2 0x33 JUMPI PUSH1 0x0 DUP1 REVERT JUMPDEST POP MLOAD PUSH1 0x0 DUP1 SLOAD PUSH1 0x1 PUSH1 0x1 PUSH1 0xA0 SHL SUB SWAP1 SWAP3 AND PUSH1 0x1 PUSH1 0x1 PUSH1 0xA0 SHL SUB NOT SWAP1 SWAP3 AND SWAP2 SWAP1 SWAP2 OR SWAP1 SSTORE PUSH1 0xBD DUP1 PUSH2 0x64 PUSH1 0x0 CODECOPY PUSH1 0x0 RETURN INVALID PUSH1 0x80 PUSH1 0x40 MSTORE PUSH1 0x4 CALLDATASIZE LT PUSH1 0x29 JUMPI PUSH1 0x0 CALLDATALOAD PUSH1 0xE0 SHR DUP1 PUSH4 0x35F46994 EQ PUSH1 0x34 JUMPI DUP1 PUSH4 0xD4B83992 EQ PUSH1 0x3C JUMPI PUSH1 0x2F JUMP JUMPDEST CALLDATASIZE PUSH1 0x2F JUMPI STOP JUMPDEST PUSH1 0x0 DUP1 REVERT JUMPDEST PUSH1 0x3A PUSH1 0x6A JUMP JUMPDEST STOP JUMPDEST CALLVALUE DUP1 ISZERO PUSH1 0x47 JUMPI PUSH1 0x0 DUP1 REVERT JUMPDEST POP PUSH1 0x4E PUSH1 0x78 JUMP JUMPDEST PUSH1 0x40 DUP1 MLOAD PUSH1 0x1 PUSH1 0x1 PUSH1 0xA0 SHL SUB SWAP1 SWAP3 AND DUP3 MSTORE MLOAD SWAP1 DUP2 SWAP1 SUB PUSH1 0x20 ADD SWAP1 RETURN JUMPDEST PUSH1 0x0 SLOAD PUSH1 0x1 PUSH1 0x1 PUSH1 0xA0 SHL SUB AND SELFDESTRUCT JUMPDEST PUSH1 0x0 SLOAD PUSH1 0x1 PUSH1 0x1 PUSH1 0xA0 SHL SUB AND DUP2 JUMP INVALID LOG2 PUSH5 0x6970667358 0x22 SLT KECCAK256 0xF PUSH9 0x9896BA14B01EA7B761 SLOAD SLOAD 0xFC MSTORE 0xEC 0xB0 CALLCODE CALLVALUE DUP16 PUSH14 0x5EA7B99D7DAEC8F46647BA64736F PUSH13 0x63430007060033000000000000 "},"methodIdentifiers":{"die()":"35f46994","target()":"d4b83992"}}}}}