{
  "_format": "hh-sol-artifact-1",
  "contractName": "AgentSettingsFacet",
  "sourceName": "contracts/assetManager/facets/AgentSettingsFacet.sol",
  "abi": [
    {
      "inputs": [],
      "name": "CollateralRatioTooSmall",
      "type": "error"
    },
    {
      "inputs": [],
      "name": "EmergencyPauseActive",
      "type": "error"
    },
    {
      "inputs": [],
      "name": "FeeTooHigh",
      "type": "error"
    },
    {
      "inputs": [],
      "name": "IncreaseTooBig",
      "type": "error"
    },
    {
      "inputs": [],
      "name": "InvalidAgentVaultAddress",
      "type": "error"
    },
    {
      "inputs": [],
      "name": "InvalidSettingName",
      "type": "error"
    },
    {
      "inputs": [],
      "name": "NoPendingUpdate",
      "type": "error"
    },
    {
      "inputs": [],
      "name": "NotAttached",
      "type": "error"
    },
    {
      "inputs": [],
      "name": "OnlyAgentVaultOwner",
      "type": "error"
    },
    {
      "inputs": [],
      "name": "OnlyAssetManagerController",
      "type": "error"
    },
    {
      "inputs": [],
      "name": "OnlyImmediateGovernanceOrExecutor",
      "type": "error"
    },
    {
      "inputs": [],
      "name": "UpdateNotValidAnymore",
      "type": "error"
    },
    {
      "inputs": [],
      "name": "UpdateNotValidYet",
      "type": "error"
    },
    {
      "inputs": [],
      "name": "ValueTooHigh",
      "type": "error"
    },
    {
      "inputs": [],
      "name": "ValueTooLow",
      "type": "error"
    },
    {
      "anonymous": false,
      "inputs": [
        {
          "indexed": true,
          "internalType": "address",
          "name": "agentVault",
          "type": "address"
        },
        {
          "indexed": false,
          "internalType": "string",
          "name": "name",
          "type": "string"
        },
        {
          "indexed": false,
          "internalType": "uint256",
          "name": "value",
          "type": "uint256"
        },
        {
          "indexed": false,
          "internalType": "uint256",
          "name": "validAt",
          "type": "uint256"
        }
      ],
      "name": "AgentSettingChangeAnnounced",
      "type": "event"
    },
    {
      "anonymous": false,
      "inputs": [
        {
          "indexed": true,
          "internalType": "address",
          "name": "agentVault",
          "type": "address"
        },
        {
          "indexed": false,
          "internalType": "string",
          "name": "name",
          "type": "string"
        },
        {
          "indexed": false,
          "internalType": "uint256",
          "name": "value",
          "type": "uint256"
        }
      ],
      "name": "AgentSettingChanged",
      "type": "event"
    },
    {
      "inputs": [
        {
          "internalType": "address",
          "name": "_agentVault",
          "type": "address"
        },
        {
          "internalType": "string",
          "name": "_name",
          "type": "string"
        },
        {
          "internalType": "uint256",
          "name": "_value",
          "type": "uint256"
        }
      ],
      "name": "announceAgentSettingUpdate",
      "outputs": [
        {
          "internalType": "uint256",
          "name": "_updateAllowedAt",
          "type": "uint256"
        }
      ],
      "stateMutability": "nonpayable",
      "type": "function"
    },
    {
      "inputs": [
        {
          "internalType": "address",
          "name": "_agentVault",
          "type": "address"
        },
        {
          "internalType": "string",
          "name": "_name",
          "type": "string"
        }
      ],
      "name": "executeAgentSettingUpdate",
      "outputs": [],
      "stateMutability": "nonpayable",
      "type": "function"
    },
    {
      "inputs": [
        {
          "internalType": "address",
          "name": "_agentVault",
          "type": "address"
        },
        {
          "internalType": "string",
          "name": "_name",
          "type": "string"
        }
      ],
      "name": "getAgentSetting",
      "outputs": [
        {
          "internalType": "uint256",
          "name": "_value",
          "type": "uint256"
        }
      ],
      "stateMutability": "view",
      "type": "function"
    }
  ],
  "bytecode": "0x6080604052348015600f57600080fd5b506113d48061001f6000396000f3fe608060405234801561001057600080fd5b50600436106100415760003560e01c80630ffb0e8614610046578063b74cb9231461006b578063e7732f911461007e575b600080fd5b61005961005436600461109b565b610093565b60405190815260200160405180910390f35b6100596100793660046110f3565b6101a3565b61009161008c3660046110f3565b610384565b005b60008361009f81610541565b60006100aa86610573565b905060006100b78661060e565b90506100c2816106ec565b6100d5906001600160401b031642611158565b935060405180604001604052806100eb876107e7565b6001600160801b0316815260200161010286610859565b6001600160401b039081169091526000838152600b85016020908152604091829020845181549590920151909316600160801b026001600160c01b03199094166001600160801b0390911617929092179055516001600160a01b038816907f4d36a05405b72bb52f213501e39c8a9900eb28710aaa0b6e53e88ab243ca296590610191908990899089906111b1565b60405180910390a25050509392505050565b6000806101af84610573565b905060006101bc8461060e565b90506000805160206112ff83398151915281036101f05750600401546901000000000000000000900461ffff16905061037e565b6000805160206112df833981519152810361021c575060040154600160581b900461ffff16905061037e565b60008051602061133f83398151915281036102485750600c0154600160e01b900461ffff16905061037e565b60008051602061135f8339815191528103610276575060040154600160681b900463ffffffff16905061037e565b60008051602061131f83398151915281036102a4575060040154600160881b900463ffffffff16905061037e565b60008051602061137f83398151915281036102d05750600a0154600160801b900461ffff16905061037e565b7f50c491cb85c5de272af4bdee937deba8bfb8efc757876ce0671faf286198be95810361037357815460408051633cfc747d60e01b815290516001600160a01b0390921691633cfc747d916004808201926020929091908290030181865afa158015610340573d6000803e3d6000fd5b505050506040513d601f19601f8201168201806040525081019061036491906111d6565b63ffffffff169250505061037e565b61037b6111fc565b50505b92915050565b8161038e81610541565b600061039984610573565b905060006103a68461060e565b6000818152600b840160205260408120805492935091600160801b90046001600160401b031690036103eb576040516319b2c6ef60e31b815260040160405180910390fd5b805442600160801b9091046001600160401b0316111561041e57604051631ebbcc6360e31b815260040160405180910390fd5b7f4f24f5c433db0962dac0d2c8b84197a6e6c7cc4e5d9ebe1916a1b6193da2f34d5481547f4f24f5c433db0962dac0d2c8b84197a6e6c7cc4e5d9ebe1916a1b6193da2f33a91429161048a91600160c01b90046001600160401b0390811691600160801b900416611212565b6001600160401b031610156104b25760405163e60d1a0f60e01b815260040160405180910390fd5b81546104ca90859085906001600160801b03166108c1565b81546040516001600160a01b038916917f0c8289ce774814e3ace93acb646f85019ee4146198ebb4bdc93bcdbe6465b88091610513918a916001600160801b0390911690611231565b60405180910390a250506000908152600b9091016020526040902080546001600160c01b0319169055505050565b61055361054d82610573565b336109b9565b6105705760405163f6e2f99b60e01b815260040160405180910390fd5b50565b604081901b68010000000000000000600160e01b03167f5bebac0595fee029d42bb673937f5f1cb81cf8641382bc17774635de9b7d79651860048101546000919060ff16828160058111156105ca576105ca61125c565b141580156105ea575060058160058111156105e7576105e761125c565b14155b6106075760405163d68a46c560e01b815260040160405180910390fd5b5092915050565b80516020820120600090816000805160206112ff83398151915282148061064257506000805160206112df83398151915282145b8061065a575060008051602061133f83398151915282145b80610672575060008051602061135f83398151915282145b8061068a575060008051602061131f83398151915282145b806106a2575060008051602061137f83398151915282145b806106cc57507f50c491cb85c5de272af4bdee937deba8bfb8efc757876ce0671faf286198be9582145b90508061060757604051632531d12160e01b815260040160405180910390fd5b60007f4f24f5c433db0962dac0d2c8b84197a6e6c7cc4e5d9ebe1916a1b6193da2f33a6000805160206112ff83398151915283148061073857506000805160206112df83398151915283145b80610750575060008051602061133f83398151915283145b80610768575060008051602061137f83398151915283145b1561078057601301546001600160401b031692915050565b60008051602061135f8339815191528314806107a9575060008051602061131f83398151915283145b156107cd57601301546801000000000000000090046001600160401b031692915050565b60130154600160801b90046001600160401b031692915050565b60006001600160801b038211156108555760405162461bcd60e51b815260206004820152602760248201527f53616665436173743a2076616c756520646f65736e27742066697420696e20316044820152663238206269747360c81b60648201526084015b60405180910390fd5b5090565b60006001600160401b038211156108555760405162461bcd60e51b815260206004820152602660248201527f53616665436173743a2076616c756520646f65736e27742066697420696e203660448201526534206269747360d01b606482015260840161084c565b6000805160206112ff83398151915282036108e5576108e08382610a0c565b505050565b6000805160206112df8339815191528203610904576108e08382610a5a565b60008051602061133f8339815191528203610923576108e08382610aa8565b60008051602061135f8339815191528203610942576108e08382610af6565b60008051602061131f8339815191528203610961576108e08382610b5f565b60008051602061137f8339815191528203610980576108e08382610bc8565b7f50c491cb85c5de272af4bdee937deba8bfb8efc757876ce0671faf286198be9582036109b1576108e08382610c39565b6108e06111fc565b60006001600160a01b03821615801590610a05575060018301546001600160a01b0383811691161480610a0557506109f083610dcf565b6001600160a01b0316826001600160a01b0316145b9392505050565b612710811115610a2f5760405163cd4e616760e01b815260040160405180910390fd5b610a3881610e71565b8260040160096101000a81548161ffff021916908361ffff1602179055505050565b612710811115610a7d576040516318dc18b360e01b815260040160405180910390fd5b610a8681610e71565b82600401600b6101000a81548161ffff021916908361ffff1602179055505050565b612710811115610acb576040516318dc18b360e01b815260040160405180910390fd5b610ad481610e71565b82600c01601c6101000a81548161ffff021916908361ffff1602179055505050565b6000610b0183610ed4565b600381015490915063ffffffff16821015610b2f57604051633e6cc86d60e11b815260040160405180910390fd5b610b3882610f33565b83600401600d6101000a81548163ffffffff021916908363ffffffff160217905550505050565b6000610b6a83610f98565b600381015490915063ffffffff16821015610b9857604051633e6cc86d60e11b815260040160405180910390fd5b610ba182610f33565b8360040160116101000a81548163ffffffff021916908363ffffffff160217905550505050565b612710811115610beb576040516318dc18b360e01b815260040160405180910390fd5b612328811015610c0e57604051635321e1df60e01b815260040160405180910390fd5b610c1781610e71565b82600a0160106101000a81548161ffff021916908361ffff1602179055505050565b6000610c4483610f98565b600381015490915063ffffffff1680831015610c7357604051635321e1df60e01b815260040160405180910390fd5b835460408051633cfc747d60e01b815290516000926001600160a01b031691633cfc747d9160048083019260209291908290030181865afa158015610cbc573d6000803e3d6000fd5b505050506040513d601f19601f82011682018060405250810190610ce091906111d6565b63ffffffff1690506002610cf5826003611272565b610cff9190611289565b84111580610d235750600a610d1583600c611272565b610d1f9190611289565b8411155b610d40576040516313d2afed60e31b815260040160405180910390fd5b610d4b826003611272565b841115610d6b576040516318dc18b360e01b815260040160405180910390fd5b8454604051630f0f739560e31b8152600481018690526001600160a01b039091169063787b9ca890602401600060405180830381600087803b158015610db057600080fd5b505af1158015610dc4573d6000803e3d6000fd5b505050505050505050565b6000610e027f4f24f5c433db0962dac0d2c8b84197a6e6c7cc4e5d9ebe1916a1b6193da2f341546001600160a01b031690565b6001830154604051631f86345d60e31b81526001600160a01b03918216600482015291169063fc31a2e890602401602060405180830381865afa158015610e4d573d6000803e3d6000fd5b505050506040513d601f19601f8201168201806040525081019061037e91906112ab565b600061ffff8211156108555760405162461bcd60e51b815260206004820152602660248201527f53616665436173743a2076616c756520646f65736e27742066697420696e203160448201526536206269747360d01b606482015260840161084c565b6000807fec7e8c1c441439dd40959777f4c577ea0cd42fcc1dbe59d2bd0f5d9c55df8db660048401548154919250829161010090910461ffff16908110610f1d57610f1d6112c8565b9060005260206000209060040201915050919050565b600063ffffffff8211156108555760405162461bcd60e51b815260206004820152602660248201527f53616665436173743a2076616c756520646f65736e27742066697420696e203360448201526532206269747360d01b606482015260840161084c565b6000807fec7e8c1c441439dd40959777f4c577ea0cd42fcc1dbe59d2bd0f5d9c55df8db6600484015481549192508291630100000090910461ffff16908110610f1d57610f1d6112c8565b6001600160a01b038116811461057057600080fd5b634e487b7160e01b600052604160045260246000fd5b600082601f83011261101f57600080fd5b81356001600160401b0381111561103857611038610ff8565b604051601f8201601f19908116603f011681016001600160401b038111828210171561106657611066610ff8565b60405281815283820160200185101561107e57600080fd5b816020850160208301376000918101602001919091529392505050565b6000806000606084860312156110b057600080fd5b83356110bb81610fe3565b925060208401356001600160401b038111156110d657600080fd5b6110e28682870161100e565b925050604084013590509250925092565b6000806040838503121561110657600080fd5b823561111181610fe3565b915060208301356001600160401b0381111561112c57600080fd5b6111388582860161100e565b9150509250929050565b634e487b7160e01b600052601160045260246000fd5b8082018082111561037e5761037e611142565b6000815180845260005b8181101561119157602081850181015186830182015201611175565b506000602082860101526020601f19601f83011685010191505092915050565b6060815260006111c4606083018661116b565b60208301949094525060400152919050565b6000602082840312156111e857600080fd5b815163ffffffff81168114610a0557600080fd5b634e487b7160e01b600052600160045260246000fd5b6001600160401b03818116838216019081111561037e5761037e611142565b604081526000611244604083018561116b565b90506001600160801b03831660208301529392505050565b634e487b7160e01b600052602160045260246000fd5b808202811582820484141761037e5761037e611142565b6000826112a657634e487b7160e01b600052601260045260246000fd5b500490565b6000602082840312156112bd57600080fd5b8151610a0581610fe3565b634e487b7160e01b600052603260045260246000fdfee0243e58c76a12071b4a375d5f283eaf01d6025bbabcdabd4ca2d0d3f67c5e3287971da2ffd60f015ef85ead0fa62169ee9c342d8f1db03babee919d33ccf819061115fe294a09236be45875a15a7800403f95fde525547c9662b92a6359932e1eb84f0e555ab7d88fd7243f3853898f7c3c98ed4c0285667956c327a2f2d170381f724f6ecd2a24d4a619016614db98defae86152186d60beff19b685ea2b5a9aea190d2b3dd7d1d8e8d055952c2e9923c067928667db7f47b1f818b830cba4a2646970667358221220c2c6ba3ec011d573b7875a89bd1e51227951c0c1f07073ea76486f4cc68c889f64736f6c634300081b0033",
  "linkReferences": {},
  "deployedLinkReferences": {}
}