{
  "_format": "hh-sol-artifact-1",
  "contractName": "SettingsManagementFacet",
  "sourceName": "contracts/assetManager/facets/SettingsManagementFacet.sol",
  "abi": [
    {
      "inputs": [],
      "name": "AtLeastOneFactorRequired",
      "type": "error"
    },
    {
      "inputs": [],
      "name": "BipsValueTooHigh",
      "type": "error"
    },
    {
      "inputs": [],
      "name": "BipsValueTooLow",
      "type": "error"
    },
    {
      "inputs": [],
      "name": "CannotAddDeprecatedToken",
      "type": "error"
    },
    {
      "inputs": [],
      "name": "CannotBeZero",
      "type": "error"
    },
    {
      "inputs": [],
      "name": "DecreaseTooBig",
      "type": "error"
    },
    {
      "inputs": [],
      "name": "EmergencyPauseActive",
      "type": "error"
    },
    {
      "inputs": [],
      "name": "FactorNotAboveOne",
      "type": "error"
    },
    {
      "inputs": [],
      "name": "FactorsNotIncreasing",
      "type": "error"
    },
    {
      "inputs": [],
      "name": "FeeDecreaseTooBig",
      "type": "error"
    },
    {
      "inputs": [],
      "name": "FeeIncreaseTooBig",
      "type": "error"
    },
    {
      "inputs": [],
      "name": "IncreaseTooBig",
      "type": "error"
    },
    {
      "inputs": [],
      "name": "InvalidAddress",
      "type": "error"
    },
    {
      "inputs": [],
      "name": "InvalidCollateralRatios",
      "type": "error"
    },
    {
      "inputs": [],
      "name": "LengthsNotEqual",
      "type": "error"
    },
    {
      "inputs": [],
      "name": "LotSizeBiggerThanMintingCap",
      "type": "error"
    },
    {
      "inputs": [],
      "name": "LotSizeDecreaseTooBig",
      "type": "error"
    },
    {
      "inputs": [],
      "name": "LotSizeIncreaseTooBig",
      "type": "error"
    },
    {
      "inputs": [],
      "name": "MustBeAtLeastTwoHours",
      "type": "error"
    },
    {
      "inputs": [],
      "name": "NotAttached",
      "type": "error"
    },
    {
      "inputs": [],
      "name": "OnlyAssetManagerController",
      "type": "error"
    },
    {
      "inputs": [],
      "name": "OnlyImmediateGovernanceOrExecutor",
      "type": "error"
    },
    {
      "inputs": [],
      "name": "PriceNotInitialized",
      "type": "error"
    },
    {
      "inputs": [],
      "name": "TokenAlreadyExists",
      "type": "error"
    },
    {
      "inputs": [],
      "name": "TokenZero",
      "type": "error"
    },
    {
      "inputs": [],
      "name": "TooCloseToPreviousUpdate",
      "type": "error"
    },
    {
      "inputs": [],
      "name": "UnknownToken",
      "type": "error"
    },
    {
      "inputs": [],
      "name": "ValueTooBig",
      "type": "error"
    },
    {
      "inputs": [],
      "name": "ValueTooHigh",
      "type": "error"
    },
    {
      "inputs": [],
      "name": "ValueTooSmall",
      "type": "error"
    },
    {
      "inputs": [],
      "name": "VaultCollateralFactorHigherThanTotal",
      "type": "error"
    },
    {
      "inputs": [],
      "name": "WindowTooSmall",
      "type": "error"
    },
    {
      "anonymous": false,
      "inputs": [
        {
          "indexed": true,
          "internalType": "address",
          "name": "agentVault",
          "type": "address"
        },
        {
          "indexed": false,
          "internalType": "uint256",
          "name": "feeBIPS",
          "type": "uint256"
        },
        {
          "indexed": false,
          "internalType": "uint256",
          "name": "mintingVaultCollateralRatioBIPS",
          "type": "uint256"
        },
        {
          "indexed": false,
          "internalType": "uint256",
          "name": "mintingPoolCollateralRatioBIPS",
          "type": "uint256"
        },
        {
          "indexed": false,
          "internalType": "uint256",
          "name": "freeCollateralLots",
          "type": "uint256"
        }
      ],
      "name": "AgentAvailable",
      "type": "event"
    },
    {
      "anonymous": false,
      "inputs": [
        {
          "indexed": true,
          "internalType": "address",
          "name": "agentVault",
          "type": "address"
        },
        {
          "indexed": false,
          "internalType": "uint8",
          "name": "collateralClass",
          "type": "uint8"
        },
        {
          "indexed": false,
          "internalType": "address",
          "name": "token",
          "type": "address"
        }
      ],
      "name": "AgentCollateralTypeChanged",
      "type": "event"
    },
    {
      "anonymous": false,
      "inputs": [
        {
          "indexed": true,
          "internalType": "address",
          "name": "agentVault",
          "type": "address"
        },
        {
          "indexed": false,
          "internalType": "uint256",
          "name": "destroyAllowedAt",
          "type": "uint256"
        }
      ],
      "name": "AgentDestroyAnnounced",
      "type": "event"
    },
    {
      "anonymous": false,
      "inputs": [
        {
          "indexed": true,
          "internalType": "address",
          "name": "agentVault",
          "type": "address"
        }
      ],
      "name": "AgentDestroyed",
      "type": "event"
    },
    {
      "anonymous": false,
      "inputs": [
        {
          "indexed": true,
          "internalType": "address",
          "name": "agentVault",
          "type": "address"
        },
        {
          "indexed": false,
          "internalType": "string",
          "name": "name",
          "type": "string"
        },
        {
          "indexed": false,
          "internalType": "uint256",
          "name": "value",
          "type": "uint256"
        },
        {
          "indexed": false,
          "internalType": "uint256",
          "name": "validAt",
          "type": "uint256"
        }
      ],
      "name": "AgentSettingChangeAnnounced",
      "type": "event"
    },
    {
      "anonymous": false,
      "inputs": [
        {
          "indexed": true,
          "internalType": "address",
          "name": "agentVault",
          "type": "address"
        },
        {
          "indexed": false,
          "internalType": "string",
          "name": "name",
          "type": "string"
        },
        {
          "indexed": false,
          "internalType": "uint256",
          "name": "value",
          "type": "uint256"
        }
      ],
      "name": "AgentSettingChanged",
      "type": "event"
    },
    {
      "anonymous": false,
      "inputs": [
        {
          "indexed": true,
          "internalType": "address",
          "name": "owner",
          "type": "address"
        },
        {
          "indexed": true,
          "internalType": "address",
          "name": "agentVault",
          "type": "address"
        },
        {
          "components": [
            {
              "internalType": "address",
              "name": "collateralPool",
              "type": "address"
            },
            {
              "internalType": "address",
              "name": "collateralPoolToken",
              "type": "address"
            },
            {
              "internalType": "string",
              "name": "underlyingAddress",
              "type": "string"
            },
            {
              "internalType": "address",
              "name": "vaultCollateralToken",
              "type": "address"
            },
            {
              "internalType": "address",
              "name": "poolWNatToken",
              "type": "address"
            },
            {
              "internalType": "uint256",
              "name": "feeBIPS",
              "type": "uint256"
            },
            {
              "internalType": "uint256",
              "name": "poolFeeShareBIPS",
              "type": "uint256"
            },
            {
              "internalType": "uint256",
              "name": "mintingVaultCollateralRatioBIPS",
              "type": "uint256"
            },
            {
              "internalType": "uint256",
              "name": "mintingPoolCollateralRatioBIPS",
              "type": "uint256"
            },
            {
              "internalType": "uint256",
              "name": "buyFAssetByAgentFactorBIPS",
              "type": "uint256"
            },
            {
              "internalType": "uint256",
              "name": "poolExitCollateralRatioBIPS",
              "type": "uint256"
            },
            {
              "internalType": "uint256",
              "name": "redemptionPoolFeeShareBIPS",
              "type": "uint256"
            }
          ],
          "indexed": false,
          "internalType": "struct IAssetManagerEvents.AgentVaultCreationData",
          "name": "creationData",
          "type": "tuple"
        }
      ],
      "name": "AgentVaultCreated",
      "type": "event"
    },
    {
      "anonymous": false,
      "inputs": [
        {
          "indexed": true,
          "internalType": "address",
          "name": "agentVault",
          "type": "address"
        },
        {
          "indexed": false,
          "internalType": "uint256",
          "name": "exitAllowedAt",
          "type": "uint256"
        }
      ],
      "name": "AvailableAgentExitAnnounced",
      "type": "event"
    },
    {
      "anonymous": false,
      "inputs": [
        {
          "indexed": true,
          "internalType": "address",
          "name": "agentVault",
          "type": "address"
        }
      ],
      "name": "AvailableAgentExited",
      "type": "event"
    },
    {
      "anonymous": false,
      "inputs": [
        {
          "indexed": false,
          "internalType": "uint8",
          "name": "collateralClass",
          "type": "uint8"
        },
        {
          "indexed": false,
          "internalType": "address",
          "name": "collateralToken",
          "type": "address"
        },
        {
          "indexed": false,
          "internalType": "uint256",
          "name": "minCollateralRatioBIPS",
          "type": "uint256"
        },
        {
          "indexed": false,
          "internalType": "uint256",
          "name": "safetyMinCollateralRatioBIPS",
          "type": "uint256"
        }
      ],
      "name": "CollateralRatiosChanged",
      "type": "event"
    },
    {
      "anonymous": false,
      "inputs": [
        {
          "indexed": true,
          "internalType": "address",
          "name": "agentVault",
          "type": "address"
        },
        {
          "indexed": true,
          "internalType": "address",
          "name": "minter",
          "type": "address"
        },
        {
          "indexed": true,
          "internalType": "uint256",
          "name": "collateralReservationId",
          "type": "uint256"
        },
        {
          "indexed": false,
          "internalType": "uint256",
          "name": "reservedAmountUBA",
          "type": "uint256"
        }
      ],
      "name": "CollateralReservationDeleted",
      "type": "event"
    },
    {
      "anonymous": false,
      "inputs": [
        {
          "indexed": true,
          "internalType": "address",
          "name": "agentVault",
          "type": "address"
        },
        {
          "indexed": true,
          "internalType": "address",
          "name": "minter",
          "type": "address"
        },
        {
          "indexed": true,
          "internalType": "uint256",
          "name": "collateralReservationId",
          "type": "uint256"
        },
        {
          "indexed": false,
          "internalType": "uint256",
          "name": "valueUBA",
          "type": "uint256"
        },
        {
          "indexed": false,
          "internalType": "uint256",
          "name": "feeUBA",
          "type": "uint256"
        },
        {
          "indexed": false,
          "internalType": "uint256",
          "name": "firstUnderlyingBlock",
          "type": "uint256"
        },
        {
          "indexed": false,
          "internalType": "uint256",
          "name": "lastUnderlyingBlock",
          "type": "uint256"
        },
        {
          "indexed": false,
          "internalType": "uint256",
          "name": "lastUnderlyingTimestamp",
          "type": "uint256"
        },
        {
          "indexed": false,
          "internalType": "string",
          "name": "paymentAddress",
          "type": "string"
        },
        {
          "indexed": false,
          "internalType": "bytes32",
          "name": "paymentReference",
          "type": "bytes32"
        },
        {
          "indexed": false,
          "internalType": "address",
          "name": "executor",
          "type": "address"
        },
        {
          "indexed": false,
          "internalType": "uint256",
          "name": "executorFeeNatWei",
          "type": "uint256"
        }
      ],
      "name": "CollateralReserved",
      "type": "event"
    },
    {
      "anonymous": false,
      "inputs": [
        {
          "indexed": false,
          "internalType": "uint8",
          "name": "collateralClass",
          "type": "uint8"
        },
        {
          "indexed": false,
          "internalType": "address",
          "name": "token",
          "type": "address"
        },
        {
          "indexed": false,
          "internalType": "uint256",
          "name": "decimals",
          "type": "uint256"
        },
        {
          "indexed": false,
          "internalType": "bool",
          "name": "directPricePair",
          "type": "bool"
        },
        {
          "indexed": false,
          "internalType": "string",
          "name": "assetFtsoSymbol",
          "type": "string"
        },
        {
          "indexed": false,
          "internalType": "string",
          "name": "tokenFtsoSymbol",
          "type": "string"
        },
        {
          "indexed": false,
          "internalType": "uint256",
          "name": "minCollateralRatioBIPS",
          "type": "uint256"
        },
        {
          "indexed": false,
          "internalType": "uint256",
          "name": "safetyMinCollateralRatioBIPS",
          "type": "uint256"
        }
      ],
      "name": "CollateralTypeAdded",
      "type": "event"
    },
    {
      "anonymous": false,
      "inputs": [
        {
          "indexed": true,
          "internalType": "address",
          "name": "agentVault",
          "type": "address"
        },
        {
          "indexed": false,
          "internalType": "bytes32",
          "name": "transactionHash",
          "type": "bytes32"
        },
        {
          "indexed": false,
          "internalType": "uint256",
          "name": "depositedUBA",
          "type": "uint256"
        }
      ],
      "name": "ConfirmedClosedMintingPayment",
      "type": "event"
    },
    {
      "anonymous": false,
      "inputs": [
        {
          "indexed": false,
          "internalType": "string",
          "name": "name",
          "type": "string"
        },
        {
          "indexed": false,
          "internalType": "address",
          "name": "value",
          "type": "address"
        }
      ],
      "name": "ContractChanged",
      "type": "event"
    },
    {
      "anonymous": false,
      "inputs": [
        {
          "indexed": false,
          "internalType": "uint256",
          "name": "underlyingBlockNumber",
          "type": "uint256"
        },
        {
          "indexed": false,
          "internalType": "uint256",
          "name": "underlyingBlockTimestamp",
          "type": "uint256"
        },
        {
          "indexed": false,
          "internalType": "uint256",
          "name": "updatedAt",
          "type": "uint256"
        }
      ],
      "name": "CurrentUnderlyingBlockUpdated",
      "type": "event"
    },
    {
      "anonymous": false,
      "inputs": [
        {
          "indexed": true,
          "internalType": "address",
          "name": "agentVault",
          "type": "address"
        },
        {
          "indexed": false,
          "internalType": "bytes32",
          "name": "transactionHash1",
          "type": "bytes32"
        },
        {
          "indexed": false,
          "internalType": "bytes32",
          "name": "transactionHash2",
          "type": "bytes32"
        }
      ],
      "name": "DuplicatePaymentConfirmed",
      "type": "event"
    },
    {
      "anonymous": false,
      "inputs": [
        {
          "indexed": true,
          "internalType": "address",
          "name": "agentVault",
          "type": "address"
        },
        {
          "indexed": false,
          "internalType": "uint256",
          "name": "dustUBA",
          "type": "uint256"
        }
      ],
      "name": "DustChanged",
      "type": "event"
    },
    {
      "anonymous": false,
      "inputs": [],
      "name": "EmergencyPauseCanceled",
      "type": "event"
    },
    {
      "anonymous": false,
      "inputs": [],
      "name": "EmergencyPauseTotalDurationReset",
      "type": "event"
    },
    {
      "anonymous": false,
      "inputs": [
        {
          "indexed": false,
          "internalType": "enum EmergencyPause.Level",
          "name": "externalLevel",
          "type": "uint8"
        },
        {
          "indexed": false,
          "internalType": "uint256",
          "name": "externalPausedUntil",
          "type": "uint256"
        },
        {
          "indexed": false,
          "internalType": "enum EmergencyPause.Level",
          "name": "governanceLevel",
          "type": "uint8"
        },
        {
          "indexed": false,
          "internalType": "uint256",
          "name": "governancePausedUntil",
          "type": "uint256"
        }
      ],
      "name": "EmergencyPauseTriggered",
      "type": "event"
    },
    {
      "anonymous": false,
      "inputs": [
        {
          "indexed": true,
          "internalType": "address",
          "name": "agentVault",
          "type": "address"
        },
        {
          "indexed": false,
          "internalType": "uint256",
          "name": "timestamp",
          "type": "uint256"
        }
      ],
      "name": "FullLiquidationStarted",
      "type": "event"
    },
    {
      "anonymous": false,
      "inputs": [
        {
          "indexed": true,
          "internalType": "address",
          "name": "agentVault",
          "type": "address"
        },
        {
          "indexed": false,
          "internalType": "bytes32",
          "name": "transactionHash",
          "type": "bytes32"
        }
      ],
      "name": "IllegalPaymentConfirmed",
      "type": "event"
    },
    {
      "anonymous": false,
      "inputs": [
        {
          "indexed": true,
          "internalType": "address",
          "name": "agentVault",
          "type": "address"
        }
      ],
      "name": "LiquidationEnded",
      "type": "event"
    },
    {
      "anonymous": false,
      "inputs": [
        {
          "indexed": true,
          "internalType": "address",
          "name": "agentVault",
          "type": "address"
        },
        {
          "indexed": true,
          "internalType": "address",
          "name": "liquidator",
          "type": "address"
        },
        {
          "indexed": false,
          "internalType": "uint256",
          "name": "valueUBA",
          "type": "uint256"
        },
        {
          "indexed": false,
          "internalType": "uint256",
          "name": "paidVaultCollateralWei",
          "type": "uint256"
        },
        {
          "indexed": false,
          "internalType": "uint256",
          "name": "paidPoolCollateralWei",
          "type": "uint256"
        }
      ],
      "name": "LiquidationPerformed",
      "type": "event"
    },
    {
      "anonymous": false,
      "inputs": [
        {
          "indexed": true,
          "internalType": "address",
          "name": "agentVault",
          "type": "address"
        },
        {
          "indexed": false,
          "internalType": "uint256",
          "name": "timestamp",
          "type": "uint256"
        }
      ],
      "name": "LiquidationStarted",
      "type": "event"
    },
    {
      "anonymous": false,
      "inputs": [
        {
          "indexed": true,
          "internalType": "address",
          "name": "agentVault",
          "type": "address"
        },
        {
          "indexed": true,
          "internalType": "uint256",
          "name": "collateralReservationId",
          "type": "uint256"
        },
        {
          "indexed": false,
          "internalType": "uint256",
          "name": "mintedAmountUBA",
          "type": "uint256"
        },
        {
          "indexed": false,
          "internalType": "uint256",
          "name": "agentFeeUBA",
          "type": "uint256"
        },
        {
          "indexed": false,
          "internalType": "uint256",
          "name": "poolFeeUBA",
          "type": "uint256"
        }
      ],
      "name": "MintingExecuted",
      "type": "event"
    },
    {
      "anonymous": false,
      "inputs": [
        {
          "indexed": false,
          "internalType": "bool",
          "name": "paused",
          "type": "bool"
        }
      ],
      "name": "MintingPaused",
      "type": "event"
    },
    {
      "anonymous": false,
      "inputs": [
        {
          "indexed": true,
          "internalType": "address",
          "name": "agentVault",
          "type": "address"
        },
        {
          "indexed": true,
          "internalType": "address",
          "name": "minter",
          "type": "address"
        },
        {
          "indexed": true,
          "internalType": "uint256",
          "name": "collateralReservationId",
          "type": "uint256"
        },
        {
          "indexed": false,
          "internalType": "uint256",
          "name": "reservedAmountUBA",
          "type": "uint256"
        }
      ],
      "name": "MintingPaymentDefault",
      "type": "event"
    },
    {
      "anonymous": false,
      "inputs": [
        {
          "indexed": true,
          "internalType": "address",
          "name": "agentVault",
          "type": "address"
        },
        {
          "indexed": false,
          "internalType": "uint256",
          "name": "amountWei",
          "type": "uint256"
        },
        {
          "indexed": false,
          "internalType": "uint256",
          "name": "withdrawalAllowedAt",
          "type": "uint256"
        }
      ],
      "name": "PoolTokenRedemptionAnnounced",
      "type": "event"
    },
    {
      "anonymous": false,
      "inputs": [
        {
          "indexed": true,
          "internalType": "address",
          "name": "agentVault",
          "type": "address"
        },
        {
          "indexed": true,
          "internalType": "address",
          "name": "redeemer",
          "type": "address"
        },
        {
          "indexed": false,
          "internalType": "uint256",
          "name": "redemptionAmountUBA",
          "type": "uint256"
        },
        {
          "indexed": false,
          "internalType": "uint256",
          "name": "paidVaultCollateralWei",
          "type": "uint256"
        }
      ],
      "name": "RedeemedInCollateral",
      "type": "event"
    },
    {
      "anonymous": false,
      "inputs": [
        {
          "indexed": true,
          "internalType": "address",
          "name": "agentVault",
          "type": "address"
        },
        {
          "indexed": true,
          "internalType": "address",
          "name": "redeemer",
          "type": "address"
        },
        {
          "indexed": true,
          "internalType": "uint256",
          "name": "requestId",
          "type": "uint256"
        },
        {
          "indexed": false,
          "internalType": "uint256",
          "name": "redemptionAmountUBA",
          "type": "uint256"
        },
        {
          "indexed": false,
          "internalType": "uint256",
          "name": "redeemedVaultCollateralWei",
          "type": "uint256"
        },
        {
          "indexed": false,
          "internalType": "uint256",
          "name": "redeemedPoolCollateralWei",
          "type": "uint256"
        }
      ],
      "name": "RedemptionDefault",
      "type": "event"
    },
    {
      "anonymous": false,
      "inputs": [
        {
          "indexed": true,
          "internalType": "address",
          "name": "agentVault",
          "type": "address"
        },
        {
          "indexed": true,
          "internalType": "address",
          "name": "redeemer",
          "type": "address"
        },
        {
          "indexed": true,
          "internalType": "uint256",
          "name": "requestId",
          "type": "uint256"
        },
        {
          "indexed": false,
          "internalType": "bytes32",
          "name": "transactionHash",
          "type": "bytes32"
        },
        {
          "indexed": false,
          "internalType": "uint256",
          "name": "redemptionAmountUBA",
          "type": "uint256"
        },
        {
          "indexed": false,
          "internalType": "int256",
          "name": "spentUnderlyingUBA",
          "type": "int256"
        }
      ],
      "name": "RedemptionPaymentBlocked",
      "type": "event"
    },
    {
      "anonymous": false,
      "inputs": [
        {
          "indexed": true,
          "internalType": "address",
          "name": "agentVault",
          "type": "address"
        },
        {
          "indexed": true,
          "internalType": "address",
          "name": "redeemer",
          "type": "address"
        },
        {
          "indexed": true,
          "internalType": "uint256",
          "name": "requestId",
          "type": "uint256"
        },
        {
          "indexed": false,
          "internalType": "bytes32",
          "name": "transactionHash",
          "type": "bytes32"
        },
        {
          "indexed": false,
          "internalType": "int256",
          "name": "spentUnderlyingUBA",
          "type": "int256"
        },
        {
          "indexed": false,
          "internalType": "string",
          "name": "failureReason",
          "type": "string"
        }
      ],
      "name": "RedemptionPaymentFailed",
      "type": "event"
    },
    {
      "anonymous": false,
      "inputs": [
        {
          "indexed": true,
          "internalType": "address",
          "name": "agentVault",
          "type": "address"
        },
        {
          "indexed": true,
          "internalType": "address",
          "name": "redeemer",
          "type": "address"
        },
        {
          "indexed": true,
          "internalType": "uint256",
          "name": "requestId",
          "type": "uint256"
        },
        {
          "indexed": false,
          "internalType": "bytes32",
          "name": "transactionHash",
          "type": "bytes32"
        },
        {
          "indexed": false,
          "internalType": "uint256",
          "name": "redemptionAmountUBA",
          "type": "uint256"
        },
        {
          "indexed": false,
          "internalType": "int256",
          "name": "spentUnderlyingUBA",
          "type": "int256"
        }
      ],
      "name": "RedemptionPerformed",
      "type": "event"
    },
    {
      "anonymous": false,
      "inputs": [
        {
          "indexed": true,
          "internalType": "address",
          "name": "agentVault",
          "type": "address"
        },
        {
          "indexed": true,
          "internalType": "uint256",
          "name": "requestId",
          "type": "uint256"
        },
        {
          "indexed": false,
          "internalType": "uint256",
          "name": "poolFeeUBA",
          "type": "uint256"
        }
      ],
      "name": "RedemptionPoolFeeMinted",
      "type": "event"
    },
    {
      "anonymous": false,
      "inputs": [
        {
          "indexed": true,
          "internalType": "address",
          "name": "agentVault",
          "type": "address"
        },
        {
          "indexed": true,
          "internalType": "address",
          "name": "redeemer",
          "type": "address"
        },
        {
          "indexed": true,
          "internalType": "uint256",
          "name": "requestId",
          "type": "uint256"
        },
        {
          "indexed": false,
          "internalType": "uint256",
          "name": "redemptionAmountUBA",
          "type": "uint256"
        }
      ],
      "name": "RedemptionRejected",
      "type": "event"
    },
    {
      "anonymous": false,
      "inputs": [
        {
          "indexed": true,
          "internalType": "address",
          "name": "redeemer",
          "type": "address"
        },
        {
          "indexed": false,
          "internalType": "uint256",
          "name": "remainingLots",
          "type": "uint256"
        }
      ],
      "name": "RedemptionRequestIncomplete",
      "type": "event"
    },
    {
      "anonymous": false,
      "inputs": [
        {
          "indexed": true,
          "internalType": "address",
          "name": "agentVault",
          "type": "address"
        },
        {
          "indexed": true,
          "internalType": "address",
          "name": "redeemer",
          "type": "address"
        },
        {
          "indexed": true,
          "internalType": "uint256",
          "name": "requestId",
          "type": "uint256"
        },
        {
          "indexed": false,
          "internalType": "string",
          "name": "paymentAddress",
          "type": "string"
        },
        {
          "indexed": false,
          "internalType": "uint256",
          "name": "valueUBA",
          "type": "uint256"
        },
        {
          "indexed": false,
          "internalType": "uint256",
          "name": "feeUBA",
          "type": "uint256"
        },
        {
          "indexed": false,
          "internalType": "uint256",
          "name": "firstUnderlyingBlock",
          "type": "uint256"
        },
        {
          "indexed": false,
          "internalType": "uint256",
          "name": "lastUnderlyingBlock",
          "type": "uint256"
        },
        {
          "indexed": false,
          "internalType": "uint256",
          "name": "lastUnderlyingTimestamp",
          "type": "uint256"
        },
        {
          "indexed": false,
          "internalType": "bytes32",
          "name": "paymentReference",
          "type": "bytes32"
        },
        {
          "indexed": false,
          "internalType": "address",
          "name": "executor",
          "type": "address"
        },
        {
          "indexed": false,
          "internalType": "uint256",
          "name": "executorFeeNatWei",
          "type": "uint256"
        }
      ],
      "name": "RedemptionRequested",
      "type": "event"
    },
    {
      "anonymous": false,
      "inputs": [
        {
          "indexed": true,
          "internalType": "address",
          "name": "agentVault",
          "type": "address"
        },
        {
          "indexed": true,
          "internalType": "uint256",
          "name": "redemptionTicketId",
          "type": "uint256"
        },
        {
          "indexed": false,
          "internalType": "uint256",
          "name": "ticketValueUBA",
          "type": "uint256"
        }
      ],
      "name": "RedemptionTicketCreated",
      "type": "event"
    },
    {
      "anonymous": false,
      "inputs": [
        {
          "indexed": true,
          "internalType": "address",
          "name": "agentVault",
          "type": "address"
        },
        {
          "indexed": true,
          "internalType": "uint256",
          "name": "redemptionTicketId",
          "type": "uint256"
        }
      ],
      "name": "RedemptionTicketDeleted",
      "type": "event"
    },
    {
      "anonymous": false,
      "inputs": [
        {
          "indexed": true,
          "internalType": "address",
          "name": "agentVault",
          "type": "address"
        },
        {
          "indexed": true,
          "internalType": "uint256",
          "name": "redemptionTicketId",
          "type": "uint256"
        },
        {
          "indexed": false,
          "internalType": "uint256",
          "name": "ticketValueUBA",
          "type": "uint256"
        }
      ],
      "name": "RedemptionTicketUpdated",
      "type": "event"
    },
    {
      "anonymous": false,
      "inputs": [
        {
          "indexed": false,
          "internalType": "uint256",
          "name": "firstTicketId",
          "type": "uint256"
        },
        {
          "indexed": false,
          "internalType": "uint256",
          "name": "nextTicketId",
          "type": "uint256"
        }
      ],
      "name": "RedemptionTicketsConsolidated",
      "type": "event"
    },
    {
      "anonymous": false,
      "inputs": [
        {
          "indexed": true,
          "internalType": "address",
          "name": "agentVault",
          "type": "address"
        },
        {
          "indexed": false,
          "internalType": "uint256",
          "name": "valueUBA",
          "type": "uint256"
        }
      ],
      "name": "SelfClose",
      "type": "event"
    },
    {
      "anonymous": false,
      "inputs": [
        {
          "indexed": true,
          "internalType": "address",
          "name": "agentVault",
          "type": "address"
        },
        {
          "indexed": false,
          "internalType": "bool",
          "name": "mintFromFreeUnderlying",
          "type": "bool"
        },
        {
          "indexed": false,
          "internalType": "uint256",
          "name": "mintedAmountUBA",
          "type": "uint256"
        },
        {
          "indexed": false,
          "internalType": "uint256",
          "name": "depositedAmountUBA",
          "type": "uint256"
        },
        {
          "indexed": false,
          "internalType": "uint256",
          "name": "poolFeeUBA",
          "type": "uint256"
        }
      ],
      "name": "SelfMint",
      "type": "event"
    },
    {
      "anonymous": false,
      "inputs": [
        {
          "indexed": false,
          "internalType": "string",
          "name": "name",
          "type": "string"
        },
        {
          "indexed": false,
          "internalType": "uint256[]",
          "name": "value",
          "type": "uint256[]"
        }
      ],
      "name": "SettingArrayChanged",
      "type": "event"
    },
    {
      "anonymous": false,
      "inputs": [
        {
          "indexed": false,
          "internalType": "string",
          "name": "name",
          "type": "string"
        },
        {
          "indexed": false,
          "internalType": "uint256",
          "name": "value",
          "type": "uint256"
        }
      ],
      "name": "SettingChanged",
      "type": "event"
    },
    {
      "anonymous": false,
      "inputs": [
        {
          "indexed": true,
          "internalType": "address",
          "name": "agentVault",
          "type": "address"
        },
        {
          "indexed": false,
          "internalType": "int256",
          "name": "underlyingBalanceUBA",
          "type": "int256"
        }
      ],
      "name": "UnderlyingBalanceChanged",
      "type": "event"
    },
    {
      "anonymous": false,
      "inputs": [
        {
          "indexed": true,
          "internalType": "address",
          "name": "agentVault",
          "type": "address"
        },
        {
          "indexed": false,
          "internalType": "int256",
          "name": "balance",
          "type": "int256"
        },
        {
          "indexed": false,
          "internalType": "uint256",
          "name": "requiredBalance",
          "type": "uint256"
        }
      ],
      "name": "UnderlyingBalanceTooLow",
      "type": "event"
    },
    {
      "anonymous": false,
      "inputs": [
        {
          "indexed": true,
          "internalType": "address",
          "name": "agentVault",
          "type": "address"
        },
        {
          "indexed": false,
          "internalType": "bytes32",
          "name": "transactionHash",
          "type": "bytes32"
        },
        {
          "indexed": false,
          "internalType": "uint256",
          "name": "depositedUBA",
          "type": "uint256"
        }
      ],
      "name": "UnderlyingBalanceToppedUp",
      "type": "event"
    },
    {
      "anonymous": false,
      "inputs": [
        {
          "indexed": true,
          "internalType": "address",
          "name": "agentVault",
          "type": "address"
        },
        {
          "indexed": true,
          "internalType": "uint256",
          "name": "announcementId",
          "type": "uint256"
        },
        {
          "indexed": false,
          "internalType": "bytes32",
          "name": "paymentReference",
          "type": "bytes32"
        }
      ],
      "name": "UnderlyingWithdrawalAnnounced",
      "type": "event"
    },
    {
      "anonymous": false,
      "inputs": [
        {
          "indexed": true,
          "internalType": "address",
          "name": "agentVault",
          "type": "address"
        },
        {
          "indexed": true,
          "internalType": "uint256",
          "name": "announcementId",
          "type": "uint256"
        }
      ],
      "name": "UnderlyingWithdrawalCancelled",
      "type": "event"
    },
    {
      "anonymous": false,
      "inputs": [
        {
          "indexed": true,
          "internalType": "address",
          "name": "agentVault",
          "type": "address"
        },
        {
          "indexed": true,
          "internalType": "uint256",
          "name": "announcementId",
          "type": "uint256"
        },
        {
          "indexed": false,
          "internalType": "int256",
          "name": "spentUBA",
          "type": "int256"
        },
        {
          "indexed": false,
          "internalType": "bytes32",
          "name": "transactionHash",
          "type": "bytes32"
        }
      ],
      "name": "UnderlyingWithdrawalConfirmed",
      "type": "event"
    },
    {
      "anonymous": false,
      "inputs": [
        {
          "indexed": true,
          "internalType": "address",
          "name": "agentVault",
          "type": "address"
        },
        {
          "indexed": false,
          "internalType": "uint256",
          "name": "amountWei",
          "type": "uint256"
        },
        {
          "indexed": false,
          "internalType": "uint256",
          "name": "withdrawalAllowedAt",
          "type": "uint256"
        }
      ],
      "name": "VaultCollateralWithdrawalAnnounced",
      "type": "event"
    },
    {
      "inputs": [
        {
          "internalType": "uint256",
          "name": "_value",
          "type": "uint256"
        }
      ],
      "name": "setAgentExitAvailableTimelockSeconds",
      "outputs": [],
      "stateMutability": "nonpayable",
      "type": "function"
    },
    {
      "inputs": [
        {
          "internalType": "uint256",
          "name": "_value",
          "type": "uint256"
        }
      ],
      "name": "setAgentFeeChangeTimelockSeconds",
      "outputs": [],
      "stateMutability": "nonpayable",
      "type": "function"
    },
    {
      "inputs": [
        {
          "internalType": "uint256",
          "name": "_value",
          "type": "uint256"
        }
      ],
      "name": "setAgentMintingCRChangeTimelockSeconds",
      "outputs": [],
      "stateMutability": "nonpayable",
      "type": "function"
    },
    {
      "inputs": [
        {
          "internalType": "address",
          "name": "_value",
          "type": "address"
        }
      ],
      "name": "setAgentOwnerRegistry",
      "outputs": [],
      "stateMutability": "nonpayable",
      "type": "function"
    },
    {
      "inputs": [
        {
          "internalType": "uint256",
          "name": "_value",
          "type": "uint256"
        }
      ],
      "name": "setAgentTimelockedOperationWindowSeconds",
      "outputs": [],
      "stateMutability": "nonpayable",
      "type": "function"
    },
    {
      "inputs": [
        {
          "internalType": "address",
          "name": "_value",
          "type": "address"
        }
      ],
      "name": "setAgentVaultFactory",
      "outputs": [],
      "stateMutability": "nonpayable",
      "type": "function"
    },
    {
      "inputs": [
        {
          "internalType": "uint256",
          "name": "_value",
          "type": "uint256"
        }
      ],
      "name": "setAttestationWindowSeconds",
      "outputs": [],
      "stateMutability": "nonpayable",
      "type": "function"
    },
    {
      "inputs": [
        {
          "internalType": "uint256",
          "name": "_value",
          "type": "uint256"
        }
      ],
      "name": "setAverageBlockTimeMS",
      "outputs": [],
      "stateMutability": "nonpayable",
      "type": "function"
    },
    {
      "inputs": [
        {
          "internalType": "address",
          "name": "_value",
          "type": "address"
        }
      ],
      "name": "setCleanerContract",
      "outputs": [],
      "stateMutability": "nonpayable",
      "type": "function"
    },
    {
      "inputs": [
        {
          "internalType": "address",
          "name": "_value",
          "type": "address"
        }
      ],
      "name": "setCleanupBlockNumberManager",
      "outputs": [],
      "stateMutability": "nonpayable",
      "type": "function"
    },
    {
      "inputs": [
        {
          "internalType": "address",
          "name": "_value",
          "type": "address"
        }
      ],
      "name": "setCollateralPoolFactory",
      "outputs": [],
      "stateMutability": "nonpayable",
      "type": "function"
    },
    {
      "inputs": [
        {
          "internalType": "address",
          "name": "_value",
          "type": "address"
        }
      ],
      "name": "setCollateralPoolTokenFactory",
      "outputs": [],
      "stateMutability": "nonpayable",
      "type": "function"
    },
    {
      "inputs": [
        {
          "internalType": "uint256",
          "name": "_value",
          "type": "uint256"
        }
      ],
      "name": "setCollateralPoolTokenTimelockSeconds",
      "outputs": [],
      "stateMutability": "nonpayable",
      "type": "function"
    },
    {
      "inputs": [
        {
          "internalType": "uint256",
          "name": "_value",
          "type": "uint256"
        }
      ],
      "name": "setCollateralReservationFeeBips",
      "outputs": [],
      "stateMutability": "nonpayable",
      "type": "function"
    },
    {
      "inputs": [
        {
          "internalType": "uint256",
          "name": "_value",
          "type": "uint256"
        }
      ],
      "name": "setConfirmationByOthersAfterSeconds",
      "outputs": [],
      "stateMutability": "nonpayable",
      "type": "function"
    },
    {
      "inputs": [
        {
          "internalType": "uint256",
          "name": "_value",
          "type": "uint256"
        }
      ],
      "name": "setConfirmationByOthersRewardUSD5",
      "outputs": [],
      "stateMutability": "nonpayable",
      "type": "function"
    },
    {
      "inputs": [
        {
          "internalType": "uint256",
          "name": "_value",
          "type": "uint256"
        }
      ],
      "name": "setEmergencyPauseDurationResetAfterSeconds",
      "outputs": [],
      "stateMutability": "nonpayable",
      "type": "function"
    },
    {
      "inputs": [
        {
          "internalType": "address",
          "name": "_value",
          "type": "address"
        }
      ],
      "name": "setFdcVerification",
      "outputs": [],
      "stateMutability": "nonpayable",
      "type": "function"
    },
    {
      "inputs": [
        {
          "internalType": "uint256[]",
          "name": "_liquidationFactors",
          "type": "uint256[]"
        },
        {
          "internalType": "uint256[]",
          "name": "_vaultCollateralFactors",
          "type": "uint256[]"
        }
      ],
      "name": "setLiquidationPaymentFactors",
      "outputs": [],
      "stateMutability": "nonpayable",
      "type": "function"
    },
    {
      "inputs": [
        {
          "internalType": "uint256",
          "name": "_stepSeconds",
          "type": "uint256"
        }
      ],
      "name": "setLiquidationStepSeconds",
      "outputs": [],
      "stateMutability": "nonpayable",
      "type": "function"
    },
    {
      "inputs": [
        {
          "internalType": "uint256",
          "name": "_value",
          "type": "uint256"
        }
      ],
      "name": "setLotSizeAmg",
      "outputs": [],
      "stateMutability": "nonpayable",
      "type": "function"
    },
    {
      "inputs": [
        {
          "internalType": "uint256",
          "name": "_value",
          "type": "uint256"
        }
      ],
      "name": "setMaxEmergencyPauseDurationSeconds",
      "outputs": [],
      "stateMutability": "nonpayable",
      "type": "function"
    },
    {
      "inputs": [
        {
          "internalType": "uint256",
          "name": "_value",
          "type": "uint256"
        }
      ],
      "name": "setMaxRedeemedTickets",
      "outputs": [],
      "stateMutability": "nonpayable",
      "type": "function"
    },
    {
      "inputs": [
        {
          "internalType": "uint256",
          "name": "_value",
          "type": "uint256"
        }
      ],
      "name": "setMaxTrustedPriceAgeSeconds",
      "outputs": [],
      "stateMutability": "nonpayable",
      "type": "function"
    },
    {
      "inputs": [
        {
          "internalType": "uint256",
          "name": "_value",
          "type": "uint256"
        }
      ],
      "name": "setMinUpdateRepeatTimeSeconds",
      "outputs": [],
      "stateMutability": "nonpayable",
      "type": "function"
    },
    {
      "inputs": [
        {
          "internalType": "uint256",
          "name": "_value",
          "type": "uint256"
        }
      ],
      "name": "setMintingCapAmg",
      "outputs": [],
      "stateMutability": "nonpayable",
      "type": "function"
    },
    {
      "inputs": [
        {
          "internalType": "uint256",
          "name": "_value",
          "type": "uint256"
        }
      ],
      "name": "setMintingPoolHoldingsRequiredBIPS",
      "outputs": [],
      "stateMutability": "nonpayable",
      "type": "function"
    },
    {
      "inputs": [
        {
          "internalType": "uint256",
          "name": "_rewardUSD5",
          "type": "uint256"
        },
        {
          "internalType": "uint256",
          "name": "_rewardBIPS",
          "type": "uint256"
        }
      ],
      "name": "setPaymentChallengeReward",
      "outputs": [],
      "stateMutability": "nonpayable",
      "type": "function"
    },
    {
      "inputs": [
        {
          "internalType": "uint256",
          "name": "_value",
          "type": "uint256"
        }
      ],
      "name": "setPoolExitCRChangeTimelockSeconds",
      "outputs": [],
      "stateMutability": "nonpayable",
      "type": "function"
    },
    {
      "inputs": [
        {
          "internalType": "address",
          "name": "_value",
          "type": "address"
        }
      ],
      "name": "setPriceReader",
      "outputs": [],
      "stateMutability": "nonpayable",
      "type": "function"
    },
    {
      "inputs": [
        {
          "internalType": "uint256",
          "name": "_value",
          "type": "uint256"
        }
      ],
      "name": "setRedemptionDefaultFactorVaultCollateralBIPS",
      "outputs": [],
      "stateMutability": "nonpayable",
      "type": "function"
    },
    {
      "inputs": [
        {
          "internalType": "uint256",
          "name": "_value",
          "type": "uint256"
        }
      ],
      "name": "setRedemptionFeeBips",
      "outputs": [],
      "stateMutability": "nonpayable",
      "type": "function"
    },
    {
      "inputs": [
        {
          "internalType": "uint256",
          "name": "_underlyingBlocks",
          "type": "uint256"
        },
        {
          "internalType": "uint256",
          "name": "_underlyingSeconds",
          "type": "uint256"
        }
      ],
      "name": "setTimeForPayment",
      "outputs": [],
      "stateMutability": "nonpayable",
      "type": "function"
    },
    {
      "inputs": [
        {
          "internalType": "uint256",
          "name": "_value",
          "type": "uint256"
        }
      ],
      "name": "setVaultCollateralBuyForFlareFactorBIPS",
      "outputs": [],
      "stateMutability": "nonpayable",
      "type": "function"
    },
    {
      "inputs": [
        {
          "internalType": "uint256",
          "name": "_value",
          "type": "uint256"
        }
      ],
      "name": "setWithdrawalOrDestroyWaitMinSeconds",
      "outputs": [],
      "stateMutability": "nonpayable",
      "type": "function"
    },
    {
      "inputs": [
        {
          "internalType": "address",
          "name": "_controller",
          "type": "address"
        },
        {
          "internalType": "contract IWNat",
          "name": "_wNat",
          "type": "address"
        }
      ],
      "name": "updateSystemContracts",
      "outputs": [],
      "stateMutability": "nonpayable",
      "type": "function"
    },
    {
      "inputs": [
        {
          "internalType": "address",
          "name": "_value",
          "type": "address"
        },
        {
          "internalType": "bytes",
          "name": "callData",
          "type": "bytes"
        }
      ],
      "name": "upgradeFAssetImplementation",
      "outputs": [],
      "stateMutability": "nonpayable",
      "type": "function"
    }
  ],
  "bytecode": "0x6080604052348015600f57600080fd5b506144328061001f6000396000f3fe608060405234801561001057600080fd5b50600436106102275760003560e01c80638d94510a11610130578063d0743395116100b8578063e443147f1161007c578063e443147f1461048e578063e68f3fbf146104a1578063ec516d24146104b4578063ec7430a4146104c7578063f6a494af146104da57600080fd5b8063d07433951461042f578063d57d25c514610442578063dd64bd0414610455578063df06ea9614610468578063dfc594171461047b57600080fd5b8063af5f2b98116100ff578063af5f2b98146103d0578063b2e6a2b5146103e3578063be069719146103f6578063cda4c54114610409578063cfcb991d1461041c57600080fd5b80638d94510a146103845780639db27f55146103975780639e193242146103aa578063ad74c72d146103bd57600080fd5b80636a598609116101b35780636df310d6116101825780636df310d6146103255780637800a11f146103385780637b6fa7621461034b5780637f4fcaa91461035e578063812e7d2e1461037157600080fd5b80636a598609146102d95780636ad6fb4f146102ec5780636b38c643146102ff5780636dd3d5891461031257600080fd5b8063568ae58e116101fa578063568ae58e1461027a5780635ac5c11e1461028d5780636075765d146102a057806368f224ba146102b357806369b89e7e146102c657600080fd5b806313d6a5e21461022c5780632779aaaa146102415780632c06abf01461025457806347814c0614610267575b600080fd5b61023f61023a366004613c2e565b6104ed565b005b61023f61024f366004613c4b565b6105a2565b61023f610262366004613c4b565b61066e565b61023f610275366004613c4b565b610771565b61023f610288366004613c4b565b6108a0565b61023f61029b366004613c4b565b6109ef565b61023f6102ae366004613c64565b610b4b565b61023f6102c1366004613c9d565b610c7c565b61023f6102d4366004613c9d565b610eb4565b61023f6102e7366004613d05565b611031565b61023f6102fa366004613c4b565b611182565b61023f61030d366004613c4b565b611245565b61023f610320366004613c2e565b611316565b61023f610333366004613c4b565b6113c7565b61023f610346366004613c4b565b611524565b61023f610359366004613c4b565b611694565b61023f61036c366004613c2e565b611795565b61023f61037f366004613c4b565b61186c565b61023f610392366004613c4b565b611940565b61023f6103a5366004613c4b565b611a91565b61023f6103b8366004613c4b565b611be1565b61023f6103cb366004613c4b565b611d49565b61023f6103de366004613c4b565b611e2e565b61023f6103f1366004613c4b565b611fa8565b61023f610404366004613c2e565b612073565b61023f610417366004613c2e565b61211a565b61023f61042a366004613c4b565b6121c8565b61023f61043d366004613c4b565b6122e8565b61023f610450366004613c4b565b612422565b61023f610463366004613c4b565b61255d565b61023f610476366004613c2e565b612670565b61023f610489366004613c4b565b612729565b61023f61049c366004613c2e565b6127f2565b61023f6104af366004613c4b565b61289d565b61023f6104c2366004613e32565b61298e565b61023f6104d5366004613c4b565b612ac7565b61023f6104e8366004613c2e565b612bbe565b6104f5612c87565b6104fd612cc1565b6000610507612cd8565b90506001600160a01b0382166105305760405163e6c4247b60e01b815260040160405180910390fd5b6002810180546001600160a01b0319166001600160a01b03841690811790915560408051818152601191810191909152706167656e745661756c74466163746f727960781b606082015260208101919091526000805160206143bd833981519152906080015b60405180910390a15050565b6105aa612c87565b6105b2612cc1565b60006105bc612cd8565b9050620151808210156105e2576040516388e95d8560e01b815260040160405180910390fd5b6105eb82612cfc565b6011820180546001600160401b0392909216600160401b0267ffffffffffffffff60401b19909216919091179055604080518181526018918101919091527f6174746573746174696f6e57696e646f775365636f6e647300000000000000006060820152602081018390526000805160206143dd83398151915290608001610596565b610676612c87565b61067e612cc1565b6000610688612cd8565b60138101549091506106ac90600490600160401b90046001600160401b0316613eaf565b6106b99062015180613ec6565b8211156106d9576040516335cec84f60e01b815260040160405180910390fd5b6106e282612cfc565b6013820180546001600160401b0392909216600160401b0267ffffffffffffffff60401b19909216919091179055604080518181526023918101919091527f6167656e744d696e74696e6743524368616e676554696d656c6f636b5365636f6060820152626e647360e81b6080820152602081018390526000805160206143dd8339815191529060a001610596565b610779612c87565b610781612cc1565b600061078b612cd8565b9050600082116107ae57604051631e1d0ab560e01b815260040160405180910390fd5b600f8101546107ca90600290600160801b900461ffff16613eaf565b8211156107ea576040516313d2afed60e31b815260040160405180910390fd5b600f81015461080690600490600160801b900461ffff16613eef565b61ffff1682101561082a576040516348e8562160e11b815260040160405180910390fd5b61083382612d6d565b600f8201805461ffff92909216600160801b0261ffff60801b1990921691909117905560408051818152601291810191909152716d617852656465656d65645469636b65747360701b6060820152602081018390526000805160206143dd83398151915290608001610596565b6108a8612c87565b6108b0612cc1565b60006108ba612cd8565b9050600082116108dd57604051631e1d0ab560e01b815260040160405180910390fd5b60108101546108fe90600290600160c01b90046001600160401b0316613eaf565b82111561091e5760405163acce294560e01b815260040160405180910390fd5b601081015461093f90600290600160c01b90046001600160401b0316613f13565b6001600160401b0316821015610968576040516369cdc9c360e01b815260040160405180910390fd5b61097182612cfc565b6010820180546001600160401b0392909216600160c01b026001600160c01b03909216919091179055604080518181526019918101919091527f6d61785472757374656450726963654167655365636f6e6473000000000000006060820152602081018390526000805160206143dd83398151915290608001610596565b6109f7612c87565b6109ff612cc1565b6000610a09612cd8565b905060008211610a2c57604051631e1d0ab560e01b815260040160405180910390fd5b6127108210610a4e5760405163fb1fb2d360e01b815260040160405180910390fd5b600c810154610a6a90600490600160401b900461ffff16613eaf565b821115610a8a5760405163acce294560e01b815260040160405180910390fd5b600c810154610aa690600490600160401b900461ffff16613eef565b61ffff16821015610aca576040516369cdc9c360e01b815260040160405180910390fd5b610ad382612d6d565b600c8201805461ffff92909216600160401b0261ffff60401b1990921691909117905560408051818152601c918101919091527f636f6c6c61746572616c5265736572766174696f6e46656542495053000000006060820152602081018390526000805160206143dd83398151915290608001610596565b610b53612c87565b6000610b5d612cd8565b80549091506001600160a01b03848116911614610bde5780546001600160a01b0384166001600160a01b031990911681178255604080518181526016818301527530b9b9b2ba26b0b730b3b2b921b7b73a3937b63632b960511b60608201526020810192909252516000805160206143bd8339815191529181900360800190a15b6000610be8612dd0565b9050826001600160a01b0316816001600160a01b031614610c76576000610c10600183612e3d565b600060608201526001600160a01b03851660208201529050610c3181612e66565b60408051818152600481830152631dd3985d60e21b60608201526001600160a01b038616602082015290516000805160206143bd8339815191529181900360800190a1505b50505050565b610c84612c87565b610c8c612cc1565b6000610c96612cd8565b6010810154909150610cb3906004906001600160801b0316613eaf565b610cc09062989680613ec6565b831115610ce0576040516313d2afed60e31b815260040160405180910390fd5b6010810154610cfa906004906001600160801b0316613f41565b6001600160801b0316831015610d23576040516348e8562160e11b815260040160405180910390fd5b600f810154610d3f90600490600160901b900461ffff16613eaf565b610d4a906064613ec6565b821115610d6a576040516313d2afed60e31b815260040160405180910390fd5b600f810154610d8690600490600160901b900461ffff16613eef565b61ffff16821015610daa576040516348e8562160e11b815260040160405180910390fd5b610db383612e80565b6010820180546001600160801b0319166001600160801b0392909216919091179055610dde82612d6d565b600f8201805461ffff60901b1916600160901b61ffff939093169290920291909117905560408051818152601a818301527f7061796d656e744368616c6c656e67655265776172645553443500000000000060608201526020810185905290516000805160206143dd8339815191529181900360800190a160408051818152601a918101919091527f7061796d656e744368616c6c656e6765526577617264424950530000000000006060820152602081018390526000805160206143dd833981519152906080015b60405180910390a1505050565b610ebc612c87565b610ec4612cc1565b6000610ece612cd8565b905060008211610ef157604051631e1d0ab560e01b815260040160405180910390fd5b60008311610f1257604051631e1d0ab560e01b815260040160405180910390fd5b600c810154610f2a908490849063ffffffff16612ee9565b610f3383612cfc565b81600d0160136101000a8154816001600160401b0302191690836001600160401b03160217905550610f6482612cfc565b600e8201805467ffffffffffffffff19166001600160401b039290921691909117905560408051818152601a818301527f756e6465726c79696e67426c6f636b73466f725061796d656e7400000000000060608201526020810185905290516000805160206143dd833981519152916080908290030190a160408051818152601b918101919091527f756e6465726c79696e675365636f6e6473466f725061796d656e7400000000006060820152602081018390526000805160206143dd83398151915290608001610ea7565b611039612c87565b611041612cc1565b600061104b612f4c565b90506001600160a01b0383166110745760405163e6c4247b60e01b815260040160405180910390fd5b8151156110e05760405163278f794360e11b81526001600160a01b03821690634f1ef286906110a99086908690600401613fb5565b600060405180830381600087803b1580156110c357600080fd5b505af11580156110d7573d6000803e3d6000fd5b5050505061113c565b604051631b2ce7f360e11b81526001600160a01b038481166004830152821690633659cfe690602401600060405180830381600087803b15801561112357600080fd5b505af1158015611137573d6000803e3d6000fd5b505050505b604080518181526006918101919091526519905cdcd95d60d21b60608201526001600160a01b03841660208201526000805160206143bd83398151915290608001610ea7565b61118a612c87565b611192612cc1565b600061119c612cd8565b9050603c8210156111c057604051639a721da360e01b815260040160405180910390fd5b6111c982612f6a565b60148201805463ffffffff191663ffffffff92909216919091179055604080518181526022918101919091527f636f6c6c61746572616c506f6f6c546f6b656e54696d656c6f636b5365636f6e606082015261647360f01b6080820152602081018390526000805160206143dd8339815191529060a001610596565b61124d612c87565b611255612cc1565b600061125f612cd8565b905061271082101561128457604051639a721da360e01b815260040160405180910390fd5b61128d82612f6a565b60128201805463ffffffff92909216600160801b0263ffffffff60801b19909216919091179055604080518181526024918101919091527f7661756c74436f6c6c61746572616c427579466f72466c617265466163746f726060820152634249505360e01b6080820152602081018390526000805160206143dd8339815191529060a001610596565b61131e612c87565b611326612cc1565b6000611330612cd8565b90506001600160a01b0382166113595760405163e6c4247b60e01b815260040160405180910390fd5b6003810180546001600160a01b0319166001600160a01b0384169081179091556040805181815260159181019190915274636f6c6c61746572616c506f6f6c466163746f727960581b606082015260208101919091526000805160206143bd83398151915290608001610596565b6113cf612c87565b6113d7612cc1565b60006113e1612cd8565b90506000821161140457604051631e1d0ab560e01b815260040160405180910390fd5b601781015461142590600490600160401b90046001600160401b0316613eaf565b61143090603c613ec6565b821115611450576040516313d2afed60e31b815260040160405180910390fd5b601781015461147190600490600160401b90046001600160401b0316613f13565b6001600160401b031682101561149a576040516348e8562160e11b815260040160405180910390fd5b6114a382612cfc565b6017820180546001600160401b0392909216600160401b0267ffffffffffffffff60401b199092169190911790556040805181815260209181018290527f6d6178456d657267656e637950617573654475726174696f6e5365636f6e647360608201529081018390526000805160206143dd83398151915290608001610596565b61152c612c87565b611534612cc1565b600061153e612cd8565b90506000821161156157604051631e1d0ab560e01b815260040160405180910390fd5b601781015461158290600490600160801b90046001600160401b0316613eaf565b61158e90610e10613ec6565b8211156115ae576040516313d2afed60e31b815260040160405180910390fd5b60178101546115cf90600490600160801b90046001600160401b0316613f13565b6001600160401b03168210156115f8576040516348e8562160e11b815260040160405180910390fd5b61160182612cfc565b6017820180546001600160401b0392909216600160801b0267ffffffffffffffff60801b19909216919091179055604080518181526027918101919091527f656d657267656e637950617573654475726174696f6e526573657441667465726060820152665365636f6e647360c81b6080820152602081018390526000805160206143dd8339815191529060a001610596565b61169c612c87565b6116a4612cc1565b60006116ae612cd8565b60128101549091506116d290600490600160a01b90046001600160401b0316613eaf565b6116df9062093a80613ec6565b8211156116ff576040516335cec84f60e01b815260040160405180910390fd5b61170882612cfc565b6012820180546001600160401b0392909216600160a01b0267ffffffffffffffff60a01b19909216919091179055604080518181526021918101919091527f6167656e7445786974417661696c61626c6554696d656c6f636b5365636f6e646060820152607360f81b6080820152602081018390526000805160206143dd8339815191529060a001610596565b61179d612c87565b6117a5612cc1565b60006117af612f4c565b604051637f4fcaa960e01b81526001600160a01b03848116600483015291925090821690637f4fcaa990602401600060405180830381600087803b1580156117f657600080fd5b505af115801561180a573d6000803e3d6000fd5b5050604080518181526019918101919091527f636c65616e7570426c6f636b4e756d6265724d616e616765720000000000000060608201526001600160a01b03851660208201526000805160206143bd83398151915292506080019050610596565b611874612c87565b61187c612cc1565b6000611886612cd8565b9050610e108210156118ab57604051639a721da360e01b815260040160405180910390fd5b6118b482612cfc565b6013820180546001600160401b0392909216600160c01b026001600160c01b03909216919091179055604080518181526025918101919091527f6167656e7454696d656c6f636b65644f7065726174696f6e57696e646f775365606082015264636f6e647360d81b6080820152602081018390526000805160206143dd8339815191529060a001610596565b611948612c87565b611950612cc1565b600061195a612cd8565b90506000821161197d57604051631e1d0ab560e01b815260040160405180910390fd5b601481015461199f9060029064010000000090046001600160401b0316613eaf565b8211156119bf576040516313d2afed60e31b815260040160405180910390fd5b60148101546119e19060029064010000000090046001600160401b0316613f13565b6001600160401b0316821015611a0a576040516348e8562160e11b815260040160405180910390fd5b611a1382612cfc565b6014820180546001600160401b0392909216640100000000026bffffffffffffffff000000001990921691909117905560408051818152601691810191909152756c69717569646174696f6e537465705365636f6e647360501b6060820152602081018390526000805160206143dd83398151915290608001610596565b611a99612c87565b611aa1612cc1565b6000611aab612cd8565b905060008211611ace57604051631e1d0ab560e01b815260040160405180910390fd5b6127108210611af05760405163fb1fb2d360e01b815260040160405180910390fd5b600e810154611b0c90600490600160401b900461ffff16613eaf565b821115611b2c5760405163acce294560e01b815260040160405180910390fd5b600e810154611b4890600490600160401b900461ffff16613eef565b61ffff16821015611b6c576040516369cdc9c360e01b815260040160405180910390fd5b611b7582612d6d565b600e8201805461ffff92909216600160401b0261ffff60401b199092169190911790556040805181815260119181019190915270726564656d7074696f6e4665654249505360781b6060820152602081018390526000805160206143dd83398151915290608001610596565b611be9612c87565b611bf1612cc1565b6000611bfb612cd8565b90506127108211611c1f5760405163db2ff64760e01b815260040160405180910390fd5b600e810154611c429063ffffffff600160501b909104811690612ee090612fcf16565b611c4e906103e8613ec6565b821115611c6e5760405163acce294560e01b815260040160405180910390fd5b600e810154611c919063ffffffff600160501b90910481169061208d90612fcf16565b821015611cb1576040516369cdc9c360e01b815260040160405180910390fd5b611cba82612f6a565b600e8201805463ffffffff92909216600160501b0263ffffffff60501b1990921691909117905560408051818152602a918101919091527f726564656d7074696f6e44656661756c74466163746f725661756c74436f6c6c60608201526961746572616c4249505360b01b6080820152602081018390526000805160206143dd8339815191529060a001610596565b611d51612c87565b611d59612cc1565b6000611d63612cd8565b6013810154909150611d80906004906001600160401b0316613eaf565b611d8d9062015180613ec6565b821115611dad576040516335cec84f60e01b815260040160405180910390fd5b611db682612cfc565b60138201805467ffffffffffffffff19166001600160401b039290921691909117905560408051818152601d918101919091527f6167656e744665654368616e676554696d656c6f636b5365636f6e64730000006060820152602081018390526000805160206143dd83398151915290608001610596565b611e36612c87565b611e3e612cc1565b6000611e48612cd8565b905060008211611e6b57604051631e1d0ab560e01b815260040160405180910390fd5b600d810154611e8590600a906001600160401b0316613eaf565b821115611ea55760405163c1eb125d60e01b815260040160405180910390fd5b600d810154611ebf90600a906001600160401b0316613f13565b6001600160401b0316821015611ee8576040516362b1e00560e11b815260040160405180910390fd5b600d810154600160581b90046001600160401b03161580611f1d5750600d810154600160581b90046001600160401b03168211155b611f3a576040516339897cef60e01b815260040160405180910390fd5b611f4382612cfc565b600d8201805467ffffffffffffffff19166001600160401b039290921691909117905560408051818152600a91810191909152696c6f7453697a65414d4760b01b6060820152602081018390526000805160206143dd83398151915290608001610596565b611fb0612c87565b611fb8612cc1565b6000611fc2612cd8565b9050811580611fde5750600d8101546001600160401b03168210155b611ffb57604051639a721da360e01b815260040160405180910390fd5b61200482612cfc565b81600d01600b6101000a8154816001600160401b0302191690836001600160401b031602179055506000805160206143dd8339815191528260405161059691906040808252600d908201526c6d696e74696e67436170414d4760981b6060820152602081019190915260800190565b61207b612c87565b612083612cc1565b600061208d612cd8565b90506001600160a01b0382166120b65760405163e6c4247b60e01b815260040160405180910390fd5b600a810180546001600160a01b0319166001600160a01b03841690811790915560408051818152600b918101919091526a383934b1b2a932b0b232b960a91b606082015260208101919091526000805160206143bd83398151915290608001610596565b612122612c87565b61212a612cc1565b6000612134612cd8565b90506001600160a01b03821661215d5760405163e6c4247b60e01b815260040160405180910390fd5b6007810180546001600160a01b0319166001600160a01b03841690811790915560408051818152601291810191909152716167656e744f776e6572526567697374727960701b606082015260208101919091526000805160206143bd83398151915290608001610596565b6121d0612c87565b6121d8612cc1565b60006121e2612cd8565b90506000821161220557604051631e1d0ab560e01b815260040160405180910390fd5b600c81015461221c9060029063ffffffff16613eaf565b82111561223c576040516313d2afed60e31b815260040160405180910390fd5b600c8101546122539060029063ffffffff16613fe1565b63ffffffff16821015612279576040516348e8562160e11b815260040160405180910390fd5b61228282612f6a565b600c8201805463ffffffff191663ffffffff92909216919091179055604080518181526012918101919091527161766572616765426c6f636b54696d654d5360701b6060820152602081018390526000805160206143dd83398151915290608001610596565b6122f0612c87565b6122f8612cc1565b6000612302612cd8565b90506000821161232557604051631e1d0ab560e01b815260040160405180910390fd5b600f81015461233f906004906001600160801b0316613eaf565b82111561235f5760405163acce294560e01b815260040160405180910390fd5b600f810154612379906004906001600160801b0316613f41565b6001600160801b03168210156123a2576040516369cdc9c360e01b815260040160405180910390fd5b6123ab82612e80565b600f820180546001600160801b0319166001600160801b039290921691909117905560408051818152601e918101919091527f636f6e6669726d6174696f6e42794f74686572735265776172645553443500006060820152602081018390526000805160206143dd83398151915290608001610596565b61242a612c87565b612432612cc1565b600061243c612cd8565b90506000821161245f57604051631e1d0ab560e01b815260040160405180910390fd5b62093a80821115612483576040516335cec84f60e01b815260040160405180910390fd5b60118101546124a490600490600160801b90046001600160401b0316613eaf565b6124b19062015180613ec6565b8211156124d1576040516313d2afed60e31b815260040160405180910390fd5b6124da82612cfc565b6011820180546001600160401b0392909216600160801b0267ffffffffffffffff60801b1990921691909117905560408051818152601a918101919091527f6d696e55706461746552657065617454696d655365636f6e64730000000000006060820152602081018390526000805160206143dd83398151915290608001610596565b612565612c87565b61256d612cc1565b6000612577612cd8565b90506000821161259a57604051631e1d0ab560e01b815260040160405180910390fd5b60108101546125bb90600160801b90046001600160401b0316610258614009565b6001600160401b03168211156125e4576040516313d2afed60e31b815260040160405180910390fd5b6125ed82612cfc565b6010820180546001600160401b0392909216600160801b0267ffffffffffffffff60801b19909216919091179055604080518181526018918101919091527f7769746864726177616c576169744d696e5365636f6e647300000000000000006060820152602081018390526000805160206143dd83398151915290608001610596565b612678612c87565b612680612cc1565b600061268a612cd8565b90506001600160a01b0382166126b35760405163e6c4247b60e01b815260040160405180910390fd5b6004810180546001600160a01b0319166001600160a01b03841690811790915560408051818152601a918101919091527f636f6c6c61746572616c506f6f6c546f6b656e466163746f7279000000000000606082015260208101919091526000805160206143bd83398151915290608001610596565b612731612c87565b612739612cc1565b6000612743612cd8565b9050611c2082101561276857604051630c85bd4760e11b815260040160405180910390fd5b61277182612cfc565b600e820180546001600160401b0392909216600160901b0267ffffffffffffffff60901b199092169190911790556040805181815260209181018290527f636f6e6669726d6174696f6e42794f746865727341667465725365636f6e647360608201529081018390526000805160206143dd83398151915290608001610596565b6127fa612c87565b612802612cc1565b600061280c612cd8565b90506001600160a01b0382166128355760405163e6c4247b60e01b815260040160405180910390fd5b6008810180546001600160a01b0319166001600160a01b03841690811790915560408051818152600f918101919091526e333231ab32b934b334b1b0ba34b7b760891b606082015260208101919091526000805160206143bd83398151915290608001610596565b6128a5612c87565b6128ad612cc1565b60006128b7612cd8565b600c810154909150612710906128dd90600490640100000000900463ffffffff16613eaf565b6128e79190613ec6565b821115612907576040516335cec84f60e01b815260040160405180910390fd5b61291082612f6a565b600c8201805463ffffffff929092166401000000000267ffffffff000000001990921691909117905560408051818152601f918101919091527f6d696e74696e67506f6f6c486f6c64696e6773526571756972656442495053006060820152602081018390526000805160206143dd83398151915290608001610596565b612996612c87565b61299e612cc1565b60006129a8612cd8565b90506129b48383612fe5565b6129c2601582016000613b8e565b6129d0601682016000613b8e565b60005b8351811015612a605781601501612a028583815181106129f5576129f5614028565b6020026020010151612f6a565b81546001810183556000928352602090922063ffffffff90911691015582516016830190612a3c908590849081106129f5576129f5614028565b8154600181810184556000938452602090932063ffffffff909216910155016129d3565b507ff8df5a8f8fc0ea5cc0d8aff70643ac14b7353b936a843e23cb08ff282ba7473983604051612a90919061407a565b60405180910390a17ff8df5a8f8fc0ea5cc0d8aff70643ac14b7353b936a843e23cb08ff282ba7473982604051610ea791906140c1565b612acf612c87565b612ad7612cc1565b6000612ae1612cd8565b6013810154909150612b0590600490600160801b90046001600160401b0316613eaf565b612b129062015180613ec6565b821115612b32576040516335cec84f60e01b815260040160405180910390fd5b612b3b82612cfc565b6013820180546001600160401b0392909216600160801b0267ffffffffffffffff60801b1990921691909117905560408051818152601f918101919091527f706f6f6c4578697443524368616e676554696d656c6f636b5365636f6e6473006060820152602081018390526000805160206143dd83398151915290608001610596565b612bc6612c87565b612bce612cc1565b6000612bd8612f4c565b60405163f6a494af60e01b81526001600160a01b0384811660048301529192509082169063f6a494af90602401600060405180830381600087803b158015612c1f57600080fd5b505af1158015612c33573d6000803e3d6000fd5b505060408051818152600f918101919091526e18db19585b995c90dbdb9d1c9858dd608a1b60608201526001600160a01b03851660208201526000805160206143bd83398151915292506080019050610596565b6000612c91612cd8565b80549091506001600160a01b03163314612cbe57604051634ae14edf60e11b815260040160405180910390fd5b50565b612cd66001600160e01b031960003516613131565b565b7f4f24f5c433db0962dac0d2c8b84197a6e6c7cc4e5d9ebe1916a1b6193da2f33a90565b60006001600160401b03821115612d695760405162461bcd60e51b815260206004820152602660248201527f53616665436173743a2076616c756520646f65736e27742066697420696e203660448201526534206269747360d01b60648201526084015b60405180910390fd5b5090565b600061ffff821115612d695760405162461bcd60e51b815260206004820152602660248201527f53616665436173743a2076616c756520646f65736e27742066697420696e203160448201526536206269747360d01b6064820152608401612d60565b7fec7e8c1c441439dd40959777f4c577ea0cd42fcc1dbe59d2bd0f5d9c55df8dc55460008051602061439d8339815191528054600092829161ffff909116908110612e1d57612e1d614028565b60009182526020909120600490910201546001600160a01b031692915050565b612e45613bac565b6000612e5184846131c9565b9050612e5c8161326d565b9150505b92915050565b6000612e7182613439565b9050612e7c81613848565b5050565b60006001600160801b03821115612d695760405162461bcd60e51b815260206004820152602760248201527f53616665436173743a2076616c756520646f65736e27742066697420696e20316044820152663238206269747360c81b6064820152608401612d60565b62015180821115612f0d576040516318dc18b360e01b815260040160405180910390fd5b620151806103e8612f1e8386613eaf565b612f289190614115565b1115612f47576040516318dc18b360e01b815260040160405180910390fd5b505050565b600080612f57612cd8565b600101546001600160a01b031692915050565b600063ffffffff821115612d695760405162461bcd60e51b815260206004820152602660248201527f53616665436173743a2076616c756520646f65736e27742066697420696e203360448201526532206269747360d01b6064820152608401612d60565b6000612fde83836127106138d3565b9392505050565b8051825114613007576040516322cb666160e01b815260040160405180910390fd5b60018251101561302a5760405163e7f61b9f60e01b815260040160405180910390fd5b60005b8251811015612f475761271083828151811061304b5761304b614028565b602002602001015111613071576040516319cb132f60e31b815260040160405180910390fd5b82818151811061308357613083614028565b602002602001015182828151811061309d5761309d614028565b602002602001015111156130c4576040516343734f6f60e01b815260040160405180910390fd5b80158061310c5750826130d8600183614129565b815181106130e8576130e8614028565b602002602001015183828151811061310257613102614028565b6020026020010151115b6131295760405163103f13e760e11b815260040160405180910390fd5b60010161302d565b7fc6aafbe0f74bbe68eec7559401d7d311a092b5c4d8feb0452323e4ba73d8d8d1600061315c612cd8565b6000848152602084905260409020549091508015806131995750601182015461319590600160801b90046001600160401b031682613ec6565b4210155b6131b657604051630e216b9960e31b815260040160405180910390fd5b5050600091825260205260409020429055565b600060008051602061439d833981519152817fec7e8c1c441439dd40959777f4c577ea0cd42fcc1dbe59d2bd0f5d9c55df8db78161320787876139bc565b81526020019081526020016000205490506000811161323957604051638698bf3760e01b815260040160405180910390fd5b81613245600183614129565b8154811061325557613255614028565b90600052602060002090600402019250505092915050565b613275613bac565b60408051610120810190915282548190600160a01b900460ff1660028111156132a0576132a061413c565b815283546001600160a01b038116602083015260ff600160a81b8204811660408401526001600160401b03600160b01b8304166060840152600160f01b909104161515608082015260018401805460a0909201916132fd90614152565b80601f016020809104026020016040519081016040528092919081815260200182805461332990614152565b80156133765780601f1061334b57610100808354040283529160200191613376565b820191906000526020600020905b81548152906001019060200180831161335957829003601f168201915b5050505050815260200183600201805461338f90614152565b80601f01602080910402602001604051908101604052809291908181526020018280546133bb90614152565b80156134085780601f106133dd57610100808354040283529160200191613408565b820191906000526020600020905b8154815290600101906020018083116133eb57829003601f168201915b505050918352505060039093015463ffffffff8082166020860152600160401b909104166040909301929092525090565b602081015160009060008051602061439d833981519152906001600160a01b03166134775760405163ab42242d60e01b815260040160405180910390fd5b600061348b846000015185602001516139bc565b6000818152600184016020526040902054909150156134bd5760405163c991cbb160e01b815260040160405180910390fd5b6060840151156134e0576040516308d5b2cb60e31b815260040160405180910390fd5b60008460e0015161271010801561350057508461010001518560e0015111155b90508061352057604051631654ba8b60e11b815260040160405180910390fd5b60006135318660a0015160006139e6565b505090508060000361355657604051636fdc2d5b60e01b815260040160405180910390fd5b85608001516135975760006135708760c0015160006139e6565b505090508060000361359557604051636fdc2d5b60e01b815260040160405180910390fd5b505b83546040805161014081019091526020808901516001600160a01b03168252885187929182019060028111156135cf576135cf61413c565b81526020016135e18a60400151613b2d565b60ff16815260200160006001600160401b031681526020018960800151151581526020018960a0015181526020018960c0015181526020016136268a60e00151612f6a565b63ffffffff168152602001600063ffffffff16815260200161364c8a6101000151612f6a565b63ffffffff16905281546001810183556000928352602092839020825160049092020180546001600160a01b031981166001600160a01b03909316928317825593830151929390929183916001600160a81b03191617600160a01b8360028111156136b9576136b961413c565b021790555060408201518154606084015160808501511515600160f01b0260ff60f01b196001600160401b03909216600160b01b0267ffffffffffffffff60b01b1960ff909516600160a81b029490941668ffffffffffffffffff60a81b1990931692909217929092179190911617815560a0820151600182019061373e90826141da565b5060c0820151600282019061375390826141da565b5060e0820151600390910180546101008401516101209094015163ffffffff908116600160401b026bffffffff0000000000000000199582166401000000000267ffffffffffffffff19909316919094161717929092161790556137b8816001613ec6565b600085815260018701602052604090205586517fc4531f4cebd6a3b1974b381202c861ca7d302755db0d983686b77c75be0484559060028111156137fe576137fe61413c565b886020015189604001518a608001518b60a001518c60c001518d60e001518e6101000151604051613836989796959493929190614298565b60405180910390a19695505050505050565b60008051602061439d833981519152805460009082908490811061386e5761386e614028565b60009182526020909120600490910201905060018154600160a01b900460ff16600281111561389f5761389f61413c565b146138ac576138ac6142fc565b6138b583612d6d565b600f92909201805461ffff191661ffff909316929092179091555050565b600080806000198587098587029250828110838203039150508060000361390d5783828161390357613903613ed9565b0492505050612fde565b8084116139545760405162461bcd60e51b81526020600482015260156024820152744d6174683a206d756c446976206f766572666c6f7760581b6044820152606401612d60565b600084868809600260036001881981018916988990049182028318808302840302808302840302808302840302808302840302808302840302918202909203026000889003889004909101858311909403939093029303949094049190911702949350505050565b6000816001600160a01b031660a08460028111156139dc576139dc61413c565b901b179392505050565b6000806000806139f4612cd8565b600a8101549091506001600160a01b03168515613ab057600080600080846001600160a01b031663e731a1bc8c6040518263ffffffff1660e01b8152600401613a3d9190614312565b608060405180830381865afa158015613a5a573d6000803e3d6000fd5b505050506040513d601f19601f82011682018060405250810190613a7e9190614325565b60ff16935093509350935060008111613a9b576000806000613a9f565b8383835b985098509850505050505050613b26565b60405163524f388960e01b81526001600160a01b0382169063524f388990613adc908a90600401614312565b606060405180830381865afa158015613af9573d6000803e3d6000fd5b505050506040513d601f19601f82011682018060405250810190613b1d919061436e565b94509450945050505b9250925092565b600060ff821115612d695760405162461bcd60e51b815260206004820152602560248201527f53616665436173743a2076616c756520646f65736e27742066697420696e2038604482015264206269747360d81b6064820152608401612d60565b5080546000825590600052602060002090810190612cbe9190613c04565b604080516101208101909152806000815260200160006001600160a01b031681526020016000815260200160008152602001600015158152602001606081526020016060815260200160008152602001600081525090565b5b80821115612d695760008155600101613c05565b6001600160a01b0381168114612cbe57600080fd5b600060208284031215613c4057600080fd5b8135612fde81613c19565b600060208284031215613c5d57600080fd5b5035919050565b60008060408385031215613c7757600080fd5b8235613c8281613c19565b91506020830135613c9281613c19565b809150509250929050565b60008060408385031215613cb057600080fd5b50508035926020909101359150565b634e487b7160e01b600052604160045260246000fd5b604051601f8201601f191681016001600160401b0381118282101715613cfd57613cfd613cbf565b604052919050565b60008060408385031215613d1857600080fd5b8235613d2381613c19565b915060208301356001600160401b03811115613d3e57600080fd5b8301601f81018513613d4f57600080fd5b80356001600160401b03811115613d6857613d68613cbf565b613d7b601f8201601f1916602001613cd5565b818152866020838501011115613d9057600080fd5b816020840160208301376000602083830101528093505050509250929050565b600082601f830112613dc157600080fd5b81356001600160401b03811115613dda57613dda613cbf565b8060051b613dea60208201613cd5565b91825260208185018101929081019086841115613e0657600080fd5b6020860192505b83831015613e28578235825260209283019290910190613e0d565b9695505050505050565b60008060408385031215613e4557600080fd5b82356001600160401b03811115613e5b57600080fd5b613e6785828601613db0565b92505060208301356001600160401b03811115613e8357600080fd5b613e8f85828601613db0565b9150509250929050565b634e487b7160e01b600052601160045260246000fd5b8082028115828204841417612e6057612e60613e99565b80820180821115612e6057612e60613e99565b634e487b7160e01b600052601260045260246000fd5b600061ffff831680613f0357613f03613ed9565b8061ffff84160491505092915050565b60006001600160401b03831680613f2c57613f2c613ed9565b806001600160401b0384160491505092915050565b60006001600160801b03831680613f5a57613f5a613ed9565b806001600160801b0384160491505092915050565b6000815180845260005b81811015613f9557602081850181015186830182015201613f79565b506000602082860101526020601f19601f83011685010191505092915050565b6001600160a01b0383168152604060208201819052600090613fd990830184613f6f565b949350505050565b600063ffffffff831680613ff757613ff7613ed9565b8063ffffffff84160491505092915050565b6001600160401b038181168382160190811115612e6057612e60613e99565b634e487b7160e01b600052603260045260246000fd5b600081518084526020840193506020830160005b82811015614070578151865260209586019590910190600101614052565b5093949350505050565b60408152601f60408201527f6c69717569646174696f6e436f6c6c61746572616c466163746f7242495053006060820152608060208201526000612fde608083018461403e565b60408152602460408201527f6c69717569646174696f6e466163746f725661756c74436f6c6c61746572616c6060820152634249505360e01b608082015260a060208201526000612fde60a083018461403e565b60008261412457614124613ed9565b500490565b81810381811115612e6057612e60613e99565b634e487b7160e01b600052602160045260246000fd5b600181811c9082168061416657607f821691505b60208210810361418657634e487b7160e01b600052602260045260246000fd5b50919050565b601f821115612f4757806000526020600020601f840160051c810160208510156141b35750805b601f840160051c820191505b818110156141d357600081556001016141bf565b5050505050565b81516001600160401b038111156141f3576141f3613cbf565b614207816142018454614152565b8461418c565b6020601f82116001811461423b57600083156142235750848201515b600019600385901b1c1916600184901b1784556141d3565b600084815260208120601f198516915b8281101561426b578785015182556020948501946001909201910161424b565b50848210156142895786840151600019600387901b60f8161c191681555b50505050600190811b01905550565b60ff8916815260018060a01b03881660208201528660408201528515156060820152610100608082015260006142d2610100830187613f6f565b82810360a08401526142e48187613f6f565b60c0840195909552505060e001529695505050505050565b634e487b7160e01b600052600160045260246000fd5b602081526000612fde6020830184613f6f565b6000806000806080858703121561433b57600080fd5b8451602086015160408701516060880151929650909450925060ff8116811461436357600080fd5b939692955090935050565b60008060006060848603121561438357600080fd5b505081516020830151604090930151909492935091905056feec7e8c1c441439dd40959777f4c577ea0cd42fcc1dbe59d2bd0f5d9c55df8db6cb274d507e7a9978f5a8c15929fd58c472b8addc1a9bba454b0c0a49a05c9152ac1fb27759c1e6f9e4a24d4f8c320be6091becb03cea5a95398fa220fca4ac0ea264697066735822122004f38859d225096501659d440515b63e2b5f121317628f68d730faa51a76fa8d64736f6c634300081b0033",
  "linkReferences": {},
  "deployedLinkReferences": {}
}