{
  "_format": "hh-sol-artifact-1",
  "contractName": "UnderlyingBalanceFacet",
  "sourceName": "contracts/assetManager/facets/UnderlyingBalanceFacet.sol",
  "abi": [
    {
      "inputs": [],
      "name": "AnnouncedUnderlyingWithdrawalActive",
      "type": "error"
    },
    {
      "inputs": [],
      "name": "DivisionByZero",
      "type": "error"
    },
    {
      "inputs": [],
      "name": "EmergencyPauseActive",
      "type": "error"
    },
    {
      "inputs": [],
      "name": "InvalidAgentVaultAddress",
      "type": "error"
    },
    {
      "inputs": [],
      "name": "InvalidChain",
      "type": "error"
    },
    {
      "inputs": [],
      "name": "LegalPaymentNotProven",
      "type": "error"
    },
    {
      "inputs": [],
      "name": "NoActiveAnnouncement",
      "type": "error"
    },
    {
      "inputs": [],
      "name": "NotATopupPayment",
      "type": "error"
    },
    {
      "inputs": [],
      "name": "NotAttached",
      "type": "error"
    },
    {
      "inputs": [],
      "name": "NotUnderlyingAddress",
      "type": "error"
    },
    {
      "inputs": [],
      "name": "OnlyAgentVaultOwner",
      "type": "error"
    },
    {
      "inputs": [],
      "name": "OnlyAssetManagerController",
      "type": "error"
    },
    {
      "inputs": [],
      "name": "OnlyImmediateGovernanceOrExecutor",
      "type": "error"
    },
    {
      "inputs": [],
      "name": "PaymentAlreadyConfirmed",
      "type": "error"
    },
    {
      "inputs": [],
      "name": "PaymentFailed",
      "type": "error"
    },
    {
      "inputs": [],
      "name": "ReentrancyGuardReentrantCall",
      "type": "error"
    },
    {
      "inputs": [],
      "name": "TopupBeforeAgentCreated",
      "type": "error"
    },
    {
      "inputs": [],
      "name": "WrongAnnouncedPaymentReference",
      "type": "error"
    },
    {
      "inputs": [],
      "name": "WrongAnnouncedPaymentSource",
      "type": "error"
    },
    {
      "anonymous": false,
      "inputs": [
        {
          "indexed": true,
          "internalType": "address",
          "name": "agentVault",
          "type": "address"
        },
        {
          "indexed": false,
          "internalType": "uint256",
          "name": "timestamp",
          "type": "uint256"
        }
      ],
      "name": "FullLiquidationStarted",
      "type": "event"
    },
    {
      "anonymous": false,
      "inputs": [
        {
          "indexed": true,
          "internalType": "address",
          "name": "agentVault",
          "type": "address"
        },
        {
          "indexed": false,
          "internalType": "int256",
          "name": "underlyingBalanceUBA",
          "type": "int256"
        }
      ],
      "name": "UnderlyingBalanceChanged",
      "type": "event"
    },
    {
      "anonymous": false,
      "inputs": [
        {
          "indexed": true,
          "internalType": "address",
          "name": "agentVault",
          "type": "address"
        },
        {
          "indexed": false,
          "internalType": "int256",
          "name": "balance",
          "type": "int256"
        },
        {
          "indexed": false,
          "internalType": "uint256",
          "name": "requiredBalance",
          "type": "uint256"
        }
      ],
      "name": "UnderlyingBalanceTooLow",
      "type": "event"
    },
    {
      "anonymous": false,
      "inputs": [
        {
          "indexed": true,
          "internalType": "address",
          "name": "agentVault",
          "type": "address"
        },
        {
          "indexed": false,
          "internalType": "bytes32",
          "name": "transactionHash",
          "type": "bytes32"
        },
        {
          "indexed": false,
          "internalType": "uint256",
          "name": "depositedUBA",
          "type": "uint256"
        }
      ],
      "name": "UnderlyingBalanceToppedUp",
      "type": "event"
    },
    {
      "anonymous": false,
      "inputs": [
        {
          "indexed": true,
          "internalType": "address",
          "name": "agentVault",
          "type": "address"
        },
        {
          "indexed": true,
          "internalType": "uint256",
          "name": "announcementId",
          "type": "uint256"
        },
        {
          "indexed": false,
          "internalType": "bytes32",
          "name": "paymentReference",
          "type": "bytes32"
        }
      ],
      "name": "UnderlyingWithdrawalAnnounced",
      "type": "event"
    },
    {
      "anonymous": false,
      "inputs": [
        {
          "indexed": true,
          "internalType": "address",
          "name": "agentVault",
          "type": "address"
        },
        {
          "indexed": true,
          "internalType": "uint256",
          "name": "announcementId",
          "type": "uint256"
        }
      ],
      "name": "UnderlyingWithdrawalCancelled",
      "type": "event"
    },
    {
      "anonymous": false,
      "inputs": [
        {
          "indexed": true,
          "internalType": "address",
          "name": "agentVault",
          "type": "address"
        },
        {
          "indexed": true,
          "internalType": "uint256",
          "name": "announcementId",
          "type": "uint256"
        },
        {
          "indexed": false,
          "internalType": "int256",
          "name": "spentUBA",
          "type": "int256"
        },
        {
          "indexed": false,
          "internalType": "bytes32",
          "name": "transactionHash",
          "type": "bytes32"
        }
      ],
      "name": "UnderlyingWithdrawalConfirmed",
      "type": "event"
    },
    {
      "inputs": [
        {
          "internalType": "address",
          "name": "_agentVault",
          "type": "address"
        }
      ],
      "name": "announceUnderlyingWithdrawal",
      "outputs": [],
      "stateMutability": "nonpayable",
      "type": "function"
    },
    {
      "inputs": [
        {
          "internalType": "address",
          "name": "_agentVault",
          "type": "address"
        }
      ],
      "name": "cancelUnderlyingWithdrawal",
      "outputs": [],
      "stateMutability": "nonpayable",
      "type": "function"
    },
    {
      "inputs": [
        {
          "components": [
            {
              "internalType": "bytes32[]",
              "name": "merkleProof",
              "type": "bytes32[]"
            },
            {
              "components": [
                {
                  "internalType": "bytes32",
                  "name": "attestationType",
                  "type": "bytes32"
                },
                {
                  "internalType": "bytes32",
                  "name": "sourceId",
                  "type": "bytes32"
                },
                {
                  "internalType": "uint64",
                  "name": "votingRound",
                  "type": "uint64"
                },
                {
                  "internalType": "uint64",
                  "name": "lowestUsedTimestamp",
                  "type": "uint64"
                },
                {
                  "components": [
                    {
                      "internalType": "bytes32",
                      "name": "transactionId",
                      "type": "bytes32"
                    },
                    {
                      "internalType": "uint256",
                      "name": "inUtxo",
                      "type": "uint256"
                    },
                    {
                      "internalType": "uint256",
                      "name": "utxo",
                      "type": "uint256"
                    }
                  ],
                  "internalType": "struct IPayment.RequestBody",
                  "name": "requestBody",
                  "type": "tuple"
                },
                {
                  "components": [
                    {
                      "internalType": "uint64",
                      "name": "blockNumber",
                      "type": "uint64"
                    },
                    {
                      "internalType": "uint64",
                      "name": "blockTimestamp",
                      "type": "uint64"
                    },
                    {
                      "internalType": "bytes32",
                      "name": "sourceAddressHash",
                      "type": "bytes32"
                    },
                    {
                      "internalType": "bytes32",
                      "name": "sourceAddressesRoot",
                      "type": "bytes32"
                    },
                    {
                      "internalType": "bytes32",
                      "name": "receivingAddressHash",
                      "type": "bytes32"
                    },
                    {
                      "internalType": "bytes32",
                      "name": "intendedReceivingAddressHash",
                      "type": "bytes32"
                    },
                    {
                      "internalType": "int256",
                      "name": "spentAmount",
                      "type": "int256"
                    },
                    {
                      "internalType": "int256",
                      "name": "intendedSpentAmount",
                      "type": "int256"
                    },
                    {
                      "internalType": "int256",
                      "name": "receivedAmount",
                      "type": "int256"
                    },
                    {
                      "internalType": "int256",
                      "name": "intendedReceivedAmount",
                      "type": "int256"
                    },
                    {
                      "internalType": "bytes32",
                      "name": "standardPaymentReference",
                      "type": "bytes32"
                    },
                    {
                      "internalType": "bool",
                      "name": "oneToOne",
                      "type": "bool"
                    },
                    {
                      "internalType": "uint8",
                      "name": "status",
                      "type": "uint8"
                    }
                  ],
                  "internalType": "struct IPayment.ResponseBody",
                  "name": "responseBody",
                  "type": "tuple"
                }
              ],
              "internalType": "struct IPayment.Response",
              "name": "data",
              "type": "tuple"
            }
          ],
          "internalType": "struct IPayment.Proof",
          "name": "_payment",
          "type": "tuple"
        },
        {
          "internalType": "address",
          "name": "_agentVault",
          "type": "address"
        }
      ],
      "name": "confirmTopupPayment",
      "outputs": [],
      "stateMutability": "nonpayable",
      "type": "function"
    },
    {
      "inputs": [
        {
          "components": [
            {
              "internalType": "bytes32[]",
              "name": "merkleProof",
              "type": "bytes32[]"
            },
            {
              "components": [
                {
                  "internalType": "bytes32",
                  "name": "attestationType",
                  "type": "bytes32"
                },
                {
                  "internalType": "bytes32",
                  "name": "sourceId",
                  "type": "bytes32"
                },
                {
                  "internalType": "uint64",
                  "name": "votingRound",
                  "type": "uint64"
                },
                {
                  "internalType": "uint64",
                  "name": "lowestUsedTimestamp",
                  "type": "uint64"
                },
                {
                  "components": [
                    {
                      "internalType": "bytes32",
                      "name": "transactionId",
                      "type": "bytes32"
                    },
                    {
                      "internalType": "uint256",
                      "name": "inUtxo",
                      "type": "uint256"
                    },
                    {
                      "internalType": "uint256",
                      "name": "utxo",
                      "type": "uint256"
                    }
                  ],
                  "internalType": "struct IPayment.RequestBody",
                  "name": "requestBody",
                  "type": "tuple"
                },
                {
                  "components": [
                    {
                      "internalType": "uint64",
                      "name": "blockNumber",
                      "type": "uint64"
                    },
                    {
                      "internalType": "uint64",
                      "name": "blockTimestamp",
                      "type": "uint64"
                    },
                    {
                      "internalType": "bytes32",
                      "name": "sourceAddressHash",
                      "type": "bytes32"
                    },
                    {
                      "internalType": "bytes32",
                      "name": "sourceAddressesRoot",
                      "type": "bytes32"
                    },
                    {
                      "internalType": "bytes32",
                      "name": "receivingAddressHash",
                      "type": "bytes32"
                    },
                    {
                      "internalType": "bytes32",
                      "name": "intendedReceivingAddressHash",
                      "type": "bytes32"
                    },
                    {
                      "internalType": "int256",
                      "name": "spentAmount",
                      "type": "int256"
                    },
                    {
                      "internalType": "int256",
                      "name": "intendedSpentAmount",
                      "type": "int256"
                    },
                    {
                      "internalType": "int256",
                      "name": "receivedAmount",
                      "type": "int256"
                    },
                    {
                      "internalType": "int256",
                      "name": "intendedReceivedAmount",
                      "type": "int256"
                    },
                    {
                      "internalType": "bytes32",
                      "name": "standardPaymentReference",
                      "type": "bytes32"
                    },
                    {
                      "internalType": "bool",
                      "name": "oneToOne",
                      "type": "bool"
                    },
                    {
                      "internalType": "uint8",
                      "name": "status",
                      "type": "uint8"
                    }
                  ],
                  "internalType": "struct IPayment.ResponseBody",
                  "name": "responseBody",
                  "type": "tuple"
                }
              ],
              "internalType": "struct IPayment.Response",
              "name": "data",
              "type": "tuple"
            }
          ],
          "internalType": "struct IPayment.Proof",
          "name": "_payment",
          "type": "tuple"
        },
        {
          "internalType": "address",
          "name": "_agentVault",
          "type": "address"
        }
      ],
      "name": "confirmUnderlyingWithdrawal",
      "outputs": [],
      "stateMutability": "nonpayable",
      "type": "function"
    }
  ],
  "bytecode": "0x6080604052348015600f57600080fd5b50611fcc8061001f6000396000f3fe608060405234801561001057600080fd5b506004361061004c5760003560e01c80630529cf5a1461005157806387b4fac614610066578063a07ea7af14610079578063c0674b461461008c575b600080fd5b61006461005f36600461183b565b61009f565b005b61006461007436600461183b565b61027a565b610064610087366004611892565b6103e9565b61006461009a366004611892565b610498565b6100a9600261061e565b6100b161066d565b600080516020611f778339815191526100c9836106b7565b60006100d4836107c7565b905060006100e28233610850565b6006830154909150600160c01b90046001600160401b0316600081900361011c576040516337af441960e01b815260040160405180910390fd5b6000610130826001600160401b03166108a5565b9050610240870135811461015757604051631c3a097560e11b815260040160405180910390fd5b60038401546101408801351461018057604051633325d03960e01b815260040160405180910390fd5b82806101905750610190846108cf565b6101ad5760405163f6e2f99b60e01b815260040160405180910390fd5b6101ba600b86018861095d565b6006840180546001600160c01b03169055826101da576101da8433610971565b6101f1846101ec6101c08a01356118c5565b6109ce565b604080516101c0890135815260a089013560208201526001600160401b038416916001600160a01b038916917f87c03bd81173da373bb690f5c425a339854b84c89a0ad36544feed7d28b27980910160405180910390a3505050505061027660017f0cd2207518cd3e5213e2c6dbe63d55b60aa893c194a427b7d7f1600408fd5bde55565b5050565b610284600161061e565b8061028e81610b1c565b6000610299836107c7565b9050600080516020611f778339815191526102b385610b4e565b6003820154610180860135146102dc57604051630937ccc560e31b815260040160405180910390fd5b67464250526641001160c01b6001600160a01b038516176102408601351461031757604051631c3ded8f60e21b815260040160405180910390fd5b600a8201546001600160401b0316610337610120870161010088016118f8565b6001600160401b0316101561035f5760405163bff8d3ad60e01b815260040160405180910390fd5b61036c600b820186610b8c565b600061037c610200870135610b9a565b90506103998361038b83610bf5565b6001600160801b0316610c1e565b6040805160a08801358152602081018390526001600160a01b038716917f4a204fd1cc26ecb86a5e85bb72577205ecc986e7376f08cd30e4b75a9636e177910160405180910390a2505050505050565b6103f3600261061e565b806103fd81610b1c565b6000610408836107c7565b6006810154909150600160c01b90046001600160401b03166000819003610442576040516337af441960e01b815260040160405180910390fd5b6006820180546001600160c01b031690556040516001600160401b038216906001600160a01b038616907f692a613b737313ed162e5603636ae3d26398b985825ee995ca8ff0f86b3942c690600090a350505050565b6104a2600161061e565b806104ac81610b1c565b600080516020611f7783398151915260006104c6846107c7565b6006810154909150600160c01b90046001600160401b0316156104fc5760405163c84cfbb160e01b815260040160405180910390fd5b610504610ce1565b600e83018054601090610528908490600160801b90046001600160401b0316611913565b92506101000a8154816001600160401b0302191690836001600160401b03160217905550600082600e0160109054906101000a90046001600160401b03169050808260060160186101000a8154816001600160401b0302191690836001600160401b0316021790555061059a42610d13565b60078301805467ffffffffffffffff19166001600160401b039283161790556000906105c79083166108a5565b9050816001600160401b0316866001600160a01b03167feb5d812e11df51c81fe042841fe8ad86e1358614ac759500d1ad5b306266ad298360405161060e91815260200190565b60405180910390a3505050505050565b600081600381111561063257610632611932565b61063a610d7b565b600381111561064b5761064b611932565b10801591506102765760405163909b191760e01b815260040160405180910390fd5b7f0cd2207518cd3e5213e2c6dbe63d55b60aa893c194a427b7d7f1600408fd5bde8054600119016106b157604051633ee5aeb560e01b815260040160405180910390fd5b60029055565b7f4f24f5c433db0962dac0d2c8b84197a6e6c7cc4e5d9ebe1916a1b6193da2f342547f4f24f5c433db0962dac0d2c8b84197a6e6c7cc4e5d9ebe1916a1b6193da2f34554600080516020611f37833981519152916001600160a01b0316906040840135146107385760405163057f3fa760e51b815260040160405180910390fd5b60405163a7a3797560e01b81526001600160a01b0382169063a7a3797590610764908690600401611aac565b602060405180830381865afa158015610781573d6000803e3d6000fd5b505050506040513d601f19601f820116820180604052508101906107a59190611b41565b6107c2576040516316c32dbb60e21b815260040160405180910390fd5b505050565b604081901b68010000000000000000600160e01b0316600080516020611f578339815191521860048101546000919060ff168281600581111561080c5761080c611932565b1415801561082c5750600581600581111561082957610829611932565b14155b6108495760405163d68a46c560e01b815260040160405180910390fd5b5092915050565b60006001600160a01b0382161580159061089c575060018301546001600160a01b038381169116148061089c575061088783610dcc565b6001600160a01b0316826001600160a01b0316145b90505b92915050565b60006001600160401b038211156108be576108be611b5e565b5067464250526641000360c01b1790565b7f4f24f5c433db0962dac0d2c8b84197a6e6c7cc4e5d9ebe1916a1b6193da2f348546007820154600091600080516020611f378339815191529161092691600160901b90046001600160401b039081169116611913565b6001600160401b03164211801561095657506003600484015460ff16600581111561095357610953611932565b14155b9392505050565b6102768260a0830135610140840135610e6e565b7f4f24f5c433db0962dac0d2c8b84197a6e6c7cc4e5d9ebe1916a1b6193da2f34954600080516020611f37833981519152906000906109ba9085906001600160801b0316610ea6565b90506109c7848483610eba565b5050505050565b60068201546000906109eb908390600160401b9004600f0b611b74565b905060006109f884610fcf565b9050610a038161104b565b821215610a695760408051838152602081018390526001600160a01b03600080516020611f578339815191528718831c16917f3232fdbb55664d655aff08d1cc31318b51047d1178a5cea499006d9f9d4c07ae910160405180910390a2610a69846110b5565b610a72826111b1565b6006850180546001600160801b0392909216600160401b0277ffffffffffffffffffffffffffffffff000000000000000019909216919091179055610ac784600080516020611f578339815191521860401c90565b6006850154604051600160401b909104600f0b81526001600160a01b0391909116907f73da6891cb86668451f612d2555e88650888a0133a30b1d226b2d1f955e62bca9060200160405180910390a250505050565b610b2e610b28826107c7565b33610850565b610b4b5760405163f6e2f99b60e01b815260040160405180910390fd5b50565b6000610b626102a083016102808401611b9c565b60ff1614610b83576040516307a4ced160e51b815260040160405180910390fd5b610b4b816106b7565b6102768260a08301356111da565b600080821215610bf15760405162461bcd60e51b815260206004820181905260248201527f53616665436173743a2076616c7565206d75737420626520706f73697469766560448201526064015b60405180910390fd5b5090565b60006001600160801b03821115610bf15760405162461bcd60e51b8152600401610be890611bb9565b610c2f610c2a8261104b565b6111b1565b600683018054600890610c4d908490600160401b9004600f0b611c00565b92506101000a8154816001600160801b030219169083600f0b6001600160801b03160217905550610c8e82600080516020611f578339815191521860401c90565b6006830154604051600160401b909104600f0b81526001600160a01b0391909116907f73da6891cb86668451f612d2555e88650888a0133a30b1d226b2d1f955e62bca9060200160405180910390a25050565b60006103e843610cef61121a565b610cf99190611c3f565b610d039190611c68565b610d0e906001611c3f565b905090565b60006001600160401b03821115610bf15760405162461bcd60e51b815260206004820152602660248201527f53616665436173743a2076616c756520646f65736e27742066697420696e203660448201526534206269747360d01b6064820152608401610be8565b600080610d8661132a565b90506000610d92611392565b9050816003811115610da657610da6611932565b816003811115610db857610db8611932565b11610dc35781610dc5565b805b9250505090565b6000610dff7f4f24f5c433db0962dac0d2c8b84197a6e6c7cc4e5d9ebe1916a1b6193da2f341546001600160a01b031690565b6001830154604051631f86345d60e31b81526001600160a01b03918216600482015291169063fc31a2e890602401602060405180830381865afa158015610e4a573d6000803e3d6000fd5b505050506040513d601f19601f8201168201806040525081019061089f9190611c8a565b60408051602080820184905281830185905282518083038401815260609092019092528051910120610ea084826111da565b50505050565b600061089c82610eb5856113fa565b611447565b600080610ec6856113fa565b90506000600080516020611f57833981519152861860401c82546040516370a0823160e01b81526001600160a01b038084166004830152929350610f5792879216906370a0823190602401602060405180830381865afa158015610f2e573d6000803e3d6000fd5b505050506040513d601f19601f82011682018060405250810190610f529190611ca7565b611532565b825460405163083e007560e21b81526001600160a01b0391821660048201528782166024820152604481018390529194508216906320f801d490606401600060405180830381600087803b158015610fae57600080fd5b505af1158015610fc2573d6000803e3d6000fd5b5050505050509392505050565b7f4f24f5c433db0962dac0d2c8b84197a6e6c7cc4e5d9ebe1916a1b6193da2f346546005820154600091600080516020611f3783398151915291600160901b9091046001600160401b039081169161103891600160801b8204811691600160401b900416611913565b6001600160401b03166109569190611cc0565b60006001600160ff1b03821115610bf15760405162461bcd60e51b815260206004820152602860248201527f53616665436173743a2076616c756520646f65736e27742066697420696e2061604482015267371034b73a191a9b60c11b6064820152608401610be8565b6003600482015460ff1660058111156110d0576110d0611932565b14806110f3575060048082015460ff1660058111156110f1576110f1611932565b145b156110fb5750565b6004810154600160a81b90046001600160401b03166000036111495761112042610d13565b8160040160156101000a8154816001600160401b0302191690836001600160401b031602179055505b60048101805460ff19166003179055600080516020611f57833981519152811860401c6001600160a01b03167fa3bf539465c1a8746950e123769affaff9097155e9e8cb9e079e1d55d6ba3497426040516111a691815260200190565b60405180910390a250565b80600f81900b81146111d55760405162461bcd60e51b8152600401610be890611bb9565b919050565b60008181526020839052604090205415611207576040516318dce79f60e01b815260040160405180910390fd5b6000818152602092909252604090912055565b7f4f24f5c433db0962dac0d2c8b84197a6e6c7cc4e5d9ebe1916a1b6193da2f342546040805163b59589d160e01b81529051600092600080516020611f37833981519152926001600160a01b03909116918491839163b59589d1916004808201926020929091908290030181865afa15801561129a573d6000803e3d6000fd5b505050506040513d601f19601f820116820180604052508101906112be9190611c8a565b6001600160a01b031663dbdff2c16040518163ffffffff1660e01b8152600401606060405180830381865afa1580156112fb573d6000803e3d6000fd5b505050506040513d601f19601f8201168201806040525081019061131f9190611cd7565b509095945050505050565b7fec7e8c1c441439dd40959777f4c577ea0cd42fcc1dbe59d2bd0f5d9c55df8dc654600090600080516020611f778339815191529042600160401b9091046001600160401b0316118061137e576000610dc5565b5060110154600160901b900460ff16919050565b7fec7e8c1c441439dd40959777f4c577ea0cd42fcc1dbe59d2bd0f5d9c55df8dc754600090600080516020611f778339815191529042600160a01b9091046001600160401b031611806113e6576000610dc5565b5060110154600160981b900460ff16919050565b600080600080516020611f7783398151915260048401548154919250829161010090910461ffff1690811061143157611431611d12565b9060005260206000209060040201915050919050565b600081600201805461145890611d28565b905060000361148e5781546114879061147c90600160a81b900460ff16600a611e49565b8490620186a0611548565b905061089f565b61089c838360020180546114a190611d28565b80601f01602080910402602001604051908101604052809291908181526020018280546114cd90611d28565b801561151a5780601f106114ef5761010080835404028352916020019161151a565b820191906000526020600020905b8154815290600101906020018083116114fd57829003601f168201915b50508754600160a81b900460ff16925061157d915050565b6000818310611541578161089c565b5090919050565b600080821161156a576040516323d359a360e01b815260040160405180910390fd5b6115758484846115d2565b949350505050565b600080600061158d8560006116bc565b925050915060006005828660ff166115a59190611c3f565b6115af9190611e58565b90506115c76115bf82600a611e6b565b889085611548565b979650505050505050565b600080806000198587098587029250828110838203039150508060000361160c5783828161160257611602611c52565b0492505050610956565b8084116116535760405162461bcd60e51b81526020600482015260156024820152744d6174683a206d756c446976206f766572666c6f7760581b6044820152606401610be8565b60008486880960026001871981018816978890046003810283188082028403028082028403028082028403028082028403028082028403029081029092039091026000889003889004909101858311909403939093029303949094049190911702949350505050565b7f4f24f5c433db0962dac0d2c8b84197a6e6c7cc4e5d9ebe1916a1b6193da2f3445460009081908190600080516020611f37833981519152906001600160a01b031685156117a957600080600080846001600160a01b031663e731a1bc8c6040518263ffffffff1660e01b81526004016117369190611e77565b608060405180830381865afa158015611753573d6000803e3d6000fd5b505050506040513d601f19601f820116820180604052508101906117779190611ec5565b60ff16935093509350935060008111611794576000806000611798565b8383835b98509850985050505050505061181f565b60405163524f388960e01b81526001600160a01b0382169063524f3889906117d5908a90600401611e77565b606060405180830381865afa1580156117f2573d6000803e3d6000fd5b505050506040513d601f19601f820116820180604052508101906118169190611f08565b94509450945050505b9250925092565b6001600160a01b0381168114610b4b57600080fd5b6000806040838503121561184e57600080fd5b82356001600160401b0381111561186457600080fd5b83016102a0818603121561187757600080fd5b9150602083013561188781611826565b809150509250929050565b6000602082840312156118a457600080fd5b813561095681611826565b634e487b7160e01b600052601160045260246000fd5b6000600160ff1b82016118da576118da6118af565b5060000390565b80356001600160401b03811681146111d557600080fd5b60006020828403121561190a57600080fd5b61089c826118e1565b6001600160401b03818116838216019081111561089f5761089f6118af565b634e487b7160e01b600052602160045260246000fd5b8015158114610b4b57600080fd5b80356111d581611948565b60ff81168114610b4b57600080fd5b80356111d581611961565b80358252602080820135908301526001600160401b0361199d604083016118e1565b1660408301526001600160401b036119b7606083016118e1565b1660608301526080818101359083015260a0808201359083015260c080820135908301526119fc60e0808401906119ef9084016118e1565b6001600160401b03169052565b611a0961010082016118e1565b6001600160401b031661010083015261012081810135908301526101408082013590830152610160808201359083015261018080820135908301526101a080820135908301526101c080820135908301526101e0808201359083015261020080820135908301526102208082013590830152611a886102408201611956565b1515610240830152611a9d6102608201611970565b60ff8116610260840152505050565b6020815260008235601e19843603018112611ac657600080fd5b83016020810190356001600160401b03811115611ae257600080fd5b8060051b803603831315611af557600080fd5b6102a060208601526102c085018290526001600160fb1b03821115611b1957600080fd5b80836102e0870137611b31604086016020880161197b565b939093016102e001949350505050565b600060208284031215611b5357600080fd5b815161095681611948565b634e487b7160e01b600052600160045260246000fd5b8082018281126000831280158216821582161715611b9457611b946118af565b505092915050565b600060208284031215611bae57600080fd5b813561095681611961565b60208082526027908201527f53616665436173743a2076616c756520646f65736e27742066697420696e20316040820152663238206269747360c81b606082015260800190565b600f81810b9083900b016f7fffffffffffffffffffffffffffffff81136f7fffffffffffffffffffffffffffffff198212171561089f5761089f6118af565b8082018082111561089f5761089f6118af565b634e487b7160e01b600052601260045260246000fd5b600082611c8557634e487b7160e01b600052601260045260246000fd5b500690565b600060208284031215611c9c57600080fd5b815161095681611826565b600060208284031215611cb957600080fd5b5051919050565b808202811582820484141761089f5761089f6118af565b600080600060608486031215611cec57600080fd5b83516020850151909350611cff81611948565b6040949094015192959394509192915050565b634e487b7160e01b600052603260045260246000fd5b600181811c90821680611d3c57607f821691505b602082108103611d5c57634e487b7160e01b600052602260045260246000fd5b50919050565b6001815b6001841115611d9d57808504811115611d8157611d816118af565b6001841615611d8f57908102905b60019390931c928002611d66565b935093915050565b600082611db45750600161089f565b81611dc15750600061089f565b8160018114611dd75760028114611de157611dfd565b600191505061089f565b60ff841115611df257611df26118af565b50506001821b61089f565b5060208310610133831016604e8410600b8410161715611e20575081810a61089f565b611e2d6000198484611d62565b8060001904821115611e4157611e416118af565b029392505050565b600061089c60ff841683611da5565b8181038181111561089f5761089f6118af565b600061089c8383611da5565b602081526000825180602084015260005b81811015611ea55760208186018101516040868401015201611e88565b506000604082850101526040601f19601f83011684010191505092915050565b60008060008060808587031215611edb57600080fd5b84516020860151604087015160608801519296509094509250611efd81611961565b939692955090935050565b600080600060608486031215611f1d57600080fd5b505081516020830151604090930151909492935091905056fe4f24f5c433db0962dac0d2c8b84197a6e6c7cc4e5d9ebe1916a1b6193da2f33a5bebac0595fee029d42bb673937f5f1cb81cf8641382bc17774635de9b7d7965ec7e8c1c441439dd40959777f4c577ea0cd42fcc1dbe59d2bd0f5d9c55df8db6a264697066735822122017ba723f8f2a5d02f99125abb9593b47640084e82e3e9d616629472f8515919e64736f6c634300081b0033",
  "linkReferences": {},
  "deployedLinkReferences": {}
}