{
  "_format": "hh-sol-artifact-1",
  "contractName": "ConversionMock",
  "sourceName": "contracts/assetManager/library/mock/ConversionMock.sol",
  "abi": [
    {
      "inputs": [],
      "name": "DivisionByZero",
      "type": "error"
    },
    {
      "inputs": [
        {
          "internalType": "uint256",
          "name": "_tokenDecimals",
          "type": "uint256"
        },
        {
          "internalType": "uint256",
          "name": "_tokenPrice",
          "type": "uint256"
        },
        {
          "internalType": "uint256",
          "name": "_tokenFtsoDecimals",
          "type": "uint256"
        },
        {
          "internalType": "uint256",
          "name": "_assetPrice",
          "type": "uint256"
        },
        {
          "internalType": "uint256",
          "name": "_assetFtsoDecimals",
          "type": "uint256"
        }
      ],
      "name": "calcAmgToTokenWeiPrice",
      "outputs": [
        {
          "internalType": "uint256",
          "name": "",
          "type": "uint256"
        }
      ],
      "stateMutability": "view",
      "type": "function"
    },
    {
      "inputs": [
        {
          "internalType": "uint256",
          "name": "_valueAMG",
          "type": "uint256"
        },
        {
          "internalType": "uint256",
          "name": "_amgToNATWeiPrice",
          "type": "uint256"
        }
      ],
      "name": "convertAmgToTokenWei",
      "outputs": [
        {
          "internalType": "uint256",
          "name": "",
          "type": "uint256"
        }
      ],
      "stateMutability": "pure",
      "type": "function"
    },
    {
      "inputs": [
        {
          "internalType": "uint256",
          "name": "_valueNATWei",
          "type": "uint256"
        },
        {
          "internalType": "uint256",
          "name": "_amgToNATWeiPrice",
          "type": "uint256"
        }
      ],
      "name": "convertTokenWeiToAMG",
      "outputs": [
        {
          "internalType": "uint256",
          "name": "",
          "type": "uint256"
        }
      ],
      "stateMutability": "pure",
      "type": "function"
    },
    {
      "inputs": [
        {
          "internalType": "uint256",
          "name": "assetDecimals",
          "type": "uint256"
        },
        {
          "internalType": "uint256",
          "name": "assetMintingDecimals",
          "type": "uint256"
        }
      ],
      "name": "setAssetDecimals",
      "outputs": [],
      "stateMutability": "nonpayable",
      "type": "function"
    }
  ],
  "bytecode": "0x6080604052348015600f57600080fd5b5061068b8061001f6000396000f3fe608060405234801561001057600080fd5b506004361061004c5760003560e01c80635170738c146100515780636338489e14610066578063b2ae335d1461008b578063d55f0a4e1461009e575b600080fd5b61006461005f36600461049d565b6100b1565b005b61007961007436600461049d565b6101a7565b60405190815260200160405180910390f35b6100796100993660046104bf565b6101bc565b6100796100ac36600461049d565b6101d5565b7f4f24f5c433db0962dac0d2c8b84197a6e6c7cc4e5d9ebe1916a1b6193da2f33a6100db836101e1565b81600a0160146101000a81548160ff021916908360ff160217905550610100826101e1565b81600a0160156101000a81548160ff021916908360ff16021790555061013183600a61012c91906105f7565b61024b565b600c8201805467ffffffffffffffff92909216600160501b0267ffffffffffffffff60501b1990921691909117905561017861016d8385610603565b61012c90600a6105f7565b81600c0160126101000a81548167ffffffffffffffff021916908367ffffffffffffffff160217905550505050565b60006101b383836102b4565b90505b92915050565b60006101cb86868686866102ce565b9695505050505050565b60006101b38383610367565b600060ff8211156102475760405162461bcd60e51b815260206004820152602560248201527f53616665436173743a2076616c756520646f65736e27742066697420696e2038604482015264206269747360d81b60648201526084015b60405180910390fd5b5090565b600067ffffffffffffffff8211156102475760405162461bcd60e51b815260206004820152602660248201527f53616665436173743a2076616c756520646f65736e27742066697420696e203660448201526534206269747360d01b606482015260840161023e565b60006101b3826102c66009600a6105f7565b85919061037c565b60007f4f24f5c433db0962dac0d2c8b84197a6e6c7cc4e5d9ebe1916a1b6193da2f33a8160096102fe878a610616565b6103089190610616565b600a830154909150600090610328908690600160a81b900460ff16610616565b90508082101561033a5761033a610629565b61035a6103478284610603565b61035290600a6105f7565b87908a61037c565b9998505050505050505050565b60006101b36103786009600a6105f7565b8490845b600080821161039e576040516323d359a360e01b815260040160405180910390fd5b6103a98484846103b3565b90505b9392505050565b60008080600019858709858702925082811083820303915050806000036103ed578382816103e3576103e361063f565b04925050506103ac565b8084116104345760405162461bcd60e51b81526020600482015260156024820152744d6174683a206d756c446976206f766572666c6f7760581b604482015260640161023e565b60008486880960026001871981018816978890046003810283188082028403028082028403028082028403028082028403028082028403029081029092039091026000889003889004909101858311909403939093029303949094049190911702949350505050565b600080604083850312156104b057600080fd5b50508035926020909101359150565b600080600080600060a086880312156104d757600080fd5b505083359560208501359550604085013594606081013594506080013592509050565b634e487b7160e01b600052601160045260246000fd5b6001815b600184111561054b5780850481111561052f5761052f6104fa565b600184161561053d57908102905b60019390931c928002610514565b935093915050565b600082610562575060016101b6565b8161056f575060006101b6565b8160018114610585576002811461058f576105ab565b60019150506101b6565b60ff8411156105a0576105a06104fa565b50506001821b6101b6565b5060208310610133831016604e8410600b84101617156105ce575081810a6101b6565b6105db6000198484610510565b80600019048211156105ef576105ef6104fa565b029392505050565b60006101b38383610553565b818103818111156101b6576101b66104fa565b808201808211156101b6576101b66104fa565b634e487b7160e01b600052600160045260246000fd5b634e487b7160e01b600052601260045260246000fdfea26469706673582212200975b6fbea604dd3d80cee8165d1367bf76ab71ca68080a94bc70eb6a20f3ddd64736f6c634300081b0033",
  "linkReferences": {},
  "deployedLinkReferences": {}
}