{
  "_format": "hh-sol-artifact-1",
  "contractName": "SystemInfoFacet",
  "sourceName": "contracts/assetManager/facets/SystemInfoFacet.sol",
  "abi": [
    {
      "inputs": [],
      "name": "EmergencyPauseActive",
      "type": "error"
    },
    {
      "inputs": [],
      "name": "InvalidAgentVaultAddress",
      "type": "error"
    },
    {
      "inputs": [],
      "name": "InvalidCrtId",
      "type": "error"
    },
    {
      "inputs": [],
      "name": "InvalidRequestId",
      "type": "error"
    },
    {
      "inputs": [],
      "name": "InvalidTicketId",
      "type": "error"
    },
    {
      "inputs": [],
      "name": "NotAttached",
      "type": "error"
    },
    {
      "inputs": [],
      "name": "OnlyAssetManagerController",
      "type": "error"
    },
    {
      "inputs": [],
      "name": "OnlyImmediateGovernanceOrExecutor",
      "type": "error"
    },
    {
      "inputs": [
        {
          "internalType": "address",
          "name": "_agentVault",
          "type": "address"
        },
        {
          "internalType": "uint256",
          "name": "_firstRedemptionTicketId",
          "type": "uint256"
        },
        {
          "internalType": "uint256",
          "name": "_pageSize",
          "type": "uint256"
        }
      ],
      "name": "agentRedemptionQueue",
      "outputs": [
        {
          "components": [
            {
              "internalType": "uint256",
              "name": "redemptionTicketId",
              "type": "uint256"
            },
            {
              "internalType": "address",
              "name": "agentVault",
              "type": "address"
            },
            {
              "internalType": "uint256",
              "name": "ticketValueUBA",
              "type": "uint256"
            }
          ],
          "internalType": "struct RedemptionTicketInfo.Data[]",
          "name": "_queue",
          "type": "tuple[]"
        },
        {
          "internalType": "uint256",
          "name": "_nextRedemptionTicketId",
          "type": "uint256"
        }
      ],
      "stateMutability": "view",
      "type": "function"
    },
    {
      "inputs": [
        {
          "internalType": "uint256",
          "name": "_collateralReservationId",
          "type": "uint256"
        }
      ],
      "name": "collateralReservationInfo",
      "outputs": [
        {
          "components": [
            {
              "internalType": "uint64",
              "name": "collateralReservationId",
              "type": "uint64"
            },
            {
              "internalType": "address",
              "name": "agentVault",
              "type": "address"
            },
            {
              "internalType": "address",
              "name": "minter",
              "type": "address"
            },
            {
              "internalType": "string",
              "name": "paymentAddress",
              "type": "string"
            },
            {
              "internalType": "bytes32",
              "name": "paymentReference",
              "type": "bytes32"
            },
            {
              "internalType": "uint256",
              "name": "valueUBA",
              "type": "uint256"
            },
            {
              "internalType": "uint128",
              "name": "mintingFeeUBA",
              "type": "uint128"
            },
            {
              "internalType": "uint128",
              "name": "reservationFeeNatWei",
              "type": "uint128"
            },
            {
              "internalType": "uint16",
              "name": "poolFeeShareBIPS",
              "type": "uint16"
            },
            {
              "internalType": "uint64",
              "name": "firstUnderlyingBlock",
              "type": "uint64"
            },
            {
              "internalType": "uint64",
              "name": "lastUnderlyingBlock",
              "type": "uint64"
            },
            {
              "internalType": "uint64",
              "name": "lastUnderlyingTimestamp",
              "type": "uint64"
            },
            {
              "internalType": "address",
              "name": "executor",
              "type": "address"
            },
            {
              "internalType": "uint256",
              "name": "executorFeeNatWei",
              "type": "uint256"
            },
            {
              "internalType": "enum CollateralReservationInfo.Status",
              "name": "status",
              "type": "uint8"
            }
          ],
          "internalType": "struct CollateralReservationInfo.Data",
          "name": "",
          "type": "tuple"
        }
      ],
      "stateMutability": "view",
      "type": "function"
    },
    {
      "inputs": [],
      "name": "controllerAttached",
      "outputs": [
        {
          "internalType": "bool",
          "name": "",
          "type": "bool"
        }
      ],
      "stateMutability": "view",
      "type": "function"
    },
    {
      "inputs": [],
      "name": "mintingPaused",
      "outputs": [
        {
          "internalType": "bool",
          "name": "",
          "type": "bool"
        }
      ],
      "stateMutability": "view",
      "type": "function"
    },
    {
      "inputs": [
        {
          "internalType": "uint256",
          "name": "_firstRedemptionTicketId",
          "type": "uint256"
        },
        {
          "internalType": "uint256",
          "name": "_pageSize",
          "type": "uint256"
        }
      ],
      "name": "redemptionQueue",
      "outputs": [
        {
          "components": [
            {
              "internalType": "uint256",
              "name": "redemptionTicketId",
              "type": "uint256"
            },
            {
              "internalType": "address",
              "name": "agentVault",
              "type": "address"
            },
            {
              "internalType": "uint256",
              "name": "ticketValueUBA",
              "type": "uint256"
            }
          ],
          "internalType": "struct RedemptionTicketInfo.Data[]",
          "name": "_queue",
          "type": "tuple[]"
        },
        {
          "internalType": "uint256",
          "name": "_nextRedemptionTicketId",
          "type": "uint256"
        }
      ],
      "stateMutability": "view",
      "type": "function"
    },
    {
      "inputs": [
        {
          "internalType": "uint256",
          "name": "_redemptionRequestId",
          "type": "uint256"
        }
      ],
      "name": "redemptionRequestInfo",
      "outputs": [
        {
          "components": [
            {
              "internalType": "uint64",
              "name": "redemptionRequestId",
              "type": "uint64"
            },
            {
              "internalType": "enum RedemptionRequestInfo.Status",
              "name": "status",
              "type": "uint8"
            },
            {
              "internalType": "address",
              "name": "agentVault",
              "type": "address"
            },
            {
              "internalType": "address",
              "name": "redeemer",
              "type": "address"
            },
            {
              "internalType": "string",
              "name": "paymentAddress",
              "type": "string"
            },
            {
              "internalType": "bytes32",
              "name": "paymentReference",
              "type": "bytes32"
            },
            {
              "internalType": "uint128",
              "name": "valueUBA",
              "type": "uint128"
            },
            {
              "internalType": "uint128",
              "name": "feeUBA",
              "type": "uint128"
            },
            {
              "internalType": "uint16",
              "name": "poolFeeShareBIPS",
              "type": "uint16"
            },
            {
              "internalType": "uint64",
              "name": "firstUnderlyingBlock",
              "type": "uint64"
            },
            {
              "internalType": "uint64",
              "name": "lastUnderlyingBlock",
              "type": "uint64"
            },
            {
              "internalType": "uint64",
              "name": "lastUnderlyingTimestamp",
              "type": "uint64"
            },
            {
              "internalType": "uint64",
              "name": "timestamp",
              "type": "uint64"
            },
            {
              "internalType": "bool",
              "name": "poolSelfClose",
              "type": "bool"
            },
            {
              "internalType": "bool",
              "name": "transferToCoreVault",
              "type": "bool"
            },
            {
              "internalType": "address",
              "name": "executor",
              "type": "address"
            },
            {
              "internalType": "uint256",
              "name": "executorFeeNatWei",
              "type": "uint256"
            }
          ],
          "internalType": "struct RedemptionRequestInfo.Data",
          "name": "",
          "type": "tuple"
        }
      ],
      "stateMutability": "view",
      "type": "function"
    },
    {
      "inputs": [
        {
          "internalType": "uint256",
          "name": "_redemptionRequestId",
          "type": "uint256"
        }
      ],
      "name": "redemptionRequestInfoExt",
      "outputs": [
        {
          "components": [
            {
              "internalType": "uint64",
              "name": "redemptionRequestId",
              "type": "uint64"
            },
            {
              "internalType": "enum RedemptionRequestInfo.Status",
              "name": "status",
              "type": "uint8"
            },
            {
              "internalType": "address",
              "name": "agentVault",
              "type": "address"
            },
            {
              "internalType": "address",
              "name": "redeemer",
              "type": "address"
            },
            {
              "internalType": "string",
              "name": "paymentAddress",
              "type": "string"
            },
            {
              "internalType": "bytes32",
              "name": "paymentReference",
              "type": "bytes32"
            },
            {
              "internalType": "uint128",
              "name": "valueUBA",
              "type": "uint128"
            },
            {
              "internalType": "uint128",
              "name": "feeUBA",
              "type": "uint128"
            },
            {
              "internalType": "uint16",
              "name": "poolFeeShareBIPS",
              "type": "uint16"
            },
            {
              "internalType": "uint64",
              "name": "firstUnderlyingBlock",
              "type": "uint64"
            },
            {
              "internalType": "uint64",
              "name": "lastUnderlyingBlock",
              "type": "uint64"
            },
            {
              "internalType": "uint64",
              "name": "lastUnderlyingTimestamp",
              "type": "uint64"
            },
            {
              "internalType": "uint64",
              "name": "timestamp",
              "type": "uint64"
            },
            {
              "internalType": "bool",
              "name": "poolSelfClose",
              "type": "bool"
            },
            {
              "internalType": "bool",
              "name": "transferToCoreVault",
              "type": "bool"
            },
            {
              "internalType": "address",
              "name": "executor",
              "type": "address"
            },
            {
              "internalType": "uint256",
              "name": "executorFeeNatWei",
              "type": "uint256"
            },
            {
              "internalType": "bool",
              "name": "requiresDestinationTag",
              "type": "bool"
            },
            {
              "internalType": "uint256",
              "name": "destinationTag",
              "type": "uint256"
            }
          ],
          "internalType": "struct RedemptionRequestInfo.DataExt",
          "name": "",
          "type": "tuple"
        }
      ],
      "stateMutability": "view",
      "type": "function"
    }
  ],
  "bytecode": "0x6080604052348015600f57600080fd5b506118798061001f6000396000f3fe608060405234801561001057600080fd5b506004361061007d5760003560e01c80635c907eaa1161005b5780635c907eaa1461010957806391a76c4014610129578063b5bd20ee1461013c578063e1a283d61461015c57600080fd5b806326e64020146100825780634331dd30146100ac57806353777730146100cc575b600080fd5b6100956100903660046111be565b61018e565b6040516100a39291906111ff565b60405180910390f35b6100bf6100ba36600461126e565b6101a9565b6040516100a391906112f7565b7fec7e8c1c441439dd40959777f4c577ea0cd42fcc1dbe59d2bd0f5d9c55df8dc754600160881b900460ff165b60405190151581526020016100a3565b61011c61011736600461126e565b610480565b6040516100a39190611495565b6100956101373660046115d9565b610719565b61014f61014a36600461126e565b610732565b6040516100a391906115fb565b7fec7e8c1c441439dd40959777f4c577ea0cd42fcc1dbe59d2bd0f5d9c55df8dc6546001600160401b031615156100f9565b6060600061019d8585856109c8565b91509150935093915050565b60408051610260810182526000808252602082018190529181018290526060808201839052608082015260a0810182905260c0810182905260e08101829052610100810182905261012081018290526101408101829052610160810182905261018081018290526101a081018290526101c081018290526101e081018290526102008101829052610220810182905261024081018290529061024a836109e1565b90506000610262826001600160401b03166000610a51565b9050604051806102600160405280836001600160401b031681526020016102998360040160149054906101000a900460ff16610b1e565b60058111156102aa576102aa611287565b815260048301546001600160a01b03908116602083015260038401541660408201526007830180546060909201916102e190611767565b80601f016020809104026020016040519081016040528092919081815260200182805461030d90611767565b801561035a5780601f1061032f5761010080835404028352916020019161035a565b820191906000526020600020905b81548152906001019060200180831161033d57829003601f168201915b50505050508152602001610376846001600160401b0316610bee565b815260018301546001600160801b038082166020840152600160801b91829004166040830152600884015461010080820461ffff16606085015260028601546001600160401b038082166080870152600160401b8204811660a0870152939004831660c08501526003860154600160a01b90819004841660e08601526004870154600160a81b900460ff9081161515928601929092529116151561012084015260058501546001600160a01b0381166101408501526101609093019261044592633b9aca0092909104166117b7565b815260089092015460ff6301000000820416151560208401526001600160401b03640100000000909104166040909201919091529392505050565b6104fc604080516101e0810182526000808252602082018190529181018290526060808201526080810182905260a0810182905260c0810182905260e08101829052610100810182905261012081018290526101408101829052610160810182905261018081018290526101a08101829052906101c082015290565b6000610507836109e1565b9050600061051f826001600160401b03166000610c18565b600281015490915060009061053c906001600160a01b0316610cfc565b604080516101e0810182526001600160401b03861681526002808601546001600160a01b039081166020840152600387015416928201929092529082018054929350909160608301919061058f90611767565b80601f01602080910402602001604051908101604052809291908181526020018280546105bb90611767565b80156106085780601f106105dd57610100808354040283529160200191610608565b820191906000526020600020905b8154815290600101906020018083116105eb57829003601f168201915b50505050508152602001610624856001600160401b0316610d90565b81528354602090910190610640906001600160401b0316610dba565b815260018401546001600160801b038082166020840152600160801b9091041660408201526060016106728385610e26565b61ffff16815283546001600160401b03600160401b820481166020840152600160801b820481166040840152600160c01b9091048116606083015260048501546001600160a01b038116608084015260a0909201916106de91633b9aca0091600160a01b9004166117b7565b81526020016106fd8460030160149054906101000a900460ff16610e68565b600381111561070e5761070e611287565b905295945050505050565b606060006107278484610ef5565b915091509250929050565b60408051610220810182526000808252602082018190529181018290526060808201839052608082015260a0810182905260c0810182905260e08101829052610100810182905261012081018290526101408101829052610160810182905261018081018290526101a081018290526101c081018290526101e081018290526102008101829052906107c3836109e1565b905060006107db826001600160401b03166000610a51565b9050604051806102200160405280836001600160401b031681526020016108128360040160149054906101000a900460ff16610b1e565b600581111561082357610823611287565b815260048301546001600160a01b039081166020830152600384015416604082015260078301805460609092019161085a90611767565b80601f016020809104026020016040519081016040528092919081815260200182805461088690611767565b80156108d35780601f106108a8576101008083540402835291602001916108d3565b820191906000526020600020905b8154815290600101906020018083116108b657829003601f168201915b505050505081526020016108ef846001600160401b0316610bee565b815260018301546001600160801b038082166020840152600160801b91829004166040830152600884015461010080820461ffff16606085015260028601546001600160401b038082166080870152600160401b8204811660a0870152939004831660c08501526003860154600160a01b90819004841660e08601526004870154600160a81b900460ff9081161515928601929092529116151561012084015260058501546001600160a01b038116610140850152610160909301926109be92633b9aca0092909104166117b7565b9052949350505050565b606060006109d585610cfc565b5061019d858585610f01565b60006001600160401b03821115610a4d5760405162461bcd60e51b815260206004820152602660248201527f53616665436173743a2076616c756520646f65736e27742066697420696e203660448201526534206269747360d01b606482015260840160405180910390fd5b5090565b60007fec7e8c1c441439dd40959777f4c577ea0cd42fcc1dbe59d2bd0f5d9c55df8db6838203610a94576040516302e8145360e61b815260040160405180910390fd5b6000848152600a82016020526040902091508215610ad757610ab582611175565b610ad2576040516302e8145360e61b815260040160405180910390fd5b610b17565b60006004830154600160a01b900460ff166006811115610af957610af9611287565b03610b17576040516302e8145360e61b815260040160405180910390fd5b5092915050565b60006001826006811115610b3457610b34611287565b03610b4157506000919050565b6002826006811115610b5557610b55611287565b03610b6257506001919050565b6003826006811115610b7657610b76611287565b03610b8357506002919050565b6004826006811115610b9757610b97611287565b03610ba457506003919050565b6005826006811115610bb857610bb8611287565b03610bc557506004919050565b6006826006811115610bd957610bd9611287565b14610be657610be66117ce565b506005919050565b60006001600160401b03821115610c0757610c076117ce565b5067232128293320800160c11b1790565b6000808311610c3a57604051631905b1b960e21b815260040160405180910390fd5b5060008281527fec7e8c1c441439dd40959777f4c577ea0cd42fcc1dbe59d2bd0f5d9c55df8dbc60205260408120805490917fec7e8c1c441439dd40959777f4c577ea0cd42fcc1dbe59d2bd0f5d9c55df8db6916001600160401b03169003610cb657604051631905b1b960e21b815260040160405180910390fd5b8215610b17576000600383810154600160a01b900460ff1690811115610cde57610cde611287565b14610b1757604051631905b1b960e21b815260040160405180910390fd5b604081901b68010000000000000000600160e01b03167f5bebac0595fee029d42bb673937f5f1cb81cf8641382bc17774635de9b7d79651860048101546000919060ff1682816005811115610d5357610d53611287565b14158015610d7357506005816005811115610d7057610d70611287565b14155b610b175760405163d68a46c560e01b815260040160405180910390fd5b60006001600160401b03821115610da957610da96117ce565b5067464250526641000160c01b1790565b7f4f24f5c433db0962dac0d2c8b84197a6e6c7cc4e5d9ebe1916a1b6193da2f346546000907f4f24f5c433db0962dac0d2c8b84197a6e6c7cc4e5d9ebe1916a1b6193da2f33a90610e1f90600160901b90046001600160401b039081169085166117b7565b9392505050565b6002810154600090600160a01b900461ffff1680610e53576004840154600160581b900461ffff16610e5e565b610e5e6001826117e4565b9150505b92915050565b600080826003811115610e7d57610e7d611287565b03610e8a57506000919050565b6001826003811115610e9e57610e9e611287565b03610eab57506001919050565b6002826003811115610ebf57610ebf611287565b03610ecc57506002919050565b6003826003811115610ee057610ee0611287565b14610eed57610eed6117ce565b506003919050565b60606000610727600085855b606060007fec7e8c1c441439dd40959777f4c577ea0cd42fcc1dbe59d2bd0f5d9c55df8db67fec7e8c1c441439dd40959777f4c577ea0cd42fcc1dbe59d2bd0f5d9c55df8dbd82610f51876109e1565b9050806001600160401b0316600003610fae576001600160a01b03881615610f9c576001600160a01b03881660009081526001830160205260409020546001600160401b0316610fab565b60028201546001600160401b03165b90505b6001600160401b0381161580610fe457506001600160401b0381166000908152602083905260409020546001600160a01b031615155b6110015760405163369cb27760e01b815260040160405180910390fd5b6000866001600160401b0381111561101b5761101b6117fe565b60405190808252806020026020018201604052801561107957816020015b61106660405180606001604052806000815260200160006001600160a01b03168152602001600081525090565b8152602001906001900390816110395790505b50905060005b6001600160401b0383161580159061109657508781105b1561115c576001600160401b0380841660008181526020878152604091829020825160608101845293845280546001600160a01b0381169285019290925293918301916110ea91600160a01b900416610dba565b8152508383815181106110ff576110ff611814565b60209081029190910101526001600160a01b038b1615611133576001810154600160c01b90046001600160401b0316611149565b6001810154600160401b90046001600160401b03165b93506111548261182a565b91505061107f565b815294506001600160401b031692505050935093915050565b6004810154600090600160a01b900460ff16600181600681111561119b5761119b611287565b1480610e1f575060028160068111156111b6576111b6611287565b149392505050565b6000806000606084860312156111d357600080fd5b83356001600160a01b03811681146111ea57600080fd5b95602085013595506040909401359392505050565b6040808252835190820181905260009060208501906060840190835b8181101561125b578351805184526020808201516001600160a01b031681860152604091820151918501919091529093019260609092019160010161121b565b5050602093909301939093525092915050565b60006020828403121561128057600080fd5b5035919050565b634e487b7160e01b600052602160045260246000fd5b600681106112ad576112ad611287565b9052565b6000815180845260005b818110156112d7576020818501810151868301820152016112bb565b506000602082860101526020601f19601f83011685010191505092915050565b602081526113116020820183516001600160401b03169052565b60006020830151611325604084018261129d565b5060408301516001600160a01b03811660608401525060608301516001600160a01b038116608084015250608083015161026060a084015261136b6102808401826112b1565b905060a084015160c084015260c084015161139160e08501826001600160801b03169052565b5060e08401516001600160801b0381166101008501525061010084015161ffff8116610120850152506101208401516001600160401b038116610140850152506101408401516001600160401b038116610160850152506101608401516001600160401b038116610180850152506101808401516001600160401b0381166101a0850152506101a08401518015156101c0850152506101c08401518015156101e0850152506101e08401516001600160a01b0381166102008501525061020084015161022084015261022084015161146e61024085018215159052565b506102408401516102608401528091505092915050565b600481106112ad576112ad611287565b602081526114af6020820183516001600160401b03169052565b600060208301516114cb60408401826001600160a01b03169052565b5060408301516001600160a01b03811660608401525060608301516101e060808401526114fc6102008401826112b1565b9050608084015160a084015260a084015160c084015260c084015161152c60e08501826001600160801b03169052565b5060e08401516001600160801b0381166101008501525061010084015161ffff8116610120850152506101208401516001600160401b038116610140850152506101408401516001600160401b038116610160850152506101608401516001600160401b038116610180850152506101808401516001600160a01b0381166101a0850152506101a08401516101c08401526101c08401516115d16101e0850182611485565b509392505050565b600080604083850312156115ec57600080fd5b50508035926020909101359150565b602081526116156020820183516001600160401b03169052565b60006020830151611629604084018261129d565b5060408301516001600160a01b03811660608401525060608301516001600160a01b038116608084015250608083015161022060a084015261166f6102408401826112b1565b905060a084015160c084015260c084015161169560e08501826001600160801b03169052565b5060e08401516001600160801b0381166101008501525061010084015161ffff8116610120850152506101208401516001600160401b038116610140850152506101408401516001600160401b038116610160850152506101608401516001600160401b038116610180850152506101808401516001600160401b0381166101a0850152506101a08401518015156101c0850152506101c08401518015156101e0850152506101e08401516001600160a01b038116610200850152506102008401516102208401528091505092915050565b600181811c9082168061177b57607f821691505b60208210810361179b57634e487b7160e01b600052602260045260246000fd5b50919050565b634e487b7160e01b600052601160045260246000fd5b8082028115828204841417610e6257610e626117a1565b634e487b7160e01b600052600160045260246000fd5b61ffff8281168282160390811115610e6257610e626117a1565b634e487b7160e01b600052604160045260246000fd5b634e487b7160e01b600052603260045260246000fd5b60006001820161183c5761183c6117a1565b506001019056fea2646970667358221220bcbd03f87373dc45fa03763730aa7ea81e57f25578270f2ad35f74473b72f27664736f6c634300081b0033",
  "linkReferences": {},
  "deployedLinkReferences": {}
}