{
  "_format": "hh-sol-artifact-1",
  "contractName": "LiquidationFacet",
  "sourceName": "contracts/assetManager/facets/LiquidationFacet.sol",
  "abi": [
    {
      "inputs": [],
      "name": "CannotStopLiquidation",
      "type": "error"
    },
    {
      "inputs": [],
      "name": "DivisionByZero",
      "type": "error"
    },
    {
      "inputs": [],
      "name": "EmergencyPauseActive",
      "type": "error"
    },
    {
      "inputs": [],
      "name": "InvalidAgentVaultAddress",
      "type": "error"
    },
    {
      "inputs": [
        {
          "internalType": "enum AgentInfo.Status",
          "name": "status",
          "type": "uint8"
        }
      ],
      "name": "LiquidationNotPossible",
      "type": "error"
    },
    {
      "inputs": [],
      "name": "LiquidationNotStarted",
      "type": "error"
    },
    {
      "inputs": [],
      "name": "NotAttached",
      "type": "error"
    },
    {
      "inputs": [],
      "name": "NotInLiquidation",
      "type": "error"
    },
    {
      "inputs": [],
      "name": "OnlyAssetManagerController",
      "type": "error"
    },
    {
      "inputs": [],
      "name": "OnlyImmediateGovernanceOrExecutor",
      "type": "error"
    },
    {
      "inputs": [],
      "name": "ReentrancyGuardReentrantCall",
      "type": "error"
    },
    {
      "inputs": [],
      "name": "ZeroPrice",
      "type": "error"
    },
    {
      "anonymous": false,
      "inputs": [
        {
          "indexed": true,
          "internalType": "address",
          "name": "agentVault",
          "type": "address"
        },
        {
          "indexed": false,
          "internalType": "uint256",
          "name": "dustUBA",
          "type": "uint256"
        }
      ],
      "name": "DustChanged",
      "type": "event"
    },
    {
      "anonymous": false,
      "inputs": [
        {
          "indexed": true,
          "internalType": "address",
          "name": "agentVault",
          "type": "address"
        }
      ],
      "name": "LiquidationEnded",
      "type": "event"
    },
    {
      "anonymous": false,
      "inputs": [
        {
          "indexed": true,
          "internalType": "address",
          "name": "agentVault",
          "type": "address"
        },
        {
          "indexed": true,
          "internalType": "address",
          "name": "liquidator",
          "type": "address"
        },
        {
          "indexed": false,
          "internalType": "uint256",
          "name": "valueUBA",
          "type": "uint256"
        },
        {
          "indexed": false,
          "internalType": "uint256",
          "name": "paidVaultCollateralWei",
          "type": "uint256"
        },
        {
          "indexed": false,
          "internalType": "uint256",
          "name": "paidPoolCollateralWei",
          "type": "uint256"
        }
      ],
      "name": "LiquidationPerformed",
      "type": "event"
    },
    {
      "anonymous": false,
      "inputs": [
        {
          "indexed": true,
          "internalType": "address",
          "name": "agentVault",
          "type": "address"
        },
        {
          "indexed": false,
          "internalType": "uint256",
          "name": "timestamp",
          "type": "uint256"
        }
      ],
      "name": "LiquidationStarted",
      "type": "event"
    },
    {
      "anonymous": false,
      "inputs": [
        {
          "indexed": true,
          "internalType": "address",
          "name": "agentVault",
          "type": "address"
        },
        {
          "indexed": true,
          "internalType": "uint256",
          "name": "redemptionTicketId",
          "type": "uint256"
        }
      ],
      "name": "RedemptionTicketDeleted",
      "type": "event"
    },
    {
      "anonymous": false,
      "inputs": [
        {
          "indexed": true,
          "internalType": "address",
          "name": "agentVault",
          "type": "address"
        },
        {
          "indexed": true,
          "internalType": "uint256",
          "name": "redemptionTicketId",
          "type": "uint256"
        },
        {
          "indexed": false,
          "internalType": "uint256",
          "name": "ticketValueUBA",
          "type": "uint256"
        }
      ],
      "name": "RedemptionTicketUpdated",
      "type": "event"
    },
    {
      "inputs": [
        {
          "internalType": "address",
          "name": "_agentVault",
          "type": "address"
        }
      ],
      "name": "endLiquidation",
      "outputs": [],
      "stateMutability": "nonpayable",
      "type": "function"
    },
    {
      "inputs": [
        {
          "internalType": "address",
          "name": "_agentVault",
          "type": "address"
        },
        {
          "internalType": "uint256",
          "name": "_amountUBA",
          "type": "uint256"
        }
      ],
      "name": "liquidate",
      "outputs": [
        {
          "internalType": "uint256",
          "name": "_liquidatedAmountUBA",
          "type": "uint256"
        },
        {
          "internalType": "uint256",
          "name": "_amountPaidVault",
          "type": "uint256"
        },
        {
          "internalType": "uint256",
          "name": "_amountPaidPool",
          "type": "uint256"
        }
      ],
      "stateMutability": "nonpayable",
      "type": "function"
    },
    {
      "inputs": [
        {
          "internalType": "address",
          "name": "_agentVault",
          "type": "address"
        }
      ],
      "name": "startLiquidation",
      "outputs": [
        {
          "internalType": "uint256",
          "name": "_liquidationStartTs",
          "type": "uint256"
        }
      ],
      "stateMutability": "nonpayable",
      "type": "function"
    }
  ],
  "bytecode": "0x6080604052348015600f57600080fd5b506129d18061001f6000396000f3fe608060405234801561001057600080fd5b50600436106100415760003560e01c8063b7f658ab14610046578063bcbaf4871461005b578063e1c501001461008e575b600080fd5b610059610054366004612585565b6100af565b005b61006e6100693660046125a0565b61012b565b604080519384526020840192909252908201526060015b60405180910390f35b6100a161009c366004612585565b610280565b604051908152602001610085565b6100b9600261030e565b6100c1610361565b60006100cc82610399565b90506100d781610434565b6001600482015460ff1660058111156100f2576100f26125ca565b146101105760405163560aa5bb60e11b815260040160405180910390fd5b50610128600160008051602061297c83398151915255565b50565b600080600061013a600161030e565b610142610361565b600061014d86610399565b9050600061015a826104e9565b90506000610168838361055d565b9050806101885760405163e1fa098d60e01b815260040160405180910390fd5b6101928383610738565b5060008060006101ab86866101a68d6107c8565b610827565b9250925092506101ba836108ee565b985081156101d0576101cd863384610941565b97505b80156101f45760006101e28783610a4b565b90506101f087338484610ac0565b9750505b881561025357610204338a610bcb565b604080518a8152602081018a905290810188905233906001600160a01b038d16907f4427e2d198cce01c31bf025614c1ba605936f2198edb532627be228afedb19f79060600160405180910390a35b61025c86610434565b505050505050610279600160008051602061297c83398151915255565b9250925092565b600061028c600161030e565b610294610361565b600061029f83610399565b905060006102ac826104e9565b905060006102ba838361055d565b9050806102da576040516330e2d39160e21b815260040160405180910390fd5b505060040154600160a81b90046001600160401b03169050610309600160008051602061297c83398151915255565b919050565b6000816003811115610322576103226125ca565b61032a610c5e565b600381111561033b5761033b6125ca565b108015915061035d5760405163909b191760e01b815260040160405180910390fd5b5050565b60008051602061297c83398151915280546001190161039357604051633ee5aeb560e01b815260040160405180910390fd5b60029055565b604081901b68010000000000000000600160e01b03167f5bebac0595fee029d42bb673937f5f1cb81cf8641382bc17774635de9b7d79651860048101546000919060ff16828160058111156103f0576103f06125ca565b141580156104105750600581600581111561040d5761040d6125ca565b14155b61042d5760405163d68a46c560e01b815260040160405180910390fd5b5092915050565b6002600482015460ff16600581111561044f5761044f6125ca565b146104575750565b6000610462826104e9565b905060006104708383610738565b905080156104e4576004830180547fff00ff0000000000000000ffffffffffffffffffffffffffffffffffffffff001660011790556104ae83610caf565b6001600160a01b03167fe513b42585b0ceec0d56d56fe3a23861c15a2f74eb4c32c94334d63d68ff4dcf60405160405180910390a25b505050565b6105146040518060800160405280600081526020016000815260200160008152602001600081525090565b600080610522846000610cd7565b91509150600080610534866001610cd7565b604080516080810182529687526020870192909252908501939093525050606082015292915050565b600482015460009060ff16600381600581111561057c5761057c6125ca565b0361058b576001915050610732565b600281600581111561059f5761059f6125ca565b036105ad57600191506105f2565b60018160058111156105c1576105c16125ca565b146105f2576105cf84610d32565b60405163302036e560e21b81526004016105e991906125e0565b60405180910390fd5b8251600485015460009161060e91610100900461ffff16610df5565b9050801561063a5760048501805460ff60f01b1981166001600160f01b9283900460ff16179091021790555b6020840151600486015460009161065b916301000000900461ffff16610df5565b905080156106875760048601805460ff60f01b1981166002600160f01b9283900460ff16179091021790555b83158015610699575081806106995750805b1561072e5760048601805460ff19166002179055600193506106ba42610e45565b8660040160156101000a8154816001600160401b0302191690836001600160401b031602179055506106eb86610caf565b6001600160a01b03167fee549a858daf6f6ccedae61597c3ece62a808677387a36146cf61363507679754260405161072591815260200190565b60405180910390a25b5050505b92915050565b600080610746846000610eb1565b90506000610755856001610eb1565b845190915082118015906107845760048601805460ff60f01b198116600160f01b9182900460fe169091021790555b602085015182118015906107b35760048701805460ff60f01b198116600160f01b9182900460fd169091021790555b8180156107bd5750805b979650505050505050565b7f4f24f5c433db0962dac0d2c8b84197a6e6c7cc4e5d9ebe1916a1b6193da2f3465460009060008051602061293c833981519152906108209061081b90600160901b90046001600160401b031685612634565b610e45565b9392505050565b60008060008060006108428888600001518960200151610ef7565b91509150600061087261085c8a8a60000151866000610fa8565b61086d8b8b60200151866001610fa8565b611081565b9050600061088c61081b838a6001600160401b0316611097565b905061089a8a8260016110a6565b5096506108bd6108b36001600160401b03891686611285565b8a60400151611294565b95506108df6108d56001600160401b03891685611285565b8a60600151611294565b94505050505093509350939050565b7f4f24f5c433db0962dac0d2c8b84197a6e6c7cc4e5d9ebe1916a1b6193da2f3465460009060008051602061293c8339815191529061082090600160901b90046001600160401b03908116908516612648565b60008061094d856112ae565b9050600061095a86610caf565b82546040516370a0823160e01b81526001600160a01b0380841660048301529293506109d392879216906370a0823190602401602060405180830381865afa1580156109aa573d6000803e3d6000fd5b505050506040513d601f19601f820116820180604052508101906109ce919061265f565b611097565b825460405163083e007560e21b81526001600160a01b0391821660048201528782166024820152604481018390529194508216906320f801d490606401600060405180830381600087803b158015610a2a57600080fd5b505af1158015610a3e573d6000803e3d6000fd5b5050505050509392505050565b60006003600484015460ff166005811115610a6857610a686125ca565b1480610a8257506004830154600160f01b900460ff166001145b15610a8e575080610732565b6004830154600119600160f01b90910460ff1601610aae57506000610732565b610ab9600283612634565b9050610732565b6000808560000160009054906101000a90046001600160a01b03166001600160a01b0316634ac8eb5f6040518163ffffffff1660e01b8152600401602060405180830381865afa158015610b18573d6000803e3d6000fd5b505050506040513d601f19601f82011682018060405250810190610b3c919061265f565b9050610b488482611097565b9150610b548383611097565b865460405163adf58c1560e01b81526001600160a01b038881166004830152602482018690526044820184905292955091169063adf58c1590606401600060405180830381600087803b158015610baa57600080fd5b505af1158015610bbe573d6000803e3d6000fd5b5050505050949350505050565b7f4f24f5c433db0962dac0d2c8b84197a6e6c7cc4e5d9ebe1916a1b6193da2f33b546001600160a01b0316604051632770a7eb60e21b81526001600160a01b038481166004830152602482018490529190911690639dc29fac90604401600060405180830381600087803b158015610c4257600080fd5b505af1158015610c56573d6000803e3d6000fd5b505050505050565b600080610c696112fb565b90506000610c75611363565b9050816003811115610c8957610c896125ca565b816003811115610c9b57610c9b6125ca565b11610ca65781610ca8565b805b9250505090565b7f5bebac0595fee029d42bb673937f5f1cb81cf8641382bc17774635de9b7d79651860401c90565b600080600080610ce786866113cb565b915091506000610cf783886114a9565b90506000610d0583896114a9565b9050610d1984604001518460400151611097565b9450610d258282611081565b9550505050509250929050565b600481015460009060ff166001816005811115610d5157610d516125ca565b03610d5f5750600092915050565b6002816005811115610d7357610d736125ca565b03610d815750600192915050565b6003816005811115610d9557610d956125ca565b03610da35750600292915050565b6004816005811115610db757610db76125ca565b03610dc55750600392915050565b6005816005811115610dd957610dd96125ca565b14610de657610de6612678565b50600492915050565b50919050565b60008060008051602061295c83398151915290506000816000018481548110610e2057610e2061268e565b600091825260209091206004909102016003015463ffffffff16909410949350505050565b60006001600160401b03821115610ead5760405162461bcd60e51b815260206004820152602660248201527f53616665436173743a2076616c756520646f65736e27742066697420696e203660448201526534206269747360d01b60648201526084016105e9565b5090565b600080610ebe8484611500565b9050610eca84846115a5565b610edf576003015463ffffffff169050610732565b60030154600160401b900463ffffffff169050610732565b60008060008051602061293c83398151915281610f138761160e565b90506000826015018281548110610f2c57610f2c61268e565b90600052602060002001549050610f62836016018381548110610f5157610f5161268e565b906000526020600020015482611097565b945086851115610f70578694505b610f7a85826126a4565b935085841115610f9d57859350610f9a610f9485836126a4565b88611097565b94505b505050935093915050565b60006003600486015460ff166005811115610fc557610fc56125ca565b03610fe557506005840154600160401b90046001600160401b0316611079565b6000610ff18684610eb1565b9050848111611004576000915050611079565b8385116110275750506005840154600160401b90046001600160401b0316611079565b600061105161103687846126a4565b61104087856126a4565b61104a8a88611694565b9190611714565b6005880154909150611074908290600160401b90046001600160401b0316611097565b925050505b949350505050565b60008183116110905781610820565b5090919050565b60008183106110905781610820565b7f4f24f5c433db0962dac0d2c8b84197a6e6c7cc4e5d9ebe1916a1b6193da2f349547f4f24f5c433db0962dac0d2c8b84197a6e6c7cc4e5d9ebe1916a1b6193da2f34754600091829160008051602061295c83398151915291600160801b900461ffff16906001600160401b0316835b82811080156111365750876001600160401b0316866001600160401b0316105b15611214576000600885018161114b8c610caf565b6001600160a01b0316815260208101919091526040016000908120546001600160401b0316915081900361117f5750611214565b6001600160401b038181166000908152600787016020526040812060068d0154815491936111b89291811691600160a01b9004166126b7565b90506111c485826126d6565b6111ce9082612704565b905060006111e56111df8b8e612704565b83611743565b90506111f18482611765565b6111fb818b6126b7565b995050505050808061120c90612723565b915050611116565b506000611237611224878a612704565b60068b01546001600160401b0316611743565b90506001600160401b0381161561125e5761125281876126b7565b955061125e8982611950565b861561126e5761126e8987611978565b611277866108ee565b945050505050935093915050565b600061082083836127106119c4565b6000610820826112a66009600a612823565b859190611aae565b60008060008051602061295c83398151915260048401548154919250829161010090910461ffff169081106112e5576112e561268e565b9060005260206000209060040201915050919050565b7fec7e8c1c441439dd40959777f4c577ea0cd42fcc1dbe59d2bd0f5d9c55df8dc65460009060008051602061295c8339815191529042600160401b9091046001600160401b0316118061134f576000610ca8565b5060110154600160901b900460ff16919050565b7fec7e8c1c441439dd40959777f4c577ea0cd42fcc1dbe59d2bd0f5d9c55df8dc75460009060008051602061295c8339815191529042600160a01b9091046001600160401b031611806113b7576000610ca8565b5060110154600160981b900460ff16919050565b6113f06040805160608101909152806000815260200160008152602001600081525090565b6114156040805160608101909152806000815260200160008152602001600081525090565b60006114218585611500565b90506000611430868684611adb565b905060008061143e84611bc7565b91509150604051806060016040528088600281111561145f5761145f6125ca565b8152602001848152602001838152509550604051806060016040528088600281111561148d5761148d6125ca565b8152602001848152602001828152509450505050509250929050565b6000806114ba838560000151611694565b905060006114cc828660400151611294565b9050806000036114e5576402540be40092505050610732565b60208501516114f79061271083611aae565b95945050505050565b60006002826002811115611516576115166125ca565b0361152357611523612678565b60008051602061295c8339815191526000836002811115611546576115466125ca565b0361158257600484015481548291610100900461ffff1690811061156c5761156c61268e565b9060005260206000209060040201915050610732565b6004840154815482916301000000900461ffff1690811061156c5761156c61268e565b6000808260028111156115ba576115ba6125ca565b036115d657506004820154600160f01b90046001161515610732565b60018260028111156115ea576115ea6125ca565b146115f7576115f7612678565b506004820154600160f01b90046002161515610732565b60048101547f4f24f5c433db0962dac0d2c8b84197a6e6c7cc4e5d9ebe1916a1b6193da2f34e5460009160008051602061293c833981519152916001600160401b03600160a81b909204821691849164010000000090041661167083426126a4565b61167a9190612634565b90506114f781600185601501805490506109ce91906126a4565b60008060018360028111156116ab576116ab6125ca565b146116ca576005840154600160801b90046001600160401b03166116e0565b6005840154600160c01b90046001600160401b03165b60058501546001600160401b039182169250829161170a9180821691600160401b9091041661282f565b611079919061282f565b6000808211611736576040516323d359a360e01b815260040160405180910390fd5b6110798484846001611c76565b6000816001600160401b0316836001600160401b031611156110905781610820565b6001600160401b03821660009081527fec7e8c1c441439dd40959777f4c577ea0cd42fcc1dbe59d2bd0f5d9c55df8dbd6020819052604082208054919290916117b6906001600160a01b0316610399565b7f4f24f5c433db0962dac0d2c8b84197a6e6c7cc4e5d9ebe1916a1b6193da2f34754600682015484549293506001600160401b039182169260009288926118099290821691600160a01b909104166126b7565b6118139190612704565b9050600061182183836126d6565b9050600061182f8284612704565b9050806001600160401b03166000036118995761184c878a611cd1565b886001600160401b031661185f86610caf565b6001600160a01b03167fb7f65e70a51658e24800516a5dc90e2dd65176e18381adda77f58e2044482b1960405160405180910390a361193b565b85546001600160401b03828116600160a01b909204161461193b57855467ffffffffffffffff60a01b1916600160a01b6001600160401b0383160217865560006118e2826108ee565b9050896001600160401b03166118f787610caf565b6001600160a01b03167f9d2e72c50be7927e999d37329649af37a863df77bcb25361699ce021d3d7475d8360405161193191815260200190565b60405180910390a3505b61194585836120ab565b505050505050505050565b600682015460009061196c9083906001600160401b0316612704565b90506104e483826120ab565b6005820154611998908290600160401b90046001600160401b0316612704565b8260050160086101000a8154816001600160401b0302191690836001600160401b031602179055505050565b60008080600019858709858702925082811083820303915050806000036119fe578382816119f4576119f4612608565b0492505050610820565b808411611a455760405162461bcd60e51b81526020600482015260156024820152744d6174683a206d756c446976206f766572666c6f7760581b60448201526064016105e9565b60008486880960026001871981018816978890046003810283188082028403028082028403028082028403028082028403028082028403029081029092039091026000889003889004909101858311909403939093029303949094049190911702949350505050565b6000808211611ad0576040516323d359a360e01b815260040160405180910390fd5b6110798484846119c4565b60006001836002811115611af157611af16125ca565b03611b6a57835460408051634ac8eb5f60e01b815290516001600160a01b0390921691634ac8eb5f916004808201926020929091908290030181865afa158015611b3f573d6000803e3d6000fd5b505050506040513d601f19601f82011682018060405250810190611b63919061265f565b9050610820565b81546001600160a01b03166370a08231611b8386610caf565b6040516001600160e01b031960e084901b1681526001600160a01b039091166004820152602401602060405180830381865afa158015611b3f573d6000803e3d6000fd5b60008060008051602061293c833981519152818080611be68782612141565b9250925092506000806000611bfc8a6001612141565b60108a015492955090935091506000908590611c2890600160c01b90046001600160401b03168461282f565b10158015611c55575060108801548690611c5290600160c01b90046001600160401b03168561282f565b10155b905086995080611c655786611c67565b835b98505050505050505050915091565b600080611c848686866119c4565b90506001836002811115611c9a57611c9a6125ca565b148015611cb7575060008480611cb257611cb2612608565b868809115b156114f757611cc760018261282f565b9695505050505050565b6001600160401b038116600090815260208390526040902080546001600160a01b0316611d0057611d00612678565b80546001600160a01b031660009081526001808501602052604082209083015490916001600160401b039091169003611d865760028401546001600160401b03848116911614611d5257611d52612678565b6001820154600285018054600160401b9092046001600160401b031667ffffffffffffffff19909216919091179055611dee565b60028401546001600160401b0390811690841603611da657611da6612678565b6001828101546001600160401b038082166000908152602088905260409020909201805467ffffffffffffffff60401b1916600160401b928390049093169091029190911790555b6001820154600160401b90046001600160401b0316600003611e655760028401546001600160401b03848116600160401b9092041614611e3057611e30612678565b600182015460028501805467ffffffffffffffff60401b19166001600160401b03909216600160401b02919091179055611ecd565b60028401546001600160401b03600160401b909104811690841603611e8c57611e8c612678565b600180830154600160401b81046001600160401b039081166000908152602088905260409020909201805467ffffffffffffffff1916929091169190911790555b6001820154600160801b90046001600160401b0316600003611f325780546001600160401b03848116911614611f0557611f05612678565b60018201548154600160c01b9091046001600160401b031667ffffffffffffffff19909116178155611f98565b80546001600160401b0390811690841603611f4f57611f4f612678565b6001828101546001600160401b03600160801b82048116600090815260208890526040902090920180546001600160c01b0316600160c01b928390049093169091029190911790555b6001820154600160c01b90046001600160401b031660000361200b5780546001600160401b03848116600160401b9092041614611fd757611fd7612678565b6001820154815467ffffffffffffffff60401b1916600160801b9091046001600160401b0316600160401b0217815561207d565b80546001600160401b03600160401b90910481169084160361202f5761202f612678565b6001828101546001600160401b03600160c01b820481166000908152602088905260409020909201805467ffffffffffffffff60801b1916600160801b928390049093169091029190911790555b50506001600160401b031660009081526020919091526040812080546001600160e01b031916815560010155565b60068201546001600160401b038083169116036120c6575050565b60068201805467ffffffffffffffff19166001600160401b03831617905560006120ef826108ee565b90506120fa83610caf565b6001600160a01b03167fa3db2bc927901a1d3ba09ad51d84609457b98443be9132a0a936a47c5a1081b58260405161213491815260200190565b60405180910390a2505050565b6000806000806000806121e088600101805461215c90612842565b80601f016020809104026020016040519081016040528092919081815260200182805461218890612842565b80156121d55780601f106121aa576101008083540402835291602001916121d5565b820191906000526020600020905b8154815290600101906020018083116121b857829003601f168201915b505050505088612380565b9250925092508680156121f1575081155b15612209576000806000955095509550505050610279565b8260000361222a57604051634dfba02360e01b815260040160405180910390fd5b8754600160f01b900460ff161561226957875460009061225890600160a81b900460ff1660018387866124e7565b965091945084935061027992505050565b60008060006123048b600201805461228090612842565b80601f01602080910402602001604051908101604052809291908181526020018280546122ac90612842565b80156122f95780601f106122ce576101008083540402835291602001916122f9565b820191906000526020600020905b8154815290600101906020018083116122dc57829003601f168201915b50505050508b612380565b925092509250898015612315575081155b15612330576000806000985098509850505050505050610279565b8260000361235157604051634dfba02360e01b815260040160405180910390fd5b8a5460009061236d90600160a81b900460ff1685848a896124e7565b9950949750909550610279945050505050565b7f4f24f5c433db0962dac0d2c8b84197a6e6c7cc4e5d9ebe1916a1b6193da2f344546000908190819060008051602061293c833981519152906001600160a01b0316851561246d57600080600080846001600160a01b031663e731a1bc8c6040518263ffffffff1660e01b81526004016123fa9190612876565b608060405180830381865afa158015612417573d6000803e3d6000fd5b505050506040513d601f19601f8201168201806040525081019061243b91906128c4565b60ff1693509350935093506000811161245857600080600061245c565b8383835b985098509850505050505050610279565b60405163524f388960e01b81526001600160a01b0382169063524f388990612499908a90600401612876565b606060405180830381865afa1580156124b6573d6000803e3d6000fd5b505050506040513d601f19601f820116820180604052508101906124da919061290d565b9450945094505050610279565b600060008051602061293c833981519152816009612505878a61282f565b61250f919061282f565b600a83015490915060009061252f908690600160a81b900460ff1661282f565b90508082101561254157612541612678565b61256161254e82846126a4565b61255990600a612823565b87908a611aae565b9998505050505050505050565b80356001600160a01b038116811461030957600080fd5b60006020828403121561259757600080fd5b6108208261256e565b600080604083850312156125b357600080fd5b6125bc8361256e565b946020939093013593505050565b634e487b7160e01b600052602160045260246000fd5b602081016005831061260257634e487b7160e01b600052602160045260246000fd5b91905290565b634e487b7160e01b600052601260045260246000fd5b634e487b7160e01b600052601160045260246000fd5b60008261264357612643612608565b500490565b80820281158282048414176107325761073261261e565b60006020828403121561267157600080fd5b5051919050565b634e487b7160e01b600052600160045260246000fd5b634e487b7160e01b600052603260045260246000fd5b818103818111156107325761073261261e565b6001600160401b0381811683821601908111156107325761073261261e565b60006001600160401b038316806126ef576126ef612608565b806001600160401b0384160691505092915050565b6001600160401b0382811682821603908111156107325761073261261e565b6000600182016127355761273561261e565b5060010190565b6001815b60018411156127775780850481111561275b5761275b61261e565b600184161561276957908102905b60019390931c928002612740565b935093915050565b60008261278e57506001610732565b8161279b57506000610732565b81600181146127b157600281146127bb576127d7565b6001915050610732565b60ff8411156127cc576127cc61261e565b50506001821b610732565b5060208310610133831016604e8410600b84101617156127fa575081810a610732565b612807600019848461273c565b806000190482111561281b5761281b61261e565b029392505050565b6000610820838361277f565b808201808211156107325761073261261e565b600181811c9082168061285657607f821691505b602082108103610def57634e487b7160e01b600052602260045260246000fd5b602081526000825180602084015260005b818110156128a45760208186018101516040868401015201612887565b506000604082850101526040601f19601f83011684010191505092915050565b600080600080608085870312156128da57600080fd5b8451602086015160408701516060880151929650909450925060ff8116811461290257600080fd5b939692955090935050565b60008060006060848603121561292257600080fd5b505081516020830151604090930151909492935091905056fe4f24f5c433db0962dac0d2c8b84197a6e6c7cc4e5d9ebe1916a1b6193da2f33aec7e8c1c441439dd40959777f4c577ea0cd42fcc1dbe59d2bd0f5d9c55df8db60cd2207518cd3e5213e2c6dbe63d55b60aa893c194a427b7d7f1600408fd5bdea264697066735822122004eaafdee2e7d54674d72cf250e15054714ef867fd85bcc6de1cb08992d5e2f264736f6c634300081b0033",
  "linkReferences": {},
  "deployedLinkReferences": {}
}