{
  "_format": "hh-sol-artifact-1",
  "contractName": "AgentAlwaysAllowedMintersFacet",
  "sourceName": "contracts/assetManager/facets/AgentAlwaysAllowedMintersFacet.sol",
  "abi": [
    {
      "inputs": [],
      "name": "EmergencyPauseActive",
      "type": "error"
    },
    {
      "inputs": [],
      "name": "InvalidAgentVaultAddress",
      "type": "error"
    },
    {
      "inputs": [],
      "name": "NotAttached",
      "type": "error"
    },
    {
      "inputs": [],
      "name": "OnlyAgentVaultOwner",
      "type": "error"
    },
    {
      "inputs": [],
      "name": "OnlyAssetManagerController",
      "type": "error"
    },
    {
      "inputs": [],
      "name": "OnlyImmediateGovernanceOrExecutor",
      "type": "error"
    },
    {
      "inputs": [
        {
          "internalType": "address",
          "name": "_agentVault",
          "type": "address"
        },
        {
          "internalType": "address",
          "name": "_minter",
          "type": "address"
        }
      ],
      "name": "addAlwaysAllowedMinterForAgent",
      "outputs": [],
      "stateMutability": "nonpayable",
      "type": "function"
    },
    {
      "inputs": [
        {
          "internalType": "address",
          "name": "_agentVault",
          "type": "address"
        }
      ],
      "name": "alwaysAllowedMintersForAgent",
      "outputs": [
        {
          "internalType": "address[]",
          "name": "",
          "type": "address[]"
        }
      ],
      "stateMutability": "view",
      "type": "function"
    },
    {
      "inputs": [
        {
          "internalType": "address",
          "name": "_agentVault",
          "type": "address"
        },
        {
          "internalType": "address",
          "name": "_minter",
          "type": "address"
        }
      ],
      "name": "removeAlwaysAllowedMinterForAgent",
      "outputs": [],
      "stateMutability": "nonpayable",
      "type": "function"
    }
  ],
  "bytecode": "0x6080604052348015600f57600080fd5b506106158061001f6000396000f3fe608060405234801561001057600080fd5b50600436106100415760003560e01c80630873975314610046578063b291dde81461005b578063bc7f75fd14610084575b600080fd5b6100596100543660046104bd565b610097565b005b61006e6100693660046104f6565b6100c2565b60405161007b9190610513565b60405180910390f35b6100596100923660046104bd565b6100e4565b816100a181610108565b60006100ac8461013a565b90506100bb600d8201846101d5565b5050505050565b606060006100cf8361013a565b90506100dd81600d016101f3565b9392505050565b816100ee81610108565b60006100f98461013a565b90506100bb600d820184610200565b61011a6101148261013a565b33610215565b6101375760405163f6e2f99b60e01b815260040160405180910390fd5b50565b604081901b68010000000000000000600160e01b03167f5bebac0595fee029d42bb673937f5f1cb81cf8641382bc17774635de9b7d79651860048101546000919060ff16828160058111156101915761019161055f565b141580156101b1575060058160058111156101ae576101ae61055f565b14155b6101ce5760405163d68a46c560e01b815260040160405180910390fd5b5092915050565b60006101ea836001600160a01b038416610268565b90505b92915050565b606060006100dd836102b7565b60006101ea836001600160a01b038416610313565b60006001600160a01b038216158015906101ea575060018301546001600160a01b03838116911614806101ea575061024c83610406565b6001600160a01b0316826001600160a01b031614905092915050565b60008181526001830160205260408120546102af575081546001818101845560008481526020808220909301849055845484825282860190935260409020919091556101ed565b5060006101ed565b60608160000180548060200260200160405190810160405280929190818152602001828054801561030757602002820191906000526020600020905b8154815260200190600101908083116102f3575b50505050509050919050565b600081815260018301602052604081205480156103fc576000610337600183610575565b855490915060009061034b90600190610575565b90508181146103b057600086600001828154811061036b5761036b610596565b906000526020600020015490508087600001848154811061038e5761038e610596565b6000918252602080832090910192909255918252600188019052604090208390555b85548690806103c1576103c16105ac565b6001900381819060005260206000200160009055905585600101600086815260200190815260200160002060009055600193505050506101ed565b60009150506101ed565b60006104397f4f24f5c433db0962dac0d2c8b84197a6e6c7cc4e5d9ebe1916a1b6193da2f341546001600160a01b031690565b6001830154604051631f86345d60e31b81526001600160a01b03918216600482015291169063fc31a2e890602401602060405180830381865afa158015610484573d6000803e3d6000fd5b505050506040513d601f19601f820116820180604052508101906101ed91906105c2565b6001600160a01b038116811461013757600080fd5b600080604083850312156104d057600080fd5b82356104db816104a8565b915060208301356104eb816104a8565b809150509250929050565b60006020828403121561050857600080fd5b81356100dd816104a8565b602080825282518282018190526000918401906040840190835b818110156105545783516001600160a01b031683526020938401939092019160010161052d565b509095945050505050565b634e487b7160e01b600052602160045260246000fd5b818103818111156101ed57634e487b7160e01b600052601160045260246000fd5b634e487b7160e01b600052603260045260246000fd5b634e487b7160e01b600052603160045260246000fd5b6000602082840312156105d457600080fd5b81516100dd816104a856fea2646970667358221220ddc0fa186dc5be95823e6a470428a4330449d94c0a35acd7ea68b8b03d65bda364736f6c634300081b0033",
  "linkReferences": {},
  "deployedLinkReferences": {}
}