{
  "_format": "hh-sol-artifact-1",
  "contractName": "AgentVaultAndPoolSupportFacet",
  "sourceName": "contracts/assetManager/facets/AgentVaultAndPoolSupportFacet.sol",
  "abi": [
    {
      "inputs": [],
      "name": "DivisionByZero",
      "type": "error"
    },
    {
      "inputs": [],
      "name": "EmergencyPauseActive",
      "type": "error"
    },
    {
      "inputs": [],
      "name": "InvalidAgentVaultAddress",
      "type": "error"
    },
    {
      "inputs": [],
      "name": "NotAttached",
      "type": "error"
    },
    {
      "inputs": [],
      "name": "OnlyAssetManagerController",
      "type": "error"
    },
    {
      "inputs": [],
      "name": "OnlyImmediateGovernanceOrExecutor",
      "type": "error"
    },
    {
      "inputs": [],
      "name": "ZeroPrice",
      "type": "error"
    },
    {
      "inputs": [],
      "name": "assetPriceNatWei",
      "outputs": [
        {
          "internalType": "uint256",
          "name": "_multiplier",
          "type": "uint256"
        },
        {
          "internalType": "uint256",
          "name": "_divisor",
          "type": "uint256"
        }
      ],
      "stateMutability": "view",
      "type": "function"
    },
    {
      "inputs": [
        {
          "internalType": "address",
          "name": "_agentVault",
          "type": "address"
        }
      ],
      "name": "getFAssetsBackedByPool",
      "outputs": [
        {
          "internalType": "uint256",
          "name": "",
          "type": "uint256"
        }
      ],
      "stateMutability": "view",
      "type": "function"
    },
    {
      "inputs": [],
      "name": "getWNat",
      "outputs": [
        {
          "internalType": "contract IWNat",
          "name": "",
          "type": "address"
        }
      ],
      "stateMutability": "view",
      "type": "function"
    },
    {
      "inputs": [
        {
          "internalType": "address",
          "name": "_managementAddress",
          "type": "address"
        }
      ],
      "name": "getWorkAddress",
      "outputs": [
        {
          "internalType": "address",
          "name": "",
          "type": "address"
        }
      ],
      "stateMutability": "view",
      "type": "function"
    },
    {
      "inputs": [
        {
          "internalType": "address",
          "name": "_agentVault",
          "type": "address"
        },
        {
          "internalType": "address",
          "name": "_address",
          "type": "address"
        }
      ],
      "name": "isAgentVaultOwner",
      "outputs": [
        {
          "internalType": "bool",
          "name": "",
          "type": "bool"
        }
      ],
      "stateMutability": "view",
      "type": "function"
    },
    {
      "inputs": [
        {
          "internalType": "address",
          "name": "_agentVault",
          "type": "address"
        },
        {
          "internalType": "contract IERC20",
          "name": "_token",
          "type": "address"
        }
      ],
      "name": "isLockedVaultToken",
      "outputs": [
        {
          "internalType": "bool",
          "name": "",
          "type": "bool"
        }
      ],
      "stateMutability": "view",
      "type": "function"
    },
    {
      "inputs": [
        {
          "internalType": "contract IERC20",
          "name": "_token",
          "type": "address"
        }
      ],
      "name": "isVaultCollateralToken",
      "outputs": [
        {
          "internalType": "bool",
          "name": "",
          "type": "bool"
        }
      ],
      "stateMutability": "view",
      "type": "function"
    }
  ],
  "bytecode": "0x6080604052348015600f57600080fd5b5061104b8061001f6000396000f3fe608060405234801561001057600080fd5b506004361061007d5760003560e01c8063b5a488a61161005b578063b5a488a6146100da578063d6b93a9f146100fa578063ed3762aa1461010d578063fc31a2e81461012e57600080fd5b806302312aec1461008257806339c045df146100a4578063700104f7146100c7575b600080fd5b61008a610141565b604080519283526020830191909152015b60405180910390f35b6100b76100b2366004610ca5565b610199565b604051901515815260200161009b565b6100b76100d5366004610cc2565b6101ac565b6100e2610267565b6040516001600160a01b03909116815260200161009b565b6100b7610108366004610cc2565b610276565b61012061011b366004610ca5565b61028e565b60405190815260200161009b565b6100e261013c366004610ca5565b6102e8565b600080600080516020610fd683398151915261016361015e610388565b6103e9565b600c820154909350600160901b900467ffffffffffffffff166101886009600a610df8565b6101929190610e04565b9150509091565b60006101a66002836103ff565b92915050565b6000806101b884610459565b90506101c3816104c8565b6001600160a01b0316836001600160a01b0316148061025f57508054604080516332f7ce0b60e21b815290516001600160a01b039092169163cbdf382c916004808201926020929091908290030181865afa158015610226573d6000803e3d6000fd5b505050506040513d601f19601f8201168201806040525081019061024a9190610e1b565b6001600160a01b0316836001600160a01b0316145b949350505050565b6000610271610520565b905090565b6000806102828461058d565b905061025f81846105d4565b60008061029a83610459565b60058101549091506102e19067ffffffffffffffff600160c01b82048116916102d29168010000000000000000820481169116610e38565b6102dc9190610e38565b610626565b9392505050565b600061031b7f4f24f5c433db0962dac0d2c8b84197a6e6c7cc4e5d9ebe1916a1b6193da2f341546001600160a01b031690565b604051631f86345d60e31b81526001600160a01b038481166004830152919091169063fc31a2e8906024015b602060405180830381865afa158015610364573d6000803e3d6000fd5b505050506040513d601f19601f820116820180604052508101906101a69190610e1b565b7fec7e8c1c441439dd40959777f4c577ea0cd42fcc1dbe59d2bd0f5d9c55df8dc554600080516020610ff68339815191528054600092829161ffff9091169081106103d5576103d5610e58565b906000526020600020906004020191505090565b60006103f682600061067a565b50909392505050565b6000600080516020610ff6833981519152817fec7e8c1c441439dd40959777f4c577ea0cd42fcc1dbe59d2bd0f5d9c55df8db78161043d87876108c0565b8152602081019190915260400160002054151595945050505050565b600080610465836108ea565b600481015490915060ff16600081600581111561048457610484610e6e565b141580156104a4575060058160058111156104a1576104a1610e6e565b14155b6104c15760405163d68a46c560e01b815260040160405180910390fd5b5092915050565b600080600080516020610ff683398151915260048401548154919250829161010090910461ffff169081106104ff576104ff610e58565b60009182526020909120600490910201546001600160a01b03169392505050565b7fec7e8c1c441439dd40959777f4c577ea0cd42fcc1dbe59d2bd0f5d9c55df8dc554600080516020610ff68339815191528054600092829161ffff90911690811061056d5761056d610e58565b60009182526020909120600490910201546001600160a01b031692915050565b600080610599836108ea565b90506000600482015460ff1660058111156105b6576105b6610e6e565b036101a65760405163d68a46c560e01b815260040160405180910390fd5b60006001600160a01b038216158015906102e1575060018301546001600160a01b03838116911614806102e1575061060b83610923565b6001600160a01b0316826001600160a01b0316149392505050565b7f4f24f5c433db0962dac0d2c8b84197a6e6c7cc4e5d9ebe1916a1b6193da2f34654600090600080516020610fd6833981519152906102e190600160901b900467ffffffffffffffff908116908516610e04565b60008060008060008061071988600101805461069590610e84565b80601f01602080910402602001604051908101604052809291908181526020018280546106c190610e84565b801561070e5780601f106106e35761010080835404028352916020019161070e565b820191906000526020600020905b8154815290600101906020018083116106f157829003601f168201915b505050505088610989565b92509250925086801561072a575081155b156107425760008060009550955095505050506108b9565b8260000361076357604051634dfba02360e01b815260040160405180910390fd5b8754600160f01b900460ff16156107a257875460009061079190600160a81b900460ff166001838786610af0565b96509194508493506108b992505050565b600080600061083d8b60020180546107b990610e84565b80601f01602080910402602001604051908101604052809291908181526020018280546107e590610e84565b80156108325780601f1061080757610100808354040283529160200191610832565b820191906000526020600020905b81548152906001019060200180831161081557829003601f168201915b50505050508b610989565b92509250925089801561084e575081155b156108695760008060009850985098505050505050506108b9565b8260000361088a57604051634dfba02360e01b815260040160405180910390fd5b8a546000906108a690600160a81b900460ff1685848a89610af0565b99509497509095506108b9945050505050565b9250925092565b6000816001600160a01b031660a08460028111156108e0576108e0610e6e565b901b179392505050565b60401b68010000000000000000600160e01b03167f5bebac0595fee029d42bb673937f5f1cb81cf8641382bc17774635de9b7d79651890565b60006109567f4f24f5c433db0962dac0d2c8b84197a6e6c7cc4e5d9ebe1916a1b6193da2f341546001600160a01b031690565b6001830154604051631f86345d60e31b81526001600160a01b03918216600482015291169063fc31a2e890602401610347565b7f4f24f5c433db0962dac0d2c8b84197a6e6c7cc4e5d9ebe1916a1b6193da2f3445460009081908190600080516020610fd6833981519152906001600160a01b03168515610a7657600080600080846001600160a01b031663e731a1bc8c6040518263ffffffff1660e01b8152600401610a039190610ebe565b608060405180830381865afa158015610a20573d6000803e3d6000fd5b505050506040513d601f19601f82011682018060405250810190610a449190610f0c565b60ff16935093509350935060008111610a61576000806000610a65565b8383835b9850985098505050505050506108b9565b60405163524f388960e01b81526001600160a01b0382169063524f388990610aa2908a90600401610ebe565b606060405180830381865afa158015610abf573d6000803e3d6000fd5b505050506040513d601f19601f82011682018060405250810190610ae39190610f55565b94509450945050506108b9565b6000600080516020610fd6833981519152816009610b0e878a610f83565b610b189190610f83565b600a830154909150600090610b38908690600160a81b900460ff16610f83565b905080821015610b4a57610b4a610f96565b610b6a610b578284610fac565b610b6290600a610df8565b87908a610b77565b9998505050505050505050565b6000808211610b99576040516323d359a360e01b815260040160405180910390fd5b61025f8484846000808060001985870985870292508281108382030391505080600003610bd957838281610bcf57610bcf610fbf565b04925050506102e1565b808411610c245760405162461bcd60e51b81526020600482015260156024820152744d6174683a206d756c446976206f766572666c6f7760581b604482015260640160405180910390fd5b60008486880960026001871981018816978890046003810283188082028403028082028403028082028403028082028403028082028403029081029092039091026000889003889004909101858311909403939093029303949094049190911702949350505050565b6001600160a01b0381168114610ca257600080fd5b50565b600060208284031215610cb757600080fd5b81356102e181610c8d565b60008060408385031215610cd557600080fd5b8235610ce081610c8d565b91506020830135610cf081610c8d565b809150509250929050565b634e487b7160e01b600052601160045260246000fd5b6001815b6001841115610d4c57808504811115610d3057610d30610cfb565b6001841615610d3e57908102905b60019390931c928002610d15565b935093915050565b600082610d63575060016101a6565b81610d70575060006101a6565b8160018114610d865760028114610d9057610dac565b60019150506101a6565b60ff841115610da157610da1610cfb565b50506001821b6101a6565b5060208310610133831016604e8410600b8410161715610dcf575081810a6101a6565b610ddc6000198484610d11565b8060001904821115610df057610df0610cfb565b029392505050565b60006102e18383610d54565b80820281158282048414176101a6576101a6610cfb565b600060208284031215610e2d57600080fd5b81516102e181610c8d565b67ffffffffffffffff81811683821601908111156101a6576101a6610cfb565b634e487b7160e01b600052603260045260246000fd5b634e487b7160e01b600052602160045260246000fd5b600181811c90821680610e9857607f821691505b602082108103610eb857634e487b7160e01b600052602260045260246000fd5b50919050565b602081526000825180602084015260005b81811015610eec5760208186018101516040868401015201610ecf565b506000604082850101526040601f19601f83011684010191505092915050565b60008060008060808587031215610f2257600080fd5b8451602086015160408701516060880151929650909450925060ff81168114610f4a57600080fd5b939692955090935050565b600080600060608486031215610f6a57600080fd5b5050815160208301516040909301519094929350919050565b808201808211156101a6576101a6610cfb565b634e487b7160e01b600052600160045260246000fd5b818103818111156101a6576101a6610cfb565b634e487b7160e01b600052601260045260246000fdfe4f24f5c433db0962dac0d2c8b84197a6e6c7cc4e5d9ebe1916a1b6193da2f33aec7e8c1c441439dd40959777f4c577ea0cd42fcc1dbe59d2bd0f5d9c55df8db6a2646970667358221220174baddf4af9a4ad17e713c8afa8d9d6ab577798e2b490a7c56acfaeefc88dec64736f6c634300081b0033",
  "linkReferences": {},
  "deployedLinkReferences": {}
}