{
  "_format": "hh-sol-artifact-1",
  "contractName": "CollateralReservationsFacet",
  "sourceName": "contracts/assetManager/facets/CollateralReservationsFacet.sol",
  "abi": [
    {
      "inputs": [],
      "name": "AgentNotInMintQueue",
      "type": "error"
    },
    {
      "inputs": [],
      "name": "AgentNotWhitelisted",
      "type": "error"
    },
    {
      "inputs": [],
      "name": "AgentsFeeTooHigh",
      "type": "error"
    },
    {
      "inputs": [],
      "name": "CannotMintZeroLots",
      "type": "error"
    },
    {
      "inputs": [],
      "name": "DivisionByZero",
      "type": "error"
    },
    {
      "inputs": [],
      "name": "EmergencyPauseActive",
      "type": "error"
    },
    {
      "inputs": [],
      "name": "InappropriateFeeAmount",
      "type": "error"
    },
    {
      "inputs": [],
      "name": "InvalidAgentStatus",
      "type": "error"
    },
    {
      "inputs": [],
      "name": "InvalidAgentVaultAddress",
      "type": "error"
    },
    {
      "inputs": [],
      "name": "MintingCapExceeded",
      "type": "error"
    },
    {
      "inputs": [],
      "name": "MintingPaused",
      "type": "error"
    },
    {
      "inputs": [],
      "name": "NotAttached",
      "type": "error"
    },
    {
      "inputs": [],
      "name": "NotEnoughFreeCollateral",
      "type": "error"
    },
    {
      "inputs": [],
      "name": "OnlyAssetManagerController",
      "type": "error"
    },
    {
      "inputs": [],
      "name": "OnlyImmediateGovernanceOrExecutor",
      "type": "error"
    },
    {
      "inputs": [],
      "name": "ReentrancyGuardReentrantCall",
      "type": "error"
    },
    {
      "inputs": [],
      "name": "ReentrancyGuardRequired",
      "type": "error"
    },
    {
      "inputs": [],
      "name": "TransferFailed",
      "type": "error"
    },
    {
      "inputs": [],
      "name": "ZeroPrice",
      "type": "error"
    },
    {
      "anonymous": false,
      "inputs": [
        {
          "indexed": true,
          "internalType": "address",
          "name": "agentVault",
          "type": "address"
        },
        {
          "indexed": true,
          "internalType": "address",
          "name": "minter",
          "type": "address"
        },
        {
          "indexed": true,
          "internalType": "uint256",
          "name": "collateralReservationId",
          "type": "uint256"
        },
        {
          "indexed": false,
          "internalType": "uint256",
          "name": "valueUBA",
          "type": "uint256"
        },
        {
          "indexed": false,
          "internalType": "uint256",
          "name": "feeUBA",
          "type": "uint256"
        },
        {
          "indexed": false,
          "internalType": "uint256",
          "name": "firstUnderlyingBlock",
          "type": "uint256"
        },
        {
          "indexed": false,
          "internalType": "uint256",
          "name": "lastUnderlyingBlock",
          "type": "uint256"
        },
        {
          "indexed": false,
          "internalType": "uint256",
          "name": "lastUnderlyingTimestamp",
          "type": "uint256"
        },
        {
          "indexed": false,
          "internalType": "string",
          "name": "paymentAddress",
          "type": "string"
        },
        {
          "indexed": false,
          "internalType": "bytes32",
          "name": "paymentReference",
          "type": "bytes32"
        },
        {
          "indexed": false,
          "internalType": "address",
          "name": "executor",
          "type": "address"
        },
        {
          "indexed": false,
          "internalType": "uint256",
          "name": "executorFeeNatWei",
          "type": "uint256"
        }
      ],
      "name": "CollateralReserved",
      "type": "event"
    },
    {
      "inputs": [
        {
          "internalType": "uint256",
          "name": "_lots",
          "type": "uint256"
        }
      ],
      "name": "collateralReservationFee",
      "outputs": [
        {
          "internalType": "uint256",
          "name": "_reservationFeeNATWei",
          "type": "uint256"
        }
      ],
      "stateMutability": "view",
      "type": "function"
    },
    {
      "inputs": [
        {
          "internalType": "address",
          "name": "_agentVault",
          "type": "address"
        },
        {
          "internalType": "uint256",
          "name": "_lots",
          "type": "uint256"
        },
        {
          "internalType": "uint256",
          "name": "_maxMintingFeeBIPS",
          "type": "uint256"
        },
        {
          "internalType": "address payable",
          "name": "_executor",
          "type": "address"
        }
      ],
      "name": "reserveCollateral",
      "outputs": [
        {
          "internalType": "uint256",
          "name": "_collateralReservationId",
          "type": "uint256"
        }
      ],
      "stateMutability": "payable",
      "type": "function"
    }
  ],
  "bytecode": "0x6080604052348015600f57600080fd5b506127598061001f6000396000f3fe6080604052600436106100295760003560e01c8063275a7bfc1461002e578063368a359314610053575b600080fd5b61004161003c36600461217a565b610073565b60405190815260200160405180910390f35b34801561005f57600080fd5b5061004161006e3660046121c4565b610673565b600061007d6106cb565b6100876001610716565b61008f610769565b600061009a866107b3565b90506100a58161083c565b60006100b082610856565b7fec7e8c1c441439dd40959777f4c577ea0cd42fcc1dbe59d2bd0f5d9c55df8dc6549091506000805160206126e4833981519152906001600160401b03161561010c576040516375ab03ab60e11b815260040160405180910390fd5b600483015465010000000000900463ffffffff161515806101355750610135600d840133610900565b6101525760405163082f445360e31b815260040160405180910390fd5b60008711610173576040516359ed140d60e01b815260040160405180910390fd5b6001600484015460ff16600581111561018e5761018e6121dd565b146101ac5760405163aa2b63b360e01b815260040160405180910390fd5b866101b78385610927565b10156101d65760405163d78c667760e01b815260040160405180910390fd5b6004830154600160481b900461ffff1686101561020657604051631e1b74ed60e11b815260040160405180910390fd5b600061021188610935565b9050610230846102218684610988565b61022b9084612209565b6109b6565b600484015460009065010000000000900463ffffffff168103610254576000610266565b61026684602001516040015183610a61565b90508034101561028957604051632162c18960e11b815260040160405180910390fd5b610291610aa1565b600e840180546000906102ae9084906001600160401b0316612209565b82546001600160401b0391821661010093840a9081029083021990911617909255600e860154604080516101c081018252600060208201819052918101829052606081018290526080810182905260a0810182905260c0810182905260e0810182905292830181905261012083018190526101408301819052610160830181905261018083018190526101a08301528583168252600489015492169250906103739061036e90600160481b900461ffff1661036887610ad3565b90610b14565b610b23565b6001600160801b0316608082015261038a83610b23565b6001600160801b031660a082015260048701546103b390600160581b900461ffff166001612228565b61ffff1660e08201526001600160a01b03808d1660c08301523361010083015289161561041b576001600160a01b03891661014082015261040b633b9aca006103fc8534612242565b610406919061226b565b610b95565b6001600160401b03166101608201525b600080610426610bfd565b600f8901546201000090046001600160401b03908116602087015282811660408701528116606086015290925090506000610120840181905250600084815260068801602090815260409182902085518154928701519387015160608801516001600160401b03908116600160c01b026001600160c01b03928216600160801b908102939093166001600160801b03978316600160401b026fffffffffffffffffffffffffffffffff19909716929094169190911794909417851691909117929092178155608086015160a087015184169092029190921617600182015560c084015160028201805460e087015161ffff16600160a01b9081026001600160b01b03199092166001600160a01b03948516179190911790915561010086015160038085018054929094166001600160a01b0319831681178555610120890151899695909490936001600160a81b03191690911791849081111561058b5761058b6121dd565b02179055506101408201516004820180546101608501516001600160a01b039093166001600160e01b031990911617600160a01b6001600160401b039384160217905561018083015160058301805467ffffffffffffffff1916919092161790556101a090910151600690910155610604898486610d0f565b6101408301516001600160a01b031615801561061f57508434115b1561063757610637336106328734612242565b610dd7565b509197505050505050505061066b60017f0cd2207518cd3e5213e2c6dbe63d55b60aa893c194a427b7d7f1600408fd5bde55565b949350505050565b7fec7e8c1c441439dd40959777f4c577ea0cd42fcc1dbe59d2bd0f5d9c55df8dc5546000906000805160206126e48339815191529082906106b79061ffff16610e64565b905061066b816106c686610935565b610a61565b7fec7e8c1c441439dd40959777f4c577ea0cd42fcc1dbe59d2bd0f5d9c55df8dc754600160881b900460ff1661071457604051630d6e7efb60e41b815260040160405180910390fd5b565b600081600381111561072a5761072a6121dd565b610732610eaf565b6003811115610743576107436121dd565b10801591506107655760405163909b191760e01b815260040160405180910390fd5b5050565b7f0cd2207518cd3e5213e2c6dbe63d55b60aa893c194a427b7d7f1600408fd5bde8054600119016107ad57604051633ee5aeb560e01b815260040160405180910390fd5b60029055565b604081901b68010000000000000000600160e01b03166000805160206126c48339815191521860048101546000919060ff16828160058111156107f8576107f86121dd565b1415801561081857506005816005811115610815576108156121dd565b14155b6108355760405163d68a46c560e01b815260040160405180910390fd5b5092915050565b6001810154610853906001600160a01b0316610f00565b50565b6108c16040805160c081019091526000606082018181526080830182905260a083019190915281908152604080516060810182526000808252602082810182905292820152910190815260408051606081018252600080825260208281018290529282015291015290565b60006108cc83610fb4565b905060405180606001604052806108e285611071565b81526020018281526020016108f78584611122565b90529392505050565b6001600160a01b038116600090815260018301602052604081205415155b90505b92915050565b600061091e838360016112fc565b7f4f24f5c433db0962dac0d2c8b84197a6e6c7cc4e5d9ebe1916a1b6193da2f347546000906000805160206126a48339815191529061098190610406906001600160401b03168561227f565b9392505050565b60008061099483610ad3565b905060006109a28583611354565b90506109ad81611392565b95945050505050565b6000805160206126e48339815191526109ce826113d3565b6005830180548391906000906109ee9084906001600160401b0316612209565b92506101000a8154816001600160401b0302191690836001600160401b031602179055508181600e0160188282829054906101000a90046001600160401b0316610a389190612209565b92506101000a8154816001600160401b0302191690836001600160401b03160217905550505050565b600080610a77836001600160401b031685611518565b905061066b6000805160206126a4833981519152600c01548290600160401b900461ffff16610b14565b60006103e843610aaf611532565b610ab99190612296565b610ac391906122a9565b610ace906001612296565b905090565b600080516020612704833981519152546000906000805160206126a48339815191529061098190600160901b90046001600160401b0390811690851661227f565b600061091e8383612710611642565b60006001600160801b03821115610b915760405162461bcd60e51b815260206004820152602760248201527f53616665436173743a2076616c756520646f65736e27742066697420696e20316044820152663238206269747360c81b60648201526084015b60405180910390fd5b5090565b60006001600160401b03821115610b915760405162461bcd60e51b815260206004820152602660248201527f53616665436173743a2076616c756520646f65736e27742066697420696e203660448201526534206269747360d01b6064820152608401610b88565b7fec7e8c1c441439dd40959777f4c577ea0cd42fcc1dbe59d2bd0f5d9c55df8dc55460009081906000805160206126e4833981519152906000805160206126a4833981519152908390600160901b90046001600160401b0316610c5f42610b95565b610c6991906122bd565b600c830154909150600090610c939063ffffffff166103fc6001600160401b0385166103e861227f565b600d840154600f8601549192506001600160401b03600160981b909104811691610cc591849162010000900416612209565b610ccf9190612209565b600e840154600f8601549197506001600160401b0390811691610cfb918591600160501b900416612209565b610d059190612209565b9450505050509091565b808261010001516001600160a01b0316610d39856000805160206126c48339815191521860401c90565b6001600160a01b03167f7e28eb3b9a2077a4fa0559357b1647ec5eabf18d7adf1539c4e8fb1445a5fc09610d708660000151610ad3565b86608001518760200151886040015189606001518b600201610d918b61172c565b8c6101400151633b9aca008e61016001516001600160401b0316610db5919061227f565b604051610dca99989796959493929190612316565b60405180910390a4505050565b610ddf611756565b8015610765576000826001600160a01b031682620186a090604051600060405180830381858888f193505050503d8060008114610e38576040519150601f19603f3d011682016040523d82523d6000602084013e610e3d565b606091505b5050905080610e5f576040516312171d8360e31b815260040160405180910390fd5b505050565b6000806000805160206126e48339815191529050610ea5816000018481548110610e9057610e9061242c565b90600052602060002090600402016000611798565b5090949350505050565b600080610eba6119de565b90506000610ec6611a46565b9050816003811115610eda57610eda6121dd565b816003811115610eec57610eec6121dd565b11610ef75781610ef9565b805b9250505090565b7f4f24f5c433db0962dac0d2c8b84197a6e6c7cc4e5d9ebe1916a1b6193da2f341546001600160a01b0316604051633af32abf60e01b81526001600160a01b0383811660048301529190911690633af32abf90602401602060405180830381865afa158015610f73573d6000803e3d6000fd5b505050506040513d601f19601f82011682018060405250810190610f979190612457565b61085357604051631408f3ef60e31b815260040160405180910390fd5b610fd96040805160608101909152806000815260200160008152602001600081525090565b6000610fe483611aae565b604080516060810182526001815285548251634ac8eb5f60e01b8152925193945090926020808501936001600160a01b0390931692634ac8eb5f92600480830193928290030181865afa15801561103f573d6000803e3d6000fd5b505050506040513d601f19601f820116820180604052508101906110639190612472565b81526020016108f783611afd565b6110966040805160608101909152806000815260200160008152602001600081525090565b60006110a183611b13565b6040805160608101909152909150806000815282546020909101906001600160a01b03166370a082316000805160206126c4833981519152871860401c6040516001600160e01b031960e084901b1681526001600160a01b039091166004820152602401602060405180830381865afa15801561103f573d6000803e3d6000fd5b6111476040805160608101909152806000815260200160008152602001600081525090565b8254604080516332f7ce0b60e21b815290516000926001600160a01b03169163cbdf382c9160048083019260209291908290030181865afa158015611190573d6000803e3d6000fd5b505050506040513d601f19601f820116820180604052508101906111b4919061248b565b905060006001600160a01b0382166370a082316000805160206126c4833981519152871860401c6040516001600160e01b031960e084901b1681526001600160a01b039091166004820152602401602060405180830381865afa15801561121f573d6000803e3d6000fd5b505050506040513d601f19601f820116820180604052508101906112439190612472565b90506000826001600160a01b03166318160ddd6040518163ffffffff1660e01b8152600401602060405180830381865afa158015611285573d6000803e3d6000fd5b505050506040513d601f19601f820116820180604052508101906112a99190612472565b9050600085602001516000036112c35785604001516112d8565b602086015160408701516112d8918490611b4a565b60408051606081018252600281526020810195909552840152509095945050505050565b60008061130e85600001518585611b77565b9050600061132186602001518686611b77565b9050600061133487604001518787611b77565b9050611349836113448484611bb8565b611bb8565b979650505050505050565b60048201546000908190611374908490600160481b900461ffff16610b14565b905061066b8185600401600b9054906101000a900461ffff16611bce565b600080516020612704833981519152546000906000805160206126a4833981519152906109819061040690600160901b90046001600160401b03168561226b565b7f4f24f5c433db0962dac0d2c8b84197a6e6c7cc4e5d9ebe1916a1b6193da2f347546000805160206126e4833981519152906000805160206126a483398151915290600160581b90046001600160401b031660008190036114345750505050565b6001820154604080516318160ddd60e01b815290516000926001600160a01b0316916318160ddd9160048083019260209291908290030181865afa158015611480573d6000803e3d6000fd5b505050506040513d601f19601f820116820180604052508101906114a49190612472565b905060006114b182611392565b600e8601546114d09190600160c01b90046001600160401b0316612209565b6001600160401b0316905082866001600160401b0316826114f19190612296565b11156115105760405163c4d282e360e01b815260040160405180910390fd5b505050505050565b600061091e8261152a6009600a61258f565b859190611b4a565b7f4f24f5c433db0962dac0d2c8b84197a6e6c7cc4e5d9ebe1916a1b6193da2f342546040805163b59589d160e01b815290516000926000805160206126a4833981519152926001600160a01b03909116918491839163b59589d1916004808201926020929091908290030181865afa1580156115b2573d6000803e3d6000fd5b505050506040513d601f19601f820116820180604052508101906115d6919061248b565b6001600160a01b031663dbdff2c16040518163ffffffff1660e01b8152600401606060405180830381865afa158015611613573d6000803e3d6000fd5b505050506040513d601f19601f82011682018060405250810190611637919061259b565b509095945050505050565b600080806000198587098587029250828110838203039150508060000361167c5783828161167257611672612255565b0492505050610981565b8084116116c35760405162461bcd60e51b81526020600482015260156024820152744d6174683a206d756c446976206f766572666c6f7760581b6044820152606401610b88565b60008486880960026001871981018816978890046003810283188082028403028082028403028082028403028082028403028082028403029081029092039091026000889003889004909101858311909403939093029303949094049190911702949350505050565b60006001600160401b03821115611745576117456125d3565b5067464250526641000160c01b1790565b7f0cd2207518cd3e5213e2c6dbe63d55b60aa893c194a427b7d7f1600408fd5bde5460021461071457604051635bff566960e01b815260040160405180910390fd5b6000806000806000806118378860010180546117b3906122dc565b80601f01602080910402602001604051908101604052809291908181526020018280546117df906122dc565b801561182c5780601f106118015761010080835404028352916020019161182c565b820191906000526020600020905b81548152906001019060200180831161180f57829003601f168201915b505050505088611be6565b925092509250868015611848575081155b156118605760008060009550955095505050506119d7565b8260000361188157604051634dfba02360e01b815260040160405180910390fd5b8754600160f01b900460ff16156118c05787546000906118af90600160a81b900460ff166001838786611d4d565b96509194508493506119d792505050565b600080600061195b8b60020180546118d7906122dc565b80601f0160208091040260200160405190810160405280929190818152602001828054611903906122dc565b80156119505780601f1061192557610100808354040283529160200191611950565b820191906000526020600020905b81548152906001019060200180831161193357829003601f168201915b50505050508b611be6565b92509250925089801561196c575081155b156119875760008060009850985098505050505050506119d7565b826000036119a857604051634dfba02360e01b815260040160405180910390fd5b8a546000906119c490600160a81b900460ff1685848a89611d4d565b99509497509095506119d7945050505050565b9250925092565b7fec7e8c1c441439dd40959777f4c577ea0cd42fcc1dbe59d2bd0f5d9c55df8dc6546000906000805160206126e48339815191529042600160401b9091046001600160401b03161180611a32576000610ef9565b5060110154600160901b900460ff16919050565b7fec7e8c1c441439dd40959777f4c577ea0cd42fcc1dbe59d2bd0f5d9c55df8dc7546000906000805160206126e48339815191529042600160a01b9091046001600160401b03161180611a9a576000610ef9565b5060110154600160981b900460ff16919050565b6000806000805160206126e4833981519152600484015481549192508291630100000090910461ffff16908110611ae757611ae761242c565b9060005260206000209060040201915050919050565b6000611b0a826000611798565b50909392505050565b6000806000805160206126e483398151915260048401548154919250829161010090910461ffff16908110611ae757611ae761242c565b6000808211611b6c576040516323d359a360e01b815260040160405180910390fd5b61066b848484611642565b600080611b848585611dd4565b90506000611b93868686611df1565b905080600003611ba4576000611bae565b611bae818361226b565b9695505050505050565b6000818310611bc7578161091e565b5090919050565b600061091e611be18461ffff8516610b14565b611e3d565b7f4f24f5c433db0962dac0d2c8b84197a6e6c7cc4e5d9ebe1916a1b6193da2f34454600090819081906000805160206126a4833981519152906001600160a01b03168515611cd357600080600080846001600160a01b031663e731a1bc8c6040518263ffffffff1660e01b8152600401611c6091906125e9565b608060405180830381865afa158015611c7d573d6000803e3d6000fd5b505050506040513d601f19601f82011682018060405250810190611ca19190612637565b60ff16935093509350935060008111611cbe576000806000611cc2565b8383835b9850985098505050505050506119d7565b60405163524f388960e01b81526001600160a01b0382169063524f388990611cff908a906004016125e9565b606060405180830381865afa158015611d1c573d6000803e3d6000fd5b505050506040513d601f19601f82011682018060405250810190611d409190612675565b94509450945050506119d7565b60006000805160206126a4833981519152816009611d6b878a612296565b611d759190612296565b600a830154909150600090611d95908690600160a81b900460ff16612296565b905080821015611da757611da76125d3565b611dc7611db48284612242565b611dbf90600a61258f565b87908a611b4a565b9998505050505050505050565b600080611de18484611e84565b905061066b846020015182611fae565b7f4f24f5c433db0962dac0d2c8b84197a6e6c7cc4e5d9ebe1916a1b6193da2f347546000906000805160206126a4833981519152906109ad90869086906001600160401b031686611fc8565b600080516020612704833981519152546000906000805160206126a483398151915290611e7a90600160901b90046001600160401b0316846122a9565b6109819084612242565b6000806000611e9784866000015161203f565b60058601549193509150600090611ec0906001600160401b03600160401b820481169116612296565b90506000611ed684610368848a60400151611518565b90506000600188516002811115611eef57611eef6121dd565b14611f0e576005870154600160801b90046001600160401b0316611f24565b6005870154600160c01b90046001600160401b03165b90506000611f4385610368846001600160401b03168c60400151611518565b9050600060018a516002811115611f5c57611f5c6121dd565b03611f68576000611f80565b8951611f75908a90612109565b546001600160801b03165b6001600160801b0316905080611f968386612296565b611fa09190612296565b9a9950505050505050505050565b6000818311611fbe57600061091e565b61091e8284612242565b60008082611fd7576000612000565b60048501546120009061ffff600160581b8204811691610368918891600160481b900416610b14565b9050600061200e8286612296565b90506000612020828960400151611518565b90506000612032888a6000015161203f565b509050611dc78282610b14565b6000806002836002811115612056576120566121dd565b0361208157505060008051602061270483398151915254640100000000900463ffffffff1680612102565b6001836002811115612095576120956121dd565b036120d0576120a384611aae565b60030154600485015463ffffffff91821692506120c991600160881b9091041682612156565b9150612102565b6120d984611b13565b60030154600485015463ffffffff91821692506120ff91600160681b9091041682612156565b91505b9250929050565b6000600182600281111561211f5761211f6121dd565b0361212c5761212c6125d3565b6000826002811115612140576121406121dd565b1461214e578260090161091e565b505060080190565b6000818311611bc7578161091e565b6001600160a01b038116811461085357600080fd5b6000806000806080858703121561219057600080fd5b843561219b81612165565b9350602085013592506040850135915060608501356121b981612165565b939692955090935050565b6000602082840312156121d657600080fd5b5035919050565b634e487b7160e01b600052602160045260246000fd5b634e487b7160e01b600052601160045260246000fd5b6001600160401b038181168382160190811115610921576109216121f3565b61ffff8181168382160190811115610921576109216121f3565b81810381811115610921576109216121f3565b634e487b7160e01b600052601260045260246000fd5b60008261227a5761227a612255565b500490565b8082028115828204841417610921576109216121f3565b80820180821115610921576109216121f3565b6000826122b8576122b8612255565b500690565b6001600160401b038281168282160390811115610921576109216121f3565b600181811c908216806122f057607f821691505b60208210810361231057634e487b7160e01b600052602260045260246000fd5b50919050565b8981526001600160801b03891660208201526001600160401b03881660408201526001600160401b03871660608201526001600160401b038616608082015261012060a08201526000808654818160011c9050600182168061237957607f821691505b60208210810361239757634e487b7160e01b84526022600452602484fd5b610120860182905261014086018180156123b857600181146123ce576123fc565b60ff198516825283151560051b820195506123fc565b60008c81526020902060005b858110156123f6578154848201526001909101906020016123da565b83019650505b505050505060c0830195909552506001600160a01b039290921660e0830152610100909101529695505050505050565b634e487b7160e01b600052603260045260246000fd5b8051801515811461245257600080fd5b919050565b60006020828403121561246957600080fd5b61091e82612442565b60006020828403121561248457600080fd5b5051919050565b60006020828403121561249d57600080fd5b815161098181612165565b6001815b60018411156124e3578085048111156124c7576124c76121f3565b60018416156124d557908102905b60019390931c9280026124ac565b935093915050565b6000826124fa57506001610921565b8161250757506000610921565b816001811461251d576002811461252757612543565b6001915050610921565b60ff841115612538576125386121f3565b50506001821b610921565b5060208310610133831016604e8410600b8410161715612566575081810a610921565b61257360001984846124a8565b8060001904821115612587576125876121f3565b029392505050565b600061091e83836124eb565b6000806000606084860312156125b057600080fd5b835192506125c060208501612442565b6040949094015192959394509192915050565b634e487b7160e01b600052600160045260246000fd5b602081526000825180602084015260005b8181101561261757602081860181015160408684010152016125fa565b506000604082850101526040601f19601f83011684010191505092915050565b6000806000806080858703121561264d57600080fd5b8451602086015160408701516060880151929650909450925060ff811681146121b957600080fd5b60008060006060848603121561268a57600080fd5b505081516020830151604090930151909492935091905056fe4f24f5c433db0962dac0d2c8b84197a6e6c7cc4e5d9ebe1916a1b6193da2f33a5bebac0595fee029d42bb673937f5f1cb81cf8641382bc17774635de9b7d7965ec7e8c1c441439dd40959777f4c577ea0cd42fcc1dbe59d2bd0f5d9c55df8db64f24f5c433db0962dac0d2c8b84197a6e6c7cc4e5d9ebe1916a1b6193da2f346a264697066735822122053a7204dd60ce1be7814fcf361aa3f6ad6365fae466c649f5d3390ec7bf033e564736f6c634300081b0033",
  "linkReferences": {},
  "deployedLinkReferences": {}
}