{
  "_format": "hh-sol-artifact-1",
  "contractName": "RedemptionRequestsFacet",
  "sourceName": "contracts/assetManager/facets/RedemptionRequestsFacet.sol",
  "abi": [
    {
      "inputs": [],
      "name": "AddressValid",
      "type": "error"
    },
    {
      "inputs": [],
      "name": "AddressValidityNotProven",
      "type": "error"
    },
    {
      "inputs": [],
      "name": "CannotRedeemToAgentsAddress",
      "type": "error"
    },
    {
      "inputs": [],
      "name": "DestinationTagTooBig",
      "type": "error"
    },
    {
      "inputs": [],
      "name": "DivisionByZero",
      "type": "error"
    },
    {
      "inputs": [],
      "name": "EmergencyPauseActive",
      "type": "error"
    },
    {
      "inputs": [],
      "name": "ExecutorFeeWithoutExecutor",
      "type": "error"
    },
    {
      "inputs": [],
      "name": "InvalidAgentVaultAddress",
      "type": "error"
    },
    {
      "inputs": [],
      "name": "InvalidChain",
      "type": "error"
    },
    {
      "inputs": [],
      "name": "InvalidRedemptionStatus",
      "type": "error"
    },
    {
      "inputs": [],
      "name": "InvalidRequestId",
      "type": "error"
    },
    {
      "inputs": [],
      "name": "InvalidTicketId",
      "type": "error"
    },
    {
      "inputs": [],
      "name": "NotAttached",
      "type": "error"
    },
    {
      "inputs": [],
      "name": "OnlyAgentVaultOwner",
      "type": "error"
    },
    {
      "inputs": [],
      "name": "OnlyAssetManagerController",
      "type": "error"
    },
    {
      "inputs": [],
      "name": "OnlyCollateralPool",
      "type": "error"
    },
    {
      "inputs": [],
      "name": "OnlyImmediateGovernanceOrExecutor",
      "type": "error"
    },
    {
      "inputs": [],
      "name": "RedeemWithTagNotSupported",
      "type": "error"
    },
    {
      "inputs": [],
      "name": "RedeemZeroLots",
      "type": "error"
    },
    {
      "inputs": [],
      "name": "RedemptionOfZero",
      "type": "error"
    },
    {
      "inputs": [],
      "name": "RedemptionTooSmall",
      "type": "error"
    },
    {
      "inputs": [],
      "name": "ReentrancyGuardReentrantCall",
      "type": "error"
    },
    {
      "inputs": [],
      "name": "SelfCloseOfZero",
      "type": "error"
    },
    {
      "inputs": [],
      "name": "UnderlyingAddressTooLong",
      "type": "error"
    },
    {
      "inputs": [],
      "name": "WrongAddress",
      "type": "error"
    },
    {
      "inputs": [],
      "name": "ZeroPrice",
      "type": "error"
    },
    {
      "anonymous": false,
      "inputs": [
        {
          "indexed": true,
          "internalType": "address",
          "name": "agentVault",
          "type": "address"
        },
        {
          "indexed": false,
          "internalType": "uint256",
          "name": "dustUBA",
          "type": "uint256"
        }
      ],
      "name": "DustChanged",
      "type": "event"
    },
    {
      "anonymous": false,
      "inputs": [
        {
          "indexed": true,
          "internalType": "address",
          "name": "agentVault",
          "type": "address"
        }
      ],
      "name": "LiquidationEnded",
      "type": "event"
    },
    {
      "anonymous": false,
      "inputs": [
        {
          "indexed": true,
          "internalType": "address",
          "name": "agentVault",
          "type": "address"
        },
        {
          "indexed": true,
          "internalType": "address",
          "name": "redeemer",
          "type": "address"
        },
        {
          "indexed": false,
          "internalType": "uint256",
          "name": "redemptionAmountUBA",
          "type": "uint256"
        },
        {
          "indexed": false,
          "internalType": "uint256",
          "name": "paidVaultCollateralWei",
          "type": "uint256"
        }
      ],
      "name": "RedeemedInCollateral",
      "type": "event"
    },
    {
      "anonymous": false,
      "inputs": [
        {
          "indexed": true,
          "internalType": "address",
          "name": "redeemer",
          "type": "address"
        },
        {
          "indexed": false,
          "internalType": "uint256",
          "name": "remainingAmountUBA",
          "type": "uint256"
        }
      ],
      "name": "RedemptionAmountIncomplete",
      "type": "event"
    },
    {
      "anonymous": false,
      "inputs": [
        {
          "indexed": true,
          "internalType": "address",
          "name": "agentVault",
          "type": "address"
        },
        {
          "indexed": true,
          "internalType": "address",
          "name": "redeemer",
          "type": "address"
        },
        {
          "indexed": true,
          "internalType": "uint256",
          "name": "requestId",
          "type": "uint256"
        },
        {
          "indexed": false,
          "internalType": "uint256",
          "name": "redemptionAmountUBA",
          "type": "uint256"
        }
      ],
      "name": "RedemptionRejected",
      "type": "event"
    },
    {
      "anonymous": false,
      "inputs": [
        {
          "indexed": true,
          "internalType": "address",
          "name": "redeemer",
          "type": "address"
        },
        {
          "indexed": false,
          "internalType": "uint256",
          "name": "remainingLots",
          "type": "uint256"
        }
      ],
      "name": "RedemptionRequestIncomplete",
      "type": "event"
    },
    {
      "anonymous": false,
      "inputs": [
        {
          "indexed": true,
          "internalType": "address",
          "name": "agentVault",
          "type": "address"
        },
        {
          "indexed": true,
          "internalType": "address",
          "name": "redeemer",
          "type": "address"
        },
        {
          "indexed": true,
          "internalType": "uint256",
          "name": "requestId",
          "type": "uint256"
        },
        {
          "indexed": false,
          "internalType": "string",
          "name": "paymentAddress",
          "type": "string"
        },
        {
          "indexed": false,
          "internalType": "uint256",
          "name": "valueUBA",
          "type": "uint256"
        },
        {
          "indexed": false,
          "internalType": "uint256",
          "name": "feeUBA",
          "type": "uint256"
        },
        {
          "indexed": false,
          "internalType": "uint256",
          "name": "firstUnderlyingBlock",
          "type": "uint256"
        },
        {
          "indexed": false,
          "internalType": "uint256",
          "name": "lastUnderlyingBlock",
          "type": "uint256"
        },
        {
          "indexed": false,
          "internalType": "uint256",
          "name": "lastUnderlyingTimestamp",
          "type": "uint256"
        },
        {
          "indexed": false,
          "internalType": "bytes32",
          "name": "paymentReference",
          "type": "bytes32"
        },
        {
          "indexed": false,
          "internalType": "address",
          "name": "executor",
          "type": "address"
        },
        {
          "indexed": false,
          "internalType": "uint256",
          "name": "executorFeeNatWei",
          "type": "uint256"
        }
      ],
      "name": "RedemptionRequested",
      "type": "event"
    },
    {
      "anonymous": false,
      "inputs": [
        {
          "indexed": true,
          "internalType": "address",
          "name": "agentVault",
          "type": "address"
        },
        {
          "indexed": true,
          "internalType": "uint256",
          "name": "redemptionTicketId",
          "type": "uint256"
        },
        {
          "indexed": false,
          "internalType": "uint256",
          "name": "ticketValueUBA",
          "type": "uint256"
        }
      ],
      "name": "RedemptionTicketCreated",
      "type": "event"
    },
    {
      "anonymous": false,
      "inputs": [
        {
          "indexed": true,
          "internalType": "address",
          "name": "agentVault",
          "type": "address"
        },
        {
          "indexed": true,
          "internalType": "uint256",
          "name": "redemptionTicketId",
          "type": "uint256"
        }
      ],
      "name": "RedemptionTicketDeleted",
      "type": "event"
    },
    {
      "anonymous": false,
      "inputs": [
        {
          "indexed": true,
          "internalType": "address",
          "name": "agentVault",
          "type": "address"
        },
        {
          "indexed": true,
          "internalType": "uint256",
          "name": "redemptionTicketId",
          "type": "uint256"
        },
        {
          "indexed": false,
          "internalType": "uint256",
          "name": "ticketValueUBA",
          "type": "uint256"
        }
      ],
      "name": "RedemptionTicketUpdated",
      "type": "event"
    },
    {
      "anonymous": false,
      "inputs": [
        {
          "indexed": false,
          "internalType": "uint256",
          "name": "firstTicketId",
          "type": "uint256"
        },
        {
          "indexed": false,
          "internalType": "uint256",
          "name": "nextTicketId",
          "type": "uint256"
        }
      ],
      "name": "RedemptionTicketsConsolidated",
      "type": "event"
    },
    {
      "anonymous": false,
      "inputs": [
        {
          "indexed": true,
          "internalType": "address",
          "name": "agentVault",
          "type": "address"
        },
        {
          "indexed": true,
          "internalType": "address",
          "name": "redeemer",
          "type": "address"
        },
        {
          "indexed": true,
          "internalType": "uint256",
          "name": "requestId",
          "type": "uint256"
        },
        {
          "indexed": false,
          "internalType": "string",
          "name": "paymentAddress",
          "type": "string"
        },
        {
          "indexed": false,
          "internalType": "uint256",
          "name": "valueUBA",
          "type": "uint256"
        },
        {
          "indexed": false,
          "internalType": "uint256",
          "name": "feeUBA",
          "type": "uint256"
        },
        {
          "indexed": false,
          "internalType": "uint256",
          "name": "firstUnderlyingBlock",
          "type": "uint256"
        },
        {
          "indexed": false,
          "internalType": "uint256",
          "name": "lastUnderlyingBlock",
          "type": "uint256"
        },
        {
          "indexed": false,
          "internalType": "uint256",
          "name": "lastUnderlyingTimestamp",
          "type": "uint256"
        },
        {
          "indexed": false,
          "internalType": "bytes32",
          "name": "paymentReference",
          "type": "bytes32"
        },
        {
          "indexed": false,
          "internalType": "address",
          "name": "executor",
          "type": "address"
        },
        {
          "indexed": false,
          "internalType": "uint256",
          "name": "executorFeeNatWei",
          "type": "uint256"
        },
        {
          "indexed": false,
          "internalType": "uint256",
          "name": "destinationTag",
          "type": "uint256"
        }
      ],
      "name": "RedemptionWithTagRequested",
      "type": "event"
    },
    {
      "anonymous": false,
      "inputs": [
        {
          "indexed": true,
          "internalType": "address",
          "name": "agentVault",
          "type": "address"
        },
        {
          "indexed": false,
          "internalType": "uint256",
          "name": "valueUBA",
          "type": "uint256"
        }
      ],
      "name": "SelfClose",
      "type": "event"
    },
    {
      "inputs": [
        {
          "internalType": "uint256",
          "name": "_firstTicketId",
          "type": "uint256"
        }
      ],
      "name": "consolidateSmallTickets",
      "outputs": [],
      "stateMutability": "nonpayable",
      "type": "function"
    },
    {
      "inputs": [
        {
          "internalType": "address",
          "name": "_agentVault",
          "type": "address"
        }
      ],
      "name": "convertDustToTicket",
      "outputs": [],
      "stateMutability": "nonpayable",
      "type": "function"
    },
    {
      "inputs": [
        {
          "internalType": "address",
          "name": "_agentVault",
          "type": "address"
        }
      ],
      "name": "maxRedemptionFromAgent",
      "outputs": [
        {
          "internalType": "uint256",
          "name": "",
          "type": "uint256"
        }
      ],
      "stateMutability": "view",
      "type": "function"
    },
    {
      "inputs": [
        {
          "internalType": "uint256",
          "name": "_lots",
          "type": "uint256"
        },
        {
          "internalType": "string",
          "name": "_redeemerUnderlyingAddressString",
          "type": "string"
        },
        {
          "internalType": "address payable",
          "name": "_executor",
          "type": "address"
        }
      ],
      "name": "redeem",
      "outputs": [
        {
          "internalType": "uint256",
          "name": "_redeemedAmountUBA",
          "type": "uint256"
        }
      ],
      "stateMutability": "payable",
      "type": "function"
    },
    {
      "inputs": [
        {
          "internalType": "uint256",
          "name": "_amountUBA",
          "type": "uint256"
        },
        {
          "internalType": "string",
          "name": "_redeemerUnderlyingAddressString",
          "type": "string"
        },
        {
          "internalType": "address payable",
          "name": "_executor",
          "type": "address"
        }
      ],
      "name": "redeemAmount",
      "outputs": [
        {
          "internalType": "uint256",
          "name": "_redeemedAmountUBA",
          "type": "uint256"
        }
      ],
      "stateMutability": "payable",
      "type": "function"
    },
    {
      "inputs": [
        {
          "internalType": "address",
          "name": "_agentVault",
          "type": "address"
        },
        {
          "internalType": "address",
          "name": "_receiver",
          "type": "address"
        },
        {
          "internalType": "uint256",
          "name": "_amountUBA",
          "type": "uint256"
        },
        {
          "internalType": "string",
          "name": "_receiverUnderlyingAddress",
          "type": "string"
        },
        {
          "internalType": "address payable",
          "name": "_executor",
          "type": "address"
        }
      ],
      "name": "redeemFromAgent",
      "outputs": [],
      "stateMutability": "payable",
      "type": "function"
    },
    {
      "inputs": [
        {
          "internalType": "address",
          "name": "_agentVault",
          "type": "address"
        },
        {
          "internalType": "address",
          "name": "_receiver",
          "type": "address"
        },
        {
          "internalType": "uint256",
          "name": "_amountUBA",
          "type": "uint256"
        }
      ],
      "name": "redeemFromAgentInCollateral",
      "outputs": [],
      "stateMutability": "nonpayable",
      "type": "function"
    },
    {
      "inputs": [
        {
          "internalType": "uint256",
          "name": "_amountUBA",
          "type": "uint256"
        },
        {
          "internalType": "string",
          "name": "_redeemerUnderlyingAddressString",
          "type": "string"
        },
        {
          "internalType": "address payable",
          "name": "_executor",
          "type": "address"
        },
        {
          "internalType": "uint256",
          "name": "_destinationTag",
          "type": "uint256"
        }
      ],
      "name": "redeemWithTag",
      "outputs": [
        {
          "internalType": "uint256",
          "name": "_redeemedAmountUBA",
          "type": "uint256"
        }
      ],
      "stateMutability": "payable",
      "type": "function"
    },
    {
      "inputs": [],
      "name": "redeemWithTagSupported",
      "outputs": [
        {
          "internalType": "bool",
          "name": "",
          "type": "bool"
        }
      ],
      "stateMutability": "view",
      "type": "function"
    },
    {
      "inputs": [
        {
          "components": [
            {
              "internalType": "bytes32[]",
              "name": "merkleProof",
              "type": "bytes32[]"
            },
            {
              "components": [
                {
                  "internalType": "bytes32",
                  "name": "attestationType",
                  "type": "bytes32"
                },
                {
                  "internalType": "bytes32",
                  "name": "sourceId",
                  "type": "bytes32"
                },
                {
                  "internalType": "uint64",
                  "name": "votingRound",
                  "type": "uint64"
                },
                {
                  "internalType": "uint64",
                  "name": "lowestUsedTimestamp",
                  "type": "uint64"
                },
                {
                  "components": [
                    {
                      "internalType": "string",
                      "name": "addressStr",
                      "type": "string"
                    }
                  ],
                  "internalType": "struct IAddressValidity.RequestBody",
                  "name": "requestBody",
                  "type": "tuple"
                },
                {
                  "components": [
                    {
                      "internalType": "bool",
                      "name": "isValid",
                      "type": "bool"
                    },
                    {
                      "internalType": "string",
                      "name": "standardAddress",
                      "type": "string"
                    },
                    {
                      "internalType": "bytes32",
                      "name": "standardAddressHash",
                      "type": "bytes32"
                    }
                  ],
                  "internalType": "struct IAddressValidity.ResponseBody",
                  "name": "responseBody",
                  "type": "tuple"
                }
              ],
              "internalType": "struct IAddressValidity.Response",
              "name": "data",
              "type": "tuple"
            }
          ],
          "internalType": "struct IAddressValidity.Proof",
          "name": "_proof",
          "type": "tuple"
        },
        {
          "internalType": "uint256",
          "name": "_redemptionRequestId",
          "type": "uint256"
        }
      ],
      "name": "rejectInvalidRedemption",
      "outputs": [],
      "stateMutability": "nonpayable",
      "type": "function"
    },
    {
      "inputs": [
        {
          "internalType": "address",
          "name": "_agentVault",
          "type": "address"
        },
        {
          "internalType": "uint256",
          "name": "_amountUBA",
          "type": "uint256"
        }
      ],
      "name": "selfClose",
      "outputs": [
        {
          "internalType": "uint256",
          "name": "_closedAmountUBA",
          "type": "uint256"
        }
      ],
      "stateMutability": "nonpayable",
      "type": "function"
    }
  ],
  "bytecode": "0x6080604052348015600f57600080fd5b506154298061001f6000396000f3fe60806040526004361061009c5760003560e01c80639584da2a116100645780639584da2a1461014e57806399646d1c1461016e578063997be0f414610181578063c95cecbf14610194578063df6f3663146101a7578063ed000b30146101c757600080fd5b806301e261f6146100a15780631e8bee01146100c7578063249f444d146100e757806365454f941461010c57806387375f271461012e575b600080fd5b6100b46100af366004614830565b6101e7565b6040519081526020015b60405180910390f35b3480156100d357600080fd5b506100b46100e236600461488a565b61028a565b3480156100f357600080fd5b506100fc61039a565b60405190151581526020016100be565b34801561011857600080fd5b5061012c61012736600461488a565b6103ba565b005b34801561013a57600080fd5b5061012c6101493660046148a7565b610479565b34801561015a57600080fd5b506100b46101693660046148f0565b6106d2565b6100b461017c366004614830565b610941565b61012c61018f36600461490e565b6109c2565b6100b46101a236600461498e565b610af2565b3480156101b357600080fd5b5061012c6101c23660046149ee565b610beb565b3480156101d357600080fd5b5061012c6101e2366004614a07565b610d49565b60006101f36001610e90565b6101fb610edf565b600061020685610f17565b6000805160206153948339815191525490915061010090046001600160401b03166001600160401b0316816001600160401b031610156102595760405163595bd39f60e11b815260040160405180910390fd5b6102698160018686600080610f48565b91505061028360016000805160206153d483398151915255565b9392505050565b60008061029683611290565b60068101549091506000805160206153b4833981519152906001600160401b031660006102c161132b565b600f0154600160801b900461ffff169050600060088401816102e28761134f565b6001600160a01b0316815260208101919091526040016000908120546001600160401b031691505b6001600160401b0382161580159061032157508281105b15610385576001600160401b03828116600090815260078701602052604090208054909161035791600160a01b90041686614a5e565b6001909101549094506001600160401b03600160c01b9091041691508061037d81614a7d565b91505061030a565b5061038f83611377565b979650505050505050565b60006103b56000805160206153948339815191525460ff1690565b905090565b6103c46001610e90565b6103cc610edf565b60006103d661132b565b905060006103e383611290565b600d83015460068201549192506001600160401b0390811691161061045d57600d8201546006820154600091610425916001600160401b039182169116614aac565b60068301549091506000906104449083906001600160401b0316614ada565b905061045083826113a8565b61045a838361154c565b50505b505061047660016000805160206153d483398151915255565b50565b6104836002610e90565b61048b610edf565b60006104988260016115e2565b600881015490915060ff16156104b0576104b0614af9565b60048101546000906104ca906001600160a01b0316611290565b905060016004830154600160a01b900460ff1660068111156104ee576104ee614b0f565b1461050c57604051638336ad7d60e01b815260040160405180910390fd5b61051581611696565b61051e846116bd565b600061052d6020860186614b25565b61053b906080810190614b45565b6105459080614b5b565b604051610553929190614ba8565b604051809103902090508260000154811461058157604051630d23cf4160e11b815260040160405180910390fd5b60006105906020870187614b25565b61059e9060a0810190614bb8565b6105ac906020810190614bdc565b80156105d6575083546105c26020880188614b25565b6105d09060a0810190614bb8565b60400135145b905080156105f757604051631e99ffed60e01b815260040160405180910390fd5b61062a838560020160189054906101000a90046001600160401b03168660040160159054906101000a900460ff16611797565b61063384611831565b600284015460009061065490600160c01b90046001600160401b0316611377565b6003860154600487015460405183815292935088926001600160a01b0392831692909116907f94d66df0cc76b15bc59edd2c5f5b565292490a6ef58fde83e3bfaef6671627af9060200160405180910390a46106b2868660066118b6565b50505050506106ce60016000805160206153d483398151915255565b5050565b60006106de6001610e90565b6106e6610edf565b826106f08161190e565b60006106fb85611290565b90508360000361071e57604051634910298d60e11b815260040160405180910390fd5b600061072861132b565b9050600061073861271080614bf9565b600c840154600e8401549192506000916107679161ffff600160e01b909104811691600160401b900416614bf9565b6107719083614c10565b90506000610780888385611920565b905060006107988661079184610f17565b600161194d565b915050806000036107bc57604051634910298d60e11b815260040160405180910390fd5b60006107c9828686611920565b90506107d53382611b04565b818111156108cf576107e5611b6c565b87546001600160a01b03918216916340c10f1991166108048585614c10565b6040516001600160e01b031960e085901b1681526001600160a01b0390921660048301526024820152604401600060405180830381600087803b15801561084a57600080fd5b505af115801561085e573d6000803e3d6000fd5b505088546001600160a01b0316915063a854a6a2905061087e8484614c10565b6040518263ffffffff1660e01b815260040161089c91815260200190565b600060405180830381600087803b1580156108b657600080fd5b505af11580156108ca573d6000803e3d6000fd5b505050505b6108d887611b8a565b8a6001600160a01b03167f27a9c0ea115e1a078f8a4ddd385379102c3138ded0ddd00bf9cc5ee197457dc88360405161091391815260200190565b60405180910390a250965050505050505061093b60016000805160206153d483398151915255565b92915050565b600061094d6001610e90565b610955610edf565b600061095f61132b565b600d81015490915060009061098690610981906001600160401b031688614bf9565b611c3e565b600d8301549091506109a79082906001600160401b03168787600080610f48565b9250505061028360016000805160206153d483398151915255565b6109cc6001610e90565b6109d4610edf565b60006109df86611290565b90506109ea81611caf565b83600003610a0b576040516345a22e4360e01b815260040160405180910390fd5b6000610a1685610f17565b9050600080610a278484600061194d565b91509150610ac56040518061016001604052808b6001600160a01b03168152602001846001600160401b031681526020018a6001600160a01b03168152602001888152602001600115158152602001876001600160a01b03168152602001610a98633b9aca00346109819190614c23565b6001600160401b031681526000602082018190526040820181905260608201819052608090910152611cd9565b50610ad03382611b04565b50505050610aeb60016000805160206153d483398151915255565b5050505050565b6000610afe6001610e90565b610b06610edf565b6000805160206153948339815191525460ff16610b36576040516328e576b760e01b815260040160405180910390fd5b6000610b4186610f17565b6000805160206153948339815191525490915061010090046001600160401b03166001600160401b0316816001600160401b03161015610b945760405163595bd39f60e11b815260040160405180910390fd5b6401000000008310610bb95760405163031a1ec960e31b815260040160405180910390fd5b610bc98160018787600188610f48565b915050610be360016000805160206153d483398151915255565b949350505050565b610bf56001610e90565b610bfd610edf565b610c056123a0565b6000805160206153b48339815191526000610c1e61132b565b600f0154600160801b900461ffff1690506000838103610c4b5760098301546001600160401b0316610c54565b610c5484611c3e565b90508060005b83811015610cea576001600160401b03821615610cea576001600160401b0382166000908152600786016020526040902081151580610ca2575080546001600160a01b031615155b610cbf5760405163369cb27760e01b815260040160405180910390fd5b6001810154600160401b90046001600160401b0316610cdf8460006123c8565b925050600101610c5a565b50604080516001600160401b038085168252831660208201527ffcd4d7e3c741c278947117e3e41c09fb0e286bb07df70c221282891839f211b4910160405180910390a15050505061047660016000805160206153d483398151915255565b610d536001610e90565b610d5b610edf565b6000610d6684611290565b9050610d7181611caf565b81600003610d92576040516345a22e4360e01b815260040160405180910390fd5b6000610d9d83610f17565b9050600080610dae8484600161194d565b60048601549193509150600090610dcd90610100900461ffff1661259f565b600a860154909150600090610e0090600160801b900461ffff16610dfa6001600160401b038716856125ea565b90612604565b9050610e0d868983612613565b50876001600160a01b0316896001600160a01b03167f25c177efe505ee9dd8e37b9825d729e1a27b6ac048c6e55ba91841d9a7fa9ecc8584604051610e5c929190918252602082015260400190565b60405180910390a3610e6e3384611b04565b505050505050610e8b60016000805160206153d483398151915255565b505050565b6000816003811115610ea457610ea4614b0f565b610eac61271d565b6003811115610ebd57610ebd614b0f565b10801591506106ce5760405163909b191760e01b815260040160405180910390fd5b6000805160206153d4833981519152805460011901610f1157604051633ee5aeb560e01b815260040160405180910390fd5b60029055565b600080610f2261132b565b600c8101549091506102839061098190600160901b90046001600160401b031685614c23565b600080610f5361132b565b600f0160109054906101000a900461ffff1661ffff16905060006040518060400160405280836001600160401b03811115610f9057610f90614778565b604051908082528060200260200182016040528015610fd557816020015b6040805180820190915260008082526020820152815260200190600190039081610fae5790505b508152602001600081525090506000805b838110801561100657508a6001600160401b0316826001600160401b0316105b156110545760008061102261101b858f614ada565b8d8761276e565b915091508115611033575050611054565b61103d8185614a5e565b93505050808061104c90614a7d565b915050610fe6565b50806001600160401b031660000361107f5760405163882ccad960e01b815260040160405180910390fd5b600061108f633b9aca0034614c23565b905060005b83602001518110156111925760008185602001516110b29190614c10565b6110bc9084614c23565b90506110c88184614c10565b92506000856000015183815181106110e2576110e2614c37565b6020026020010151905061118760405180610160016040528083600001516001600160a01b0316815260200183602001516001600160401b03168152602001336001600160a01b031681526020018e81526020016000151581526020018d6001600160a01b0316815260200161115785611c3e565b6001600160401b03908116825260006020830181905260408301528d151560608301528c16608090910152611cd9565b505050600101611094565b508a6001600160401b0316826001600160401b0316101561126a57896001600160401b03166001036112105760006111d26111cd848e614ada565b611377565b60405181815290915033907f904705a8c5f2f591fc17b035273f96eeb51cf617d5cb60cd1e5a02e1c943c94e9060200160405180910390a25061126a565b60008a61121d848e614ada565b6112279190614c4d565b6040516001600160401b038216815290915033907fffb29516defd624d1f4ff8436cc96282ba7b4294c3a18cf274c3bdf21c9ccd999060200160405180910390a2505b600061127583611377565b90506112813382611b04565b9b9a5050505050505050505050565b604081901b68010000000000000000600160e01b03167f5bebac0595fee029d42bb673937f5f1cb81cf8641382bc17774635de9b7d79651860048101546000919060ff16828160058111156112e7576112e7614b0f565b141580156113075750600581600581111561130457611304614b0f565b14155b6113245760405163d68a46c560e01b815260040160405180910390fd5b5092915050565b7f4f24f5c433db0962dac0d2c8b84197a6e6c7cc4e5d9ebe1916a1b6193da2f33a90565b7f5bebac0595fee029d42bb673937f5f1cb81cf8641382bc17774635de9b7d79651860401c90565b60008061138261132b565b600c810154909150610283906001600160401b03600160901b9091048116908516614bf9565b6000805160206153b48339815191526001600160401b0382166000036113cd57505050565b60006113d88461134f565b6009830154600160401b90046001600160401b031660008181526007850160205260409020805492935090916001600160a01b038085169116036114d55780548590829060149061143a908490600160a01b90046001600160401b0316614a5e565b92506101000a8154816001600160401b0302191690836001600160401b0316021790555060006114808260000160149054906101000a90046001600160401b0316611377565b9050826001600160401b0316846001600160a01b03167f9d2e72c50be7927e999d37329649af37a863df77bcb25361699ce021d3d7475d836040516114c791815260200190565b60405180910390a350611544565b60006114e56007860185886129c0565b905060006114f287611377565b9050816001600160401b0316856001600160a01b03167f631f8f2039090539b2ea4ef7dc567f7f1939ef4dd3e790b1ca7bc548a1fada588360405161153991815260200190565b60405180910390a350505b505050505050565b60068201546001600160401b03808316911603611567575050565b60068201805467ffffffffffffffff19166001600160401b038316179055600061159082611377565b905061159b8361134f565b6001600160a01b03167fa3db2bc927901a1d3ba09ad51d84609457b98443be9132a0a936a47c5a1081b5826040516115d591815260200190565b60405180910390a2505050565b60006000805160206153b4833981519152838203611613576040516302e8145360e61b815260040160405180910390fd5b6000848152600a820160205260409020915082156116565761163482612dc9565b611651576040516302e8145360e61b815260040160405180910390fd5b611324565b60006004830154600160a01b900460ff16600681111561167857611678614b0f565b03611324576040516302e8145360e61b815260040160405180910390fd5b6116a08133612e12565b6104765760405163f6e2f99b60e01b815260040160405180910390fd5b60006116c761132b565b6008810154600b8201549192506001600160a01b0316906116eb6020850185614b25565b602001351461170d5760405163057f3fa760e51b815260040160405180910390fd5b60405163f34ef58760e01b81526001600160a01b0382169063f34ef58790611739908690600401614e33565b602060405180830381865afa158015611756573d6000803e3d6000fd5b505050506040513d601f19601f8201168201806040525081019061177a9190614ed0565b610e8b5760405163f5c977e760e01b815260040160405180910390fd5b60058301546117b7908390600160801b90046001600160401b0316614ada565b8360050160106101000a8154816001600160401b0302191690836001600160401b0316021790555080610e8b576005830154611804908390600160c01b90046001600160401b0316614ada565b8360050160186101000a8154816001600160401b0302191690836001600160401b03160217905550505050565b600581015460009061185890633b9aca0090600160a01b90046001600160401b0316614bf9565b905080156106ce5760058201805467ffffffffffffffff60a01b1916905561187e612e65565b6001600160a01b03166108fc829081150290604051600060405180830381858888f19350505050158015610e8b573d6000803e3d6000fd5b60038160068111156118ca576118ca614b0f565b10156118d8576118d8614af9565b60048201805482919060ff60a01b1916600160a01b8360068111156118ff576118ff614b0f565b0217905550610e8b8383612e83565b6116a061191a82611290565b33612e12565b6000808211611942576040516323d359a360e01b815260040160405180910390fd5b610be3848484612ee4565b6000806000805160206153b48339815191528161196861132b565b600f0154600160801b900461ffff169050600061198361132b565b600d01546001600160401b0316905060005b82811080156119b55750876001600160401b0316866001600160401b0316105b15611a9357600060088501816119ca8c61134f565b6001600160a01b0316815260208101919091526040016000908120546001600160401b031691508190036119fe5750611a93565b6001600160401b038181166000908152600787016020526040812060068d015481549193611a379291811691600160a01b900416614a5e565b9050611a438582614aac565b611a4d9082614ada565b90506000611a64611a5e8b8e614ada565b83612fce565b9050611a7084826123c8565b611a7a818b614a5e565b9950505050508080611a8b90614a7d565b915050611995565b506000611ab6611aa3878a614ada565b60068b01546001600160401b0316612fce565b90506001600160401b03811615611add57611ad18187614a5e565b9550611add8982612ff7565b8615611aed57611aed898761301f565b611af686611377565b945050505050935093915050565b611b0c611b6c565b604051632770a7eb60e21b81526001600160a01b038481166004830152602482018490529190911690639dc29fac90604401600060405180830381600087803b158015611b5857600080fd5b505af1158015611544573d6000803e3d6000fd5b600080611b7761132b565b600101546001600160a01b031692915050565b6002600482015460ff166005811115611ba557611ba5614b0f565b14611bad5750565b6000611bb88261306b565b90506000611bc683836130df565b90508015610e8b576004830180547fff00ff0000000000000000ffffffffffffffffffffffffffffffffffffffff00166001179055611c048361134f565b6001600160a01b03167fe513b42585b0ceec0d56d56fe3a23861c15a2f74eb4c32c94334d63d68ff4dcf60405160405180910390a2505050565b60006001600160401b03821115611cab5760405162461bcd60e51b815260206004820152602660248201527f53616665436173743a2076616c756520646f65736e27742066697420696e203660448201526534206269747360d01b60648201526084015b60405180910390fd5b5090565b80546001600160a01b0316331461047657604051636f6afbb360e01b815260040160405180910390fd5b60008160c001516001600160401b031660001480611d03575060a08201516001600160a01b031615155b611d2057604051632a436fa560e21b815260040160405180910390fd5b81516000805160206153b483398151915290600090611d3e90611290565b9050608084606001515110611d665760405163599ec1c160e01b815260040160405180910390fd5b6060840151805160209091012060038201548103611d97576040516302908b3160e11b815260040160405180910390fd5b6000611dae611da98760200151611377565b61316c565b9050611dbd86608001516131d5565b9450611e67604080516102a081018252600080825260208201819052918101829052606081018290526080810182905260a0810182905260c0810182905260e08101829052610100810182905261012081018290529061014082019081526000602082018190526040820181905260608083018290526080830182905260a0830182905260c083015260e08201819052610100820181905261012082018190526101409091015290565b8281526001600160801b0382166020820152600f8501546201000090046001600160401b03166060820152865160e0880151611ea3919061326a565b6001600160401b0390811660a0840152166080820152611ec242611c3e565b6001600160401b031661010080830191909152870151611f0e57611f09611da9611eea61132b565b600e01546001600160801b03851690600160401b900461ffff16612604565b611f11565b60005b6001600160801b03166040828101919091528701516001600160a01b0390811660e083015287511661012082015260208701516001600160401b031660c08201526001610140820181815250508660800151816101600190151590811515815250508660a001518161018001906001600160a01b031690816001600160a01b0316815250508660c00151816101a001906001600160401b031690816001600160401b03168152505086606001518161020001819052508661010001518161022001901515908115158152505083600c01601c9054906101000a900461ffff1681610240019061ffff16908161ffff1681525050866101200151816102600190151590811515815250508661014001518161028001906001600160401b031690816001600160401b0316815250508085600a016000886001600160401b031681526020019081526020016000206000820151816000015560208201518160010160006101000a8154816001600160801b0302191690836001600160801b0316021790555060408201518160010160106101000a8154816001600160801b0302191690836001600160801b0316021790555060608201518160020160006101000a8154816001600160401b0302191690836001600160401b0316021790555060808201518160020160086101000a8154816001600160401b0302191690836001600160401b0316021790555060a08201518160020160106101000a8154816001600160401b0302191690836001600160401b0316021790555060c08201518160020160186101000a8154816001600160401b0302191690836001600160401b0316021790555060e08201518160030160006101000a8154816001600160a01b0302191690836001600160a01b031602179055506101008201518160030160146101000a8154816001600160401b0302191690836001600160401b031602179055506101208201518160040160006101000a8154816001600160a01b0302191690836001600160a01b031602179055506101408201518160040160146101000a81548160ff0219169083600681111561222957612229614b0f565b021790555061016082015160048201805460ff60a81b1916600160a81b921515929092029190911790556101808201516005820180546101a08501516001600160a01b039093166001600160e01b031990911617600160a01b6001600160401b03938416021790556101c08301516006830180546101e08601519284166fffffffffffffffffffffffffffffffff1990911617600160401b929093169190910291909117905561020082015160078201906122e49082614f6e565b5061022082015160089091018054610240840151610260850151610280909501516001600160401b0316640100000000026bffffffffffffffff0000000019951515630100000002959095166bffffffffffffffffff0000001961ffff9092166101000262ffff00199515159590951662ffffff199093169290921793909317929092169190911791909117905560208701516080880151612387918691613382565b61239681878960600151613426565b5050505050919050565b6123a93361359f565b6123c65760405163a4138f6160e01b815260040160405180910390fd5b565b6001600160401b03821660009081527fec7e8c1c441439dd40959777f4c577ea0cd42fcc1dbe59d2bd0f5d9c55df8dbd602081905260408220805491929091612419906001600160a01b0316611290565b9050600061242561132b565b600d0154600683015484546001600160401b03928316935060009288926124589290821691600160a01b90910416614a5e565b6124629190614ada565b905060006124708383614aac565b9050600061247e8284614ada565b9050806001600160401b03166000036124e85761249b878a61368b565b886001600160401b03166124ae8661134f565b6001600160a01b03167fb7f65e70a51658e24800516a5dc90e2dd65176e18381adda77f58e2044482b1960405160405180910390a361258a565b85546001600160401b03828116600160a01b909204161461258a57855467ffffffffffffffff60a01b1916600160a01b6001600160401b03831602178655600061253182611377565b9050896001600160401b03166125468761134f565b6001600160a01b03167f9d2e72c50be7927e999d37329649af37a863df77bcb25361699ce021d3d7475d8360405161258091815260200190565b60405180910390a3505b612594858361154c565b505050505050505050565b6000806000805160206153b483398151915290506125e08160000184815481106125cb576125cb614c37565b90600052602060002090600402016000613a65565b5090949350505050565b6000610283826125fc6009600a61510b565b859190611920565b60006102838383612710612ee4565b60008061261f85613cab565b9050600061262c8661134f565b82546040516370a0823160e01b81526001600160a01b0380841660048301529293506126a592879216906370a0823190602401602060405180830381865afa15801561267c573d6000803e3d6000fd5b505050506040513d601f19601f820116820180604052508101906126a09190615117565b613cf8565b825460405163083e007560e21b81526001600160a01b0391821660048201528782166024820152604481018390529194508216906320f801d490606401600060405180830381600087803b1580156126fc57600080fd5b505af1158015612710573d6000803e3d6000fd5b5050505050509392505050565b600080612728613d07565b90506000612734613d6f565b905081600381111561274857612748614b0f565b81600381111561275a5761275a614b0f565b116127655781612767565b805b9250505090565b7fec7e8c1c441439dd40959777f4c577ea0cd42fcc1dbe59d2bd0f5d9c55df8dbf5460009081906000805160206153b4833981519152906001600160401b03168083036127c457600160009350935050506129b8565b6001600160401b0381166000908152600783016020526040812080549091506001600160a01b031660006127f782611290565b60068101548454919250600091612821916001600160401b0390811691600160a01b900416614a5e565b905061282d8a82614aac565b6128379082614ada565b905060009750806001600160401b03168b6001600160401b0316111561285d578061285f565b8a5b96506001600160401b038716156129a65760005b8960200151811080156128b95750836001600160a01b03168a6000015182815181106128a1576128a1614c37565b6020026020010151600001516001600160a01b031614155b156128ce576128c781614a7d565b9050612873565b896020015181101561293a57878a6000015182815181106128f1576128f1614c37565b6020026020010151602001516129079190614a5e565b8a5180518390811061291b5761291b614c37565b6020908102919091018101516001600160401b03909216910152612996565b6040518060400160405280856001600160a01b03168152602001896001600160401b03168152508a600001518b602001805180919061297890614a7d565b90528151811061298a5761298a614c37565b60200260200101819052505b6129a086896123c8565b506129b1565b6129b18560006123c8565b5050505050505b935093915050565b6001600160a01b038216600090815260018401602052604081206002850180548391906010906129ff90600160801b90046001600160401b0316615130565b91906101000a8154816001600160401b0302191690836001600160401b03160217905590506040518060c00160405280866001600160a01b03168152602001856001600160401b031681526020018760020160089054906101000a90046001600160401b03166001600160401b0316815260200160006001600160401b031681526020018360000160089054906101000a90046001600160401b03166001600160401b0316815260200160006001600160401b0316815250866000016000836001600160401b03166001600160401b0316815260200190815260200160002060008201518160000160006101000a8154816001600160a01b0302191690836001600160a01b0316021790555060208201518160000160146101000a8154816001600160401b0302191690836001600160401b0316021790555060408201518160010160006101000a8154816001600160401b0302191690836001600160401b0316021790555060608201518160010160086101000a8154816001600160401b0302191690836001600160401b0316021790555060808201518160010160106101000a8154816001600160401b0302191690836001600160401b0316021790555060a08201518160010160186101000a8154816001600160401b0302191690836001600160401b031602179055509050508560020160009054906101000a90046001600160401b03166001600160401b0316600003612c5c576002860154600160401b90046001600160401b031615612c3957612c39614af9565b60028601805467ffffffffffffffff19166001600160401b038316179055612cc4565b6002860154600160401b90046001600160401b0316600003612c8057612c80614af9565b6002860154600160401b908190046001600160401b039081166000908152602089905260409020600101805467ffffffffffffffff60401b19169184169092021790555b6002860180546001600160401b03808416600160401b0267ffffffffffffffff60401b1990921691909117909155825416600003612d3a578154600160401b90046001600160401b031615612d1b57612d1b614af9565b815467ffffffffffffffff19166001600160401b038216178255612d9d565b8154600160401b90046001600160401b0316600003612d5b57612d5b614af9565b81546001600160401b03600160401b909104811660009081526020889052604090206001018054918316600160c01b026001600160c01b039092169190911790555b815467ffffffffffffffff60401b1916600160401b6001600160401b0383160217909155949350505050565b6004810154600090600160a01b900460ff166001816006811115612def57612def614b0f565b148061028357506002816006811115612e0a57612e0a614b0f565b149392505050565b60006001600160a01b03821615801590610283575060018301546001600160a01b03838116911614806102835750612e4983613dd7565b6001600160a01b0316826001600160a01b031614905092915050565b600080612e7061132b565b600901546001600160a01b031692915050565b600881015460ff16156106ce576004810154600090612eaa906001600160a01b0316611290565b600c81015490915064010000000090046001600160401b0316839003610e8b57600c0180546bffffffffffffffff00000000191690555050565b6000808060001985870985870292508281108382030391505080600003612f1e57838281612f1457612f14614a96565b0492505050610283565b808411612f655760405162461bcd60e51b81526020600482015260156024820152744d6174683a206d756c446976206f766572666c6f7760581b6044820152606401611ca2565b60008486880960026001871981018816978890046003810283188082028403028082028403028082028403028082028403028082028403029081029092039091026000889003889004909101858311909403939093029303949094049190911702949350505050565b6000816001600160401b0316836001600160401b03161115612ff05781610283565b5090919050565b60068201546000906130139083906001600160401b0316614ada565b9050610e8b838261154c565b600582015461303f908290600160401b90046001600160401b0316614ada565b8260050160086101000a8154816001600160401b0302191690836001600160401b031602179055505050565b6130966040518060800160405280600081526020016000815260200160008152602001600081525090565b6000806130a4846000613e50565b915091506000806130b6866001613e50565b604080516080810182529687526020870192909252908501939093525050606082015292915050565b6000806130ed846000613eab565b905060006130fc856001613eab565b8451909150821180159061312b5760048601805460ff60f01b198116600160f01b9182900460fe169091021790555b6020850151821180159061315a5760048701805460ff60f01b198116600160f01b9182900460fd169091021790555b81801561038f57509695505050505050565b60006001600160801b03821115611cab5760405162461bcd60e51b815260206004820152602760248201527f53616665436173743a2076616c756520646f65736e27742066697420696e20316044820152663238206269747360c81b6064820152608401611ca2565b60006000805160206153b4833981519152816131ef613ef1565b600e83015461320e9190600160401b90046001600160401b0316614a5e565b905060008461321e576000613221565b60015b60ff16600119613232846001614a5e565b161790508083600e0160086101000a8154816001600160401b0302191690836001600160401b03160217905550809350505050919050565b6000806000805160206153b48339815191528161328561132b565b905060008561329388613f1e565b600f850154600160901b90046001600160401b03166132b142611c3e565b6132bb9190614ada565b6132c59190614a5e565b6132cf9190614a5e565b600c8301549091506000906133039063ffffffff166132f96001600160401b0385166103e8614bf9565b6109819190614c23565b600d840154600f8601549192506001600160401b03600160981b90910481169161333591849162010000900416614a5e565b61333f9190614a5e565b600e840154600f8601549197506001600160401b039081169161336b918591600160501b900416614a5e565b6133759190614a5e565b9450505050509250929050565b818360050160108282829054906101000a90046001600160401b03166133a89190614a5e565b92506101000a8154816001600160401b0302191690836001600160401b031602179055508061341c57818360050160188282829054906101000a90046001600160401b03166133f79190614a5e565b92506101000a8154816001600160401b0302191690836001600160401b031602179055505b610e8b838361301f565b826102600151156134f257816001600160401b03168360e001516001600160a01b03168461012001516001600160a01b03167f69d3fbffef4aa48d6ca36062093fb43285bec462796871a135d831f257e7d8ed848760200151886040015189606001518a608001518b60a001516134a58c6001600160401b0316613fe0565b8d6101800151633b9aca008f6101a001516001600160401b03166134c99190614bf9565b8f61028001516040516134e59a999897969594939291906151a1565b60405180910390a4505050565b816001600160401b03168360e001516001600160a01b03168461012001516001600160a01b03167f8cbbd73a8d1b8b02a53c4c3b0ee34b472fe3099cc19bcfb57f1aae09e8a9847e848760200151886040015189606001518a608001518b60a001516135668c6001600160401b0316613fe0565b8d6101800151633b9aca008f6101a001516001600160401b031661358a9190614bf9565b6040516134e59998979695949392919061521b565b600080309050806001600160a01b0316635aa6e6756040518163ffffffff1660e01b8152600401602060405180830381865afa1580156135e3573d6000803e3d6000fd5b505050506040513d601f19601f82011682018060405250810190613607919061528a565b6001600160a01b0316836001600160a01b031614806102835750604051630debfda360e41b81526001600160a01b03848116600483015282169063debfda3090602401602060405180830381865afa158015613667573d6000803e3d6000fd5b505050506040513d601f19601f820116820180604052508101906102839190614ed0565b6001600160401b038116600090815260208390526040902080546001600160a01b03166136ba576136ba614af9565b80546001600160a01b031660009081526001808501602052604082209083015490916001600160401b0390911690036137405760028401546001600160401b0384811691161461370c5761370c614af9565b6001820154600285018054600160401b9092046001600160401b031667ffffffffffffffff199092169190911790556137a8565b60028401546001600160401b039081169084160361376057613760614af9565b6001828101546001600160401b038082166000908152602088905260409020909201805467ffffffffffffffff60401b1916600160401b928390049093169091029190911790555b6001820154600160401b90046001600160401b031660000361381f5760028401546001600160401b03848116600160401b90920416146137ea576137ea614af9565b600182015460028501805467ffffffffffffffff60401b19166001600160401b03909216600160401b02919091179055613887565b60028401546001600160401b03600160401b90910481169084160361384657613846614af9565b600180830154600160401b81046001600160401b039081166000908152602088905260409020909201805467ffffffffffffffff1916929091169190911790555b6001820154600160801b90046001600160401b03166000036138ec5780546001600160401b038481169116146138bf576138bf614af9565b60018201548154600160c01b9091046001600160401b031667ffffffffffffffff19909116178155613952565b80546001600160401b039081169084160361390957613909614af9565b6001828101546001600160401b03600160801b82048116600090815260208890526040902090920180546001600160c01b0316600160c01b928390049093169091029190911790555b6001820154600160c01b90046001600160401b03166000036139c55780546001600160401b03848116600160401b909204161461399157613991614af9565b6001820154815467ffffffffffffffff60401b1916600160801b9091046001600160401b0316600160401b02178155613a37565b80546001600160401b03600160401b9091048116908416036139e9576139e9614af9565b6001828101546001600160401b03600160c01b820481166000908152602088905260409020909201805467ffffffffffffffff60801b1916600160801b928390049093169091029190911790555b50506001600160401b031660009081526020919091526040812080546001600160e01b031916815560010155565b600080600080600080613b04886001018054613a8090614eed565b80601f0160208091040260200160405190810160405280929190818152602001828054613aac90614eed565b8015613af95780601f10613ace57610100808354040283529160200191613af9565b820191906000526020600020905b815481529060010190602001808311613adc57829003601f168201915b50505050508861400a565b925092509250868015613b15575081155b15613b2d576000806000955095509550505050613ca4565b82600003613b4e57604051634dfba02360e01b815260040160405180910390fd5b8754600160f01b900460ff1615613b8d578754600090613b7c90600160a81b900460ff16600183878661414e565b9650919450849350613ca492505050565b6000806000613c288b6002018054613ba490614eed565b80601f0160208091040260200160405190810160405280929190818152602001828054613bd090614eed565b8015613c1d5780601f10613bf257610100808354040283529160200191613c1d565b820191906000526020600020905b815481529060010190602001808311613c0057829003601f168201915b50505050508b61400a565b925092509250898015613c39575081155b15613c54576000806000985098509850505050505050613ca4565b82600003613c7557604051634dfba02360e01b815260040160405180910390fd5b8a54600090613c9190600160a81b900460ff1685848a8961414e565b9950949750909550613ca4945050505050565b9250925092565b6000806000805160206153b483398151915260048401548154919250829161010090910461ffff16908110613ce257613ce2614c37565b9060005260206000209060040201915050919050565b6000818310612ff05781610283565b7fec7e8c1c441439dd40959777f4c577ea0cd42fcc1dbe59d2bd0f5d9c55df8dc6546000906000805160206153b48339815191529042600160401b9091046001600160401b03161180613d5b576000612767565b5060110154600160901b900460ff16919050565b7fec7e8c1c441439dd40959777f4c577ea0cd42fcc1dbe59d2bd0f5d9c55df8dc7546000906000805160206153b48339815191529042600160a01b9091046001600160401b03161180613dc3576000612767565b5060110154600160981b900460ff16919050565b6000613de16141d2565b6001830154604051631f86345d60e31b81526001600160a01b03918216600482015291169063fc31a2e890602401602060405180830381865afa158015613e2c573d6000803e3d6000fd5b505050506040513d601f19601f8201168201806040525081019061093b919061528a565b600080600080613e6086866141f0565b915091506000613e7083886142ce565b90506000613e7e83896142ce565b9050613e9284604001518460400151613cf8565b9450613e9e8282614325565b9550505050509250929050565b600080613eb88484614334565b9050613ec484846143d9565b613ed9576003015463ffffffff16905061093b565b60030154600160401b900463ffffffff16905061093b565b60006103e843613eff614442565b613f0991906152a7565b613f1391906152ba565b6103b59060016152a7565b6001600160a01b03811660009081527f1309a575a1ebd5e5ca64d58e63b864f1d06aed3e31a021b0eabae653c215fb07602052604081207f1309a575a1ebd5e5ca64d58e63b864f1d06aed3e31a021b0eabae653c215fb069082613f8142611c3e565b83548354919250600091613fa1916001600160401b039081169116614a5e565b9050613fad818361453b565b835467ffffffffffffffff19166001600160401b03919091169081178455613fd6908390614ada565b9695505050505050565b60006001600160401b03821115613ff957613ff9614af9565b5067232128293320800160c11b1790565b60008060008061401861132b565b600a8101549091506001600160a01b031685156140d457600080600080846001600160a01b031663e731a1bc8c6040518263ffffffff1660e01b815260040161406191906152ce565b608060405180830381865afa15801561407e573d6000803e3d6000fd5b505050506040513d601f19601f820116820180604052508101906140a291906152e1565b60ff169350935093509350600081116140bf5760008060006140c3565b8383835b985098509850505050505050613ca4565b60405163524f388960e01b81526001600160a01b0382169063524f388990614100908a906004016152ce565b606060405180830381865afa15801561411d573d6000803e3d6000fd5b505050506040513d601f19601f82011682018060405250810190614141919061532a565b9450945094505050613ca4565b60008061415961132b565b905060006009614169878a6152a7565b61417391906152a7565b600a830154909150600090614193908690600160a81b900460ff166152a7565b9050808210156141a5576141a5614af9565b6141c56141b28284614c10565b6141bd90600a61510b565b87908a611920565b9998505050505050505050565b6000806141dd61132b565b600701546001600160a01b031692915050565b6142156040805160608101909152806000815260200160008152602001600081525090565b61423a6040805160608101909152806000815260200160008152602001600081525090565b60006142468585614334565b9050600061425586868461455d565b905060008061426384614649565b91509150604051806060016040528088600281111561428457614284614b0f565b815260200184815260200183815250955060405180606001604052808860028111156142b2576142b2614b0f565b8152602001848152602001828152509450505050509250929050565b6000806142df8385600001516146f8565b905060006142f18286604001516125ea565b90508060000361430a576402540be4009250505061093b565b602085015161431c9061271083611920565b95945050505050565b6000818311612ff05781610283565b6000600282600281111561434a5761434a614b0f565b0361435757614357614af9565b6000805160206153b4833981519152600083600281111561437a5761437a614b0f565b036143b657600484015481548291610100900461ffff169081106143a0576143a0614c37565b906000526020600020906004020191505061093b565b6004840154815482916301000000900461ffff169081106143a0576143a0614c37565b6000808260028111156143ee576143ee614b0f565b0361440a57506004820154600160f01b9004600116151561093b565b600182600281111561441e5761441e614b0f565b1461442b5761442b614af9565b506004820154600160f01b9004600216151561093b565b60008061444d61132b565b905060008160080160009054906101000a90046001600160a01b031690506000816001600160a01b031663b59589d16040518163ffffffff1660e01b8152600401602060405180830381865afa1580156144ab573d6000803e3d6000fd5b505050506040513d601f19601f820116820180604052508101906144cf919061528a565b6001600160a01b031663dbdff2c16040518163ffffffff1660e01b8152600401606060405180830381865afa15801561450c573d6000803e3d6000fd5b505050506040513d601f19601f820116820180604052508101906145309190615358565b509095945050505050565b6000816001600160401b0316836001600160401b03161015612ff05781610283565b6000600183600281111561457357614573614b0f565b036145ec57835460408051634ac8eb5f60e01b815290516001600160a01b0390921691634ac8eb5f916004808201926020929091908290030181865afa1580156145c1573d6000803e3d6000fd5b505050506040513d601f19601f820116820180604052508101906145e59190615117565b9050610283565b81546001600160a01b03166370a082316146058661134f565b6040516001600160e01b031960e084901b1681526001600160a01b039091166004820152602401602060405180830381865afa1580156145c1573d6000803e3d6000fd5b600080600061465661132b565b90506000806000614668876000613a65565b925092509250600080600061467e8a6001613a65565b60108a0154929550909350915060009085906146aa90600160c01b90046001600160401b0316846152a7565b101580156146d75750601088015486906146d490600160c01b90046001600160401b0316856152a7565b10155b9050869950806146e757866146e9565b835b98505050505050505050915091565b600080600183600281111561470f5761470f614b0f565b1461472e576005840154600160801b90046001600160401b0316614744565b6005840154600160c01b90046001600160401b03165b60058501546001600160401b039182169250829161476e9180821691600160401b909104166152a7565b610be391906152a7565b634e487b7160e01b600052604160045260246000fd5b600082601f83011261479f57600080fd5b81356001600160401b038111156147b8576147b8614778565b604051601f8201601f19908116603f011681016001600160401b03811182821017156147e6576147e6614778565b6040528181528382016020018510156147fe57600080fd5b816020850160208301376000918101602001919091529392505050565b6001600160a01b038116811461047657600080fd5b60008060006060848603121561484557600080fd5b8335925060208401356001600160401b0381111561486257600080fd5b61486e8682870161478e565b925050604084013561487f8161481b565b809150509250925092565b60006020828403121561489c57600080fd5b81356102838161481b565b600080604083850312156148ba57600080fd5b82356001600160401b038111156148d057600080fd5b8301604081860312156148e257600080fd5b946020939093013593505050565b6000806040838503121561490357600080fd5b82356148e28161481b565b600080600080600060a0868803121561492657600080fd5b85356149318161481b565b945060208601356149418161481b565b93506040860135925060608601356001600160401b0381111561496357600080fd5b61496f8882890161478e565b92505060808601356149808161481b565b809150509295509295909350565b600080600080608085870312156149a457600080fd5b8435935060208501356001600160401b038111156149c157600080fd5b6149cd8782880161478e565b93505060408501356149de8161481b565b9396929550929360600135925050565b600060208284031215614a0057600080fd5b5035919050565b600080600060608486031215614a1c57600080fd5b8335614a278161481b565b92506020840135614a378161481b565b929592945050506040919091013590565b634e487b7160e01b600052601160045260246000fd5b6001600160401b03818116838216019081111561093b5761093b614a48565b600060018201614a8f57614a8f614a48565b5060010190565b634e487b7160e01b600052601260045260246000fd5b60006001600160401b03831680614ac557614ac5614a96565b806001600160401b0384160691505092915050565b6001600160401b03828116828216039081111561093b5761093b614a48565b634e487b7160e01b600052600160045260246000fd5b634e487b7160e01b600052602160045260246000fd5b6000823560be19833603018112614b3b57600080fd5b9190910192915050565b60008235601e19833603018112614b3b57600080fd5b6000808335601e19843603018112614b7257600080fd5b8301803591506001600160401b03821115614b8c57600080fd5b602001915036819003821315614ba157600080fd5b9250929050565b8183823760009101908152919050565b60008235605e19833603018112614b3b57600080fd5b801515811461047657600080fd5b600060208284031215614bee57600080fd5b813561028381614bce565b808202811582820484141761093b5761093b614a48565b8181038181111561093b5761093b614a48565b600082614c3257614c32614a96565b500490565b634e487b7160e01b600052603260045260246000fd5b60006001600160401b03831680614c6657614c66614a96565b806001600160401b0384160491505092915050565b6000823560be19833603018112614c9157600080fd5b90910192915050565b80356001600160401b0381168114614cb157600080fd5b919050565b6000808335601e19843603018112614ccd57600080fd5b83016020810192503590506001600160401b03811115614cec57600080fd5b803603821315614ba157600080fd5b81835281816020850137506000828201602090810191909152601f909101601f19169091010190565b6000614d308283614cb6565b6020855261431c602086018284614cfb565b60008235605e19833603018112614c9157600080fd5b60008135614d6581614bce565b15158352614d766020830183614cb6565b60606020860152614d8b606086018284614cfb565b6040948501359590940194909452509092915050565b803582526020808201359083015260006001600160401b03614dc560408401614c9a565b1660408401526001600160401b03614ddf60608401614c9a565b1660608401526080820135601e19833603018112614dfc57600080fd5b60c06080850152614e1260c08501848301614d24565b9050614e2160a0840184614d42565b84820360a086015261431c8282614d58565b6020815260008235601e19843603018112614e4d57600080fd5b83016020810190356001600160401b03811115614e6957600080fd5b8060051b803603831315614e7c57600080fd5b60406020860152606085018290526001600160fb1b03821115614e9e57600080fd5b8083608087013784019150614eb890506020850185614c7b565b606084830301604085015261431c6080830182614da1565b600060208284031215614ee257600080fd5b815161028381614bce565b600181811c90821680614f0157607f821691505b602082108103614f2157634e487b7160e01b600052602260045260246000fd5b50919050565b601f821115610e8b57806000526020600020601f840160051c81016020851015614f4e5750805b601f840160051c820191505b81811015610aeb5760008155600101614f5a565b81516001600160401b03811115614f8757614f87614778565b614f9b81614f958454614eed565b84614f27565b6020601f821160018114614fcf5760008315614fb75750848201515b600019600385901b1c1916600184901b178455610aeb565b600084815260208120601f198516915b82811015614fff5787850151825560209485019460019092019101614fdf565b508482101561501d5786840151600019600387901b60f8161c191681555b50505050600190811b01905550565b6001815b60018411156129b85780850481111561504b5761504b614a48565b600184161561505957908102905b60019390931c928002615030565b6000826150765750600161093b565b816150835750600061093b565b816001811461509957600281146150a3576150bf565b600191505061093b565b60ff8411156150b4576150b4614a48565b50506001821b61093b565b5060208310610133831016604e8410600b84101617156150e2575081810a61093b565b6150ef600019848461502c565b806000190482111561510357615103614a48565b029392505050565b60006102838383615067565b60006020828403121561512957600080fd5b5051919050565b60006001600160401b0382166001600160401b03810361515257615152614a48565b60010192915050565b6000815180845260005b8181101561518157602081850181015186830182015201615165565b506000602082860101526020601f19601f83011685010191505092915050565b610140815260006151b661014083018d61515b565b6001600160801b039b8c16602084015299909a1660408201526001600160401b039788166060820152958716608087015293861660a086015260c08501929092526001600160a01b031660e08401526101008301529091166101209091015292915050565b6101208152600061523061012083018c61515b565b6001600160801b039a8b1660208401529890991660408201526001600160401b03968716606082015294861660808601529290941660a084015260c08301526001600160a01b0390921660e0820152610100015292915050565b60006020828403121561529c57600080fd5b81516102838161481b565b8082018082111561093b5761093b614a48565b6000826152c9576152c9614a96565b500690565b602081526000610283602083018461515b565b600080600080608085870312156152f757600080fd5b8451602086015160408701516060880151929650909450925060ff8116811461531f57600080fd5b939692955090935050565b60008060006060848603121561533f57600080fd5b5050815160208301516040909301519094929350919050565b60008060006060848603121561536d57600080fd5b8351602085015190935061538081614bce565b604094909401519295939450919291505056fe7f8f3317195e039f77d1ec7656fd1a8b1be398afbed64c424e6b0fe62664491eec7e8c1c441439dd40959777f4c577ea0cd42fcc1dbe59d2bd0f5d9c55df8db60cd2207518cd3e5213e2c6dbe63d55b60aa893c194a427b7d7f1600408fd5bdea26469706673582212208c89fe09d4422e93eab362182ba376627987cd1df890839f67c579beeb49cb4c64736f6c634300081b0033",
  "linkReferences": {},
  "deployedLinkReferences": {}
}